:03000000020F8864
:0C0F8800787FE4F6D8FD75813E020CE590
:100B5C0025386C69004572726F72002532752563F9
:100B6C0020253275B043000000000C0204AA3CAAF8
:100B7C00BBEE999371020014004100FF00AA0040E3
:100B8C000088001000440044FF040C8877083F885C
:100B9C008C90B388FB000F88FF88BF220042009422
:100BAC00008830490028070AF788CF2A3F00F32233
:100BBC003F80F380C308FB88CC2233007C94C000B8
:100BCC00F005CC11CC00FF88C710FF98C788BB225A
:100BDC000300FC44C050CC550088BC443322121195
:100BEC00002221500000300100A070A0E08060289D
:100BFC001CC060AA02A2A1A0C02000226036000086
:100C0C00C0A848A040A06082C1A2818040A0A18061
:100C1C00E020604040504855000A1CC020A212221F
:090C2C00002A21CC0000000A0698
:0A0FC300D28C308DFDC28CC28D224D
:0C0F9400758901758CB8758A0C020FC3BA
:0C0FA000758901758CFF758AF1020FC382
:080FE900C2B0120F94D2B02235
:0D0F6C00E4FF20B0FD30B0FD20B0FD7F019E
:010F79002255
:100E3800E4FFFE30B0FD120FA030B011C374079E5E
:100E4800FDF87401088002C333D8FC2FFF20B0FDE1
:040E58000EBE08DFE3
:010E5C002273
:060D8C008B0C8A0D890E9C
:100D9200E4F50FF510FFAB0CAA0DA90EEFFD33958C
:100DA200E08D82F583120C4E2510F510E4350FF517
:090DB2000F0FBF04E1AE0FAF10FA
:010DBB002215
:060E82008B088A09890AB1
:100E8800E4F50B120D8CAB08AA09A90A900004120C
:0D0E98000C4E6F7001EE6003750B01AF0B87
:010EA500222A
:100F3400900003120C4EFE900002120C4E7C002412
:050F440000FFEC3EFE81
:010F49002285
:100F4A00900001120C4EFE120C357C002400FFECBE
:020F5A003EFE59
:010F5C002272
:060EC9008B088A09890A6A
:100ECF00E4FC120E38AB08AA09A90A8C82758300BC
:080EDF00EF120C7B0CBC05EACC
:010EE70022E8
:050FF100D280D2812234
:050FF600C280C281224F
:090FD700D280D281C280C28122C5
:090FE000C281C280D281D28022BC
:0C0FAC00EF24FF9280D281C281D280220B
:070DBC00AD07120FF67FE006
:100DC300E4FEA806EF088002C333D8FC30E703D360
:100DD3008001C39280D281C2810EBE08E5E4FF1276
:070DE3000FACA280E433FF16
:010DEA0022E6
:100E1200E4FEFDD281A280E433FCC374079DFBF89B
:100E2200EC088002C333D8FC2EFEC2810DBD08E35C
:050E3200120FACAF0639
:010E37002298
:100EE800D3EF9400EE940040147D7D7C00ED1D70DE
:0D0EF800011CED4C70F7EF1F70E61E80E34B
:010F050022C9
:0A0FCD00EFD3940040031F80F722C9
:100F0600120FF17F057E00120EE8120FB87F0F1246
:070F16000F1DE4FF020F5D57
:0B0FB800120DBE7F21120DC3020FE0DE
:100F1D00EFD3940F500280027F01120DBCED44E01F
:070F2D00FF120DC3020FE0EB
:0F0F5D00120DBCED25E04481FF120DC3020FE021
:100EA600750BFF750C0B750D5C8F118E108D0F8CED
:100EB6000E7B007A00793312085C7B007A00793366
:030EC600020F7A9E
:0E0F7A00120DBEE4FF120DC3120E5D020FE059
:100E5D008B088A09890AAB08AA09A90A120C356000
:100E6D0013050AE50A7002050914F9120C35FF1273
:050E7D000D4B80E22294
:100D4B00EF24E0FFC3648094804020D3EF64809451
:100D5B00DF5018EF3395E0FEEF25E0FFEE33FE7426
:100D6B00732FF582740B3EF5838003900C33E49361
:100D7B00FE740193FFAC06AD07120DC3AF04020D59
:010D8B00C3A4
:100CE500120F06120FE9120F6CEF60097B007A00F4
:100CF5007922120EC97B007A007922120E82EF60EA
:100D0500087BFF7A0B796180317B007A00792212AA
:100D15000F4AC007C006120F348E118F12D00ED0A5
:100D25000F750BFF750C0B750D677510257A00791E
:100D35002712085C7B007A007927120F7A7F647E80
:060D450000120EE8809D83
:100C3500BB010689828A83E0225002E722BBFE02BD
:090C4500E32289828A83E49322F0
:100C4E00BB010CE58229F582E5833AF583E022505B
:100C5E0006E92582F8E622BBFE06E92582F8E222A5
:0D0C6E00E58229F582E5833AF583E49322BF
:100C7B00F8BB010DE58229F582E5833AF583E8F0AF
:100C8B00225006E92582C8F622BBFE05E92582C85B
:020C9B00F22243
:10080000E517240BF8E60517227808300702780B65
:10081000E475F001120CAF020C352000EB7F2ED2F4
:10082000008018EF540F2490D43440D4FF30040BD0
:10083000EF24BFB41A0050032461FFE518600215CD
:1008400018051BE51B7002051A30070D7808E475C2
:10085000F001120CAFEF020C9D020DEB7403D207F6
:100860008003E4C207F5178B088A09890AE4F518A2
:10087000F51AF51BE51860077F2012083B80F57517
:1008800019FFC201C200C202C203C205C206C208E9
:10089000120809FF700D3007057F0012084CAF1BCE
:1008A000AE1A22B4255FC2D5C204120809FF24D0B3
:1008B000B40A00501A75F00A781830D50508B6FF4A
:1008C0000106C6A426F620D5047002D20380D924DE
:1008D000CFB41A00EF5004C2E5D204020A4CD20190
:1008E00080C6D20080C0D20280BCD2D580BAD205E8
:1008F00080B47F2012083B2002077401B518004025
:10090000F1120800FF12083B020874D208D20680D8
:1009100095120800FB120800FA120800F94A4B7001
:1009200006791D7A0B7BFF20022EE518602A7E00D7
:100930008E82758300120C4E60060EEE651970F003
:10094000C2D5EBC0E0EAC0E0E9C0E0EE120A93D005
:10095000E0F9D0E0FAD0E0FB120C35FF60AAEBC062
:10096000E0EAC0E0E9C0E012083BD0E02401F9D0A1
:10097000E03400FAD0E0FBE5190460DCD519D98039
:10098000877BFF7A0A798FD202809C791080027966
:1009900008C206C2088008D2D5790A8004790AC242
:1009A000D5E519047002F519E4FAFDFEFF120800FE
:1009B000FC7B08200113120800FD7B1030000A1296
:1009C0000800FE120800FF7B20EC3382D592D55040
:1009D00013C3E43000069FFFE49EFEE42001039D64
:1009E000FDE49CFCE4CBF8C201EC700CCFCECDCC86
:1009F000E824F8F870F38017C3EF33FFEE33FEED11
:100A000033FDEC33FCEB33FB994002FB0FD8E9EBF1
:100A1000300105F8D0E0C448B201C0E00AEC4D4E08
:100A20004F78207B0070C2EAB5190040BCC0E012CC
:100A30000A95D0F0D0E0200104C4C0E0C4B201C0E7
:100A4000F0120824D0F0D5F0EB020874120CBF09A4
:100A50001153098B5808E24C08DE42098F4F099761
:0F0A60004409974908F743099D550981460981C3
:100A6F00450981470B3D5008E62D08EA2E090D2B4D
:100A7F0008EE23090B200B262A08A64800000905BB
:100A8F003F3F3F00790AA2D5200314300509B91062
:100A9F00020404B9080104A2D52006025001042063
:100AAF0002689202B518005034C0E07F203003195D
:100ABF007F30A20272067205500F120AECC202C2F8
:100ACF0006C205C2087F30800F300503E9C0E0126F
:100ADF00083B300503D0E0F9D0E0B518CC3005174E
:100AEF007F30B9100C12083B7F583004077F788095
:100AFF0003B9080312083B3002057F2D02083B7F24
:100B0F00202008F87F2B2006F322920280CF286E38
:100B1F00756C6C2900D2011208003001F8C20178FF
:100B2F001830D50108F60208A62D5043495812086F
:100B3F00002403B405004001E4900B389312082CF5
:0D0B4F00743A12082CD20375180402098BA9
:100C9D00BB010689828A83F0225002F722BBFE0136
:020CAD00F32230
:100CAF00FAE6FB0808E6F925F0F618E6CA3AF62246
:100CBF00D083D082F8E4937012740193700DA3A3C4
:100CCF0093F8740193F5828883E4737402936860D8
:060CDF00EFA3A3A380DFD8
:100DEB00EFB40A07740D120DF6740A309811A89916
:100DFB00B8130CC2983098FDA899C298B811F63068
:070E0B0099FDC299F599223F
:00000001FF
