:03000000020D836B
:0C0D8300787FE4F6D8FD758141020DCAAE
:100CA90025386C69004572726F72002532752563AB
:100CB90020253275B02563000000000C0204AA3C0F
:100CC900AABBEE999371020014004100FF00AA002B
:100CD900400088001000440044FF040C8877083F56
:100CE900888C90B388FB000F88FF88BF22004200E0
:100CF90094008830490028070AF788CF2A3F00F373
:100D0900223F80F380C308FB88CC2233007C94C047
:100D190000F005CC11CC00FF88C710FF98C788BB2D
:100D2900220300FC44C050CC550088BC4433221235
:100D390011002221500000300100A070A0E0806065
:100D4900281CC060AA02A2A1A0C02000226036000F
:100D590000C0A848A040A06082C1A2818040A0A193
:100D690080E020604040504855000A1CC020A21273
:0A0D790022002A21CC0000000A0627
:02115500C109CE
:0A111000D28C308DFDC28CC28D22FE
:0C10E100758901758CB8758A0C0211101D
:0C10ED00758901758CFF758AF1021110E5
:08113600C2B01210E1D2B02298
:0D10C500E4FF20B0FD30B0FD20B0FD7F0144
:0110D20022FB
:100FA700E4FFFE30B0FD1210ED30B011C374079EA0
:100FB700FDF87401088002C333D8FC2FFF20B0FD71
:040FC7000EBE08DF73
:010FCB002203
:07113E00D288D2A8D2AF2233
:0300030002114F98
:03114F00B20932B0
:0311520002113E49
:060ECE008B268A2789280B
:100ED400E4F529F52AFFAB26AA27A928EFFD3395C7
:100EE400E08D82F583120B75252AF52AE43529F560
:090EF400290FBF04E1AE29AF2A69
:010EFD0022D2
:060FF1008B228A238924F3
:100FF700E4F525120ECEAB22AA23A92490000412F1
:0D1007000B756F7001EE6003752501AF25BC
:0110140022B9
:100F2D00900003120B75FE900002120B757C0024CD
:100F3D0000FFEC3EFE200901227C007D09120BC44E
:0C0F4D007D05120BD6EF2420FFE43EFED1
:010F59002275
:1010A300900001120B75FE120B5C7C002400FFEC18
:0210B3003EFEFF
:0110B5002218
:061038008B228A238924AB
:10103E00E4FC120FA7AB22AA23A9248C827583008D
:08104E00EF120BA20CBC05EA35
:011056002277
:05114500D280D28122DE
:05114A00C280C28122F9
:09112400D280D281C280C2812276
:09112D00C281C280D281D280226D
:0C10F900EF24FF9280D281C281D28022BD
:070EFE00AD0712114A7FE06D
:100F0500E4FEA806EF088002C333D8FC30E703D31C
:100F15008001C39280D281C2810EBE08E5E4FF1232
:070F250010F9A280E433FF84
:010F2C0022A2
:100F8100E4FEFDD281A280E433FCC374079DFBF82B
:100F9100EC088002C333D8FC2EFEC2810DBD08E3EC
:050FA1001210F9AF067B
:010FA6002228
:10105700D3EF9400EE940040147D7D7C00ED1D706D
:0D106700011CED4C70F7EF1F70E61E80E3DA
:011074002259
:0A111A00EFD3940040031F80F7227A
:101075001211457F057E001210571211057F0F12C0
:07108500108CE4FF0210B61D
:0B110500120F007F21120F0502112DB8
:10108C00EFD3940F500280027F01120EFEED44E06C
:07109C00FF120F0502112DE8
:0F10B600120EFEED25E04481FF120F0502112DF1
:101015007525FF75260C7527A98F2B8E2A8D298C92
:10102500287B007A00793612085C7B007A007936D5
:031035000210D3D3
:0E10D300120F00E4FF120F05120FCC02112DB8
:100FCC008B228A238924AB22AA23A924120B5C60CE
:100FDC00130524E5247002052314F9120B5CFF128F
:050FEC000E8D80E222E1
:100E8D00EF24E0FFC3648094804020D3EF6480940E
:100E9D00DF5018EF3395E0FEEF25E0FFEE33FE74E3
:100EAD00C12FF582740C3EF5838003900D81E49380
:100EBD00FE740193FFAC06AD07120F05AF04020FD0
:010ECD00051F
:100E0F001210751211521211361210C5EF60097BB4
:100E1F00007A0079081210387B007A007908120FD7
:100E2F00F1EF60087BFF7A0C79AE80467B007A0089
:100E3F0079081210A38E0F8F10120F2D8E0D8F0E9B
:100E4F007525FF75260C7527B4850F288510297514
:100E5F002A25850D2B850E2C2009047F4380027FC8
:100E6F00468F2D7B007A00791112085C7B007A0087
:0E0E7F0079111210D37F647E00121057808804
:100D8F00020E0FE493A3F8E493A34003F68001F25D
:100D9F0008DFF48029E493A3F85407240CC8C33365
:100DAF00C4540F4420C8834004F456800146F6DF34
:100DBF00E4800B0102040810204080901155E47E5E
:100DCF00019360BCA3FF543F30E509541FFEE49329
:100DDF00A360010ECF54C025E060A840B8E493A3F0
:100DEF00FAE493A3F8E493A3C8C582C8CAC583CA1B
:100DFF00F0A3C8C582C8CAC583CADFE9DEE780BED3
:011157000097
:100B5C00BB010689828A83E0225002E722BBFE0297
:090B6C00E32289828A83E49322CA
:100B7500BB010CE58229F582E5833AF583E0225035
:100B850006E92582F8E622BBFE06E92582F8E2227F
:0D0B9500E58229F582E5833AF583E4932299
:100BA200F8BB010DE58229F582E5833AF583E8F089
:100BB200225006E92582C8F622BBFE05E92582C835
:020BC200F2221D
:100BC400EF8DF0A4A8F0CF8CF0A428CE8DF0A42E45
:020BD400FE22FF
:100BD600C2D5EC30E709B2D5E4C39DFDE49CFCEE3A
:100BE60030E715B2D5E4C39FFFE49EFE120C1EC388
:100BF600E49DFDE49CFC8003120C1E30D507C3E483
:060C06009FFFE49EFE22A8
:10080000E5312425F8E605312278223007027825E3
:10081000E475F001120C73020B5C2000EB7F2ED20A
:10082000008018EF540F2490D43440D4FF30040BD0
:10083000EF24BFB41A0050032461FFE532600215B3
:10084000320535E5357002053430070D7822E47540
:10085000F001120C73EF020C0C020F5A7403D20752
:100860008003E4C207F5318B228A238924E4F53220
:10087000F534F535E53260077F2012083B80F575C9
:1008800033FFC201C200C202C203C205C206C208CF
:10089000120809FF700D3007057F0012084CAF35B4
:1008A000AE3422B4255FC2D5C204120809FF24D099
:1008B000B40A00501A75F00A783230D50508B6FF30
:1008C0000106C6A426F620D5047002D20380D924DE
:1008D000CFB41A00EF5004C2E5D204020A4CD20190
:1008E00080C6D20080C0D20280BCD2D580BAD205E8
:1008F00080B47F2012083B2002077401B53200400B
:10090000F1120800FF12083B020874D208D20680D8
:1009100095120800FB120800FA120800F94A4B7001
:1009200006791D7A0B7BFF20022EE532602A7E00BD
:100930008E82758300120B7560060EEE653370F0C3
:10094000C2D5EBC0E0EAC0E0E9C0E0EE120A93D005
:10095000E0F9D0E0FAD0E0FB120B5CFF60AAEBC03C
:10096000E0EAC0E0E9C0E012083BD0E02401F9D0A1
:10097000E03400FAD0E0FBE5330460DCD533D98005
:10098000877BFF7A0A798FD202809C791080027966
:1009900008C206C2088008D2D5790A8004790AC242
:1009A000D5E533047002F533E4FAFDFEFF120800CA
:1009B000FC7B08200113120800FD7B1030000A1296
:1009C0000800FE120800FF7B20EC3382D592D55040
:1009D00013C3E43000069FFFE49EFEE42001039D64
:1009E000FDE49CFCE4CBF8C201EC700CCFCECDCC86
:1009F000E824F8F870F38017C3EF33FFEE33FEED11
:100A000033FDEC33FCEB33FB994002FB0FD8E9EBF1
:100A1000300105F8D0E0C448B201C0E00AEC4D4E08
:100A20004F78207B0070C2EAB5330040BCC0E012B2
:100A30000A95D0F0D0E0200104C4C0E0C4B201C0E7
:100A4000F0120824D0F0D5F0EB020874120C8309E0
:100A50001153098B5808E24C08DE42098F4F099761
:0F0A60004409974908F743099D550981460981C3
:100A6F00450981470B3D5008E62D08EA2E090D2B4D
:100A7F0008EE23090B200B262A08A64800000905BB
:100A8F003F3F3F00790AA2D5200314300509B91062
:100A9F00020404B9080104A2D52006025001042063
:100AAF0002689202B532005034C0E07F2030031943
:100ABF007F30A20272067205500F120AECC202C2F8
:100ACF0006C205C2087F30800F300503E9C0E0126F
:100ADF00083B300503D0E0F9D0E0B532CC30051734
:100AEF007F30B9100C12083B7F583004077F788095
:100AFF0003B9080312083B3002057F2D02083B7F24
:100B0F00202008F87F2B2006F322920280CF286E38
:100B1F00756C6C2900D2011208003001F8C20178FF
:100B2F003230D50108F60208A62D50434958120855
:100B3F00002403B405004001E4900B389312082CF5
:0D0B4F00743A12082CD20375320402098B8F
:100C0C00BB010689828A83F0225002F722BBFE01C7
:020C1C00F322C1
:100C1E00BC000BBE0029EF8DF084FFADF022E4CCBA
:100C2E00F875F008EF2FFFEE33FEEC33FCEE9DEC83
:100C3E00984005FCEE9DFE0FD5F0E9E4CEFD22EDC9
:100C4E00F8F5F0EE8420D21CFEADF075F008EF2F13
:100C5E00FFED33FD4007985006D5F0F222C398FD04
:050C6E000FD5F0EA22A1
:100C7300FAE6FB0808E6F925F0F618E6CA3AF62282
:100C8300D083D082F8E4937012740193700DA3A300
:100C930093F8740193F5828883E473740293686014
:060CA300EFA3A3A380DF14
:100F5A00EFB40A07740D120F65740A309811A89934
:100F6A00B8130CC2983098FDA899C298B811F630F7
:070F7A0099FDC299F59922CF
:00000001FF
