:030000000211D317
:0C11D300787FE4F6D8FD75816402121AE2
:10147F0054656D70723A2025332E32662563430012
:0614BE00042680C094D456
:0514C500D281D280225B
:0514CA00C281C2802276
:0914A500D281D280C281C28022F2
:0914AE00C280C281D280D28122E9
:0C148F00EF24FF9281D280C280D2812223
:07130900AD071214CA7F902A
:10131000E4FEA806EF088002C333D8FC30E703D30D
:101320008001C39281D280C2800EBE08E5E4FF1224
:07133000148FA281E433FFDA
:011337002293
:10138E00E4FEFDD280A281E433FCC374079DFBF81A
:10139E00EC088002C333D8FC2EFEC2800DBD08E3DC
:0513AE0012148FAF06D0
:0113B3002217
:10144B007D807C237F031214217D807C1E7F020212
:02145B0014215A
:1012D700121309AF051213101214A57F91121310E0
:1012E700E4FF12138E7549008F4A7F0112138EADEA
:1012F700077C001214AEE54AFEE42DFFEC3EFE0229
:02130700129F33
:10146F001213097F01121310AF051213100214AEDD
:1014090012130B7F011213101214A57F91121310DE
:081419007F0112138E0214AED4
:10142100AB0712130BAF03121310ECFF121310AF23
:07143100051213100214AEB6
:04129F008E4B8F4C97
:1012A300E54BFD3395E0FC1208FD8F508E4F8D4EBC
:1012B3008C4DE54C54806013AF50E4FBFAF9783F52
:1012C3001208078F508E4F8D4E8C4DAF50AE4FADE1
:0312D3004EAC4DD1
:0112D60022F5
:1013B400D3EF9400EE940040147D7D7C00ED1D700D
:0D13C400011CED4C70F7EF1F70E61E80E37A
:0113D10022F9
:0A149B00EFD3940040031F80F722F6
:0714B7008F48E4FF02145D01
:10145D00AD071214CAAF48121310AF0512131002C4
:02146D0014AEBB
:1013EF001214C51214B77F021214D47F281214D40A
:0A13FF007F0C1214D47F010214D4F5
:0514CF00D209021438EF
:0514D400C209021438FA
:101438008F4CE54C54F0FF1213D2E54CC454F0FF26
:031448000213D2BA
:101338008B498A4A894B74262FF8E62DFF1214D45C
:10134800AB49AA4AA94B120CC86013054BE54B7070
:0F13580002054A14F9120CC8FF1214CF80E222CA
:1013D200AB07A209E4334203EB4404FF12145D7F1E
:0D13E200057E001213B4EB54FBFF02145DF6
:10125F007F4E1213EF12144BE4FF1212D78F258E0D
:10126F00248D238C22754CFF754D14754E7F8F5234
:10127F008E518D508C4F7553DF7B007A00792A1277
:10128F000DC07B007A00792AE4FDFF12133880C865
:1008000002096BE86480F8E933E83360110460F0B2
:10081000ED33EC337009E8FCE9FDEAFEEBFF22045E
:1008200060DED3EB9FEA9EE99DE8C2E78CF0C2F759
:1008300095F0400CE8CCF8E9CDF9EACEFAEBCFFB25
:1008400012093685D0F05804700320D5B3E804703F
:10085000075002B2D502097592D5EC0460F7E4CCDA
:10086000C0E0C398F8603B94186008400DD0E0FBEE
:1008700002094DE4FBFAC9FC8028E830E406E4C92B
:10088000FBE4CAFCE830E305E4C9CACBFCE8540742
:100890006010F8C3E913F9EA13FAEB13FBEC13FC4D
:1008A000D8F130F52FC3E49CFCEF9BFFEE9AFEEDF0
:1008B00099FDD0E0FBEF4E4D4C701222DB03020994
:1008C00072EC2CFCEF33FFEE33FEED33FDED30E741
:1008D000EB02094DEF2BFFEE3AFEED39FDD0E0FBC8
:1008E00050130BBB0003020975ED13FDEE13FEEF71
:0808F00013FFEC13FC02094D9B
:1008F80075F020800E75F010800575F0087D007E7B
:10090800007F003392D530D503120D20EC33401010
:10091800EF33FFEE33FEED33FDEC33FCD5F0ED2283
:0E092800E5F0247EA2D513CC92E7CDCEFF22BF
:100D6400E560244CF8E60560227849300702784CA7
:100D7400E475F001120D2E020CC82000EB7F2ED278
:100D8400008018EF540F2490D43440D4FF30040B67
:100D9400EF24BFB41A0050032461FFE5616002151B
:100DA400610564E5647002056330070D7849E475F4
:100DB400F001120D2EEF020D0E0213677403D20719
:100DC4008003E4C207F5608B498A4A894BE4F561E4
:100DD400F563F564E56160077F20120D9F80F5756A
:100DE40062FFC201C200C202C203C205C206C20837
:100DF400120D6DFF700D3007057F00120DB0AF644A
:100E0400AE6322B4255FC2D5C204120D6DFF24D097
:100E1400B40A00501A75F00A786130D50508B6FF97
:100E24000106C6A426F620D5047002D20380D92474
:100E3400CFB41A00EF5004C2E5D20402109DD201CF
:100E440080C6D20080C0D20280BCD2D580BAD2057E
:100E540080B47F20120D9F2002077401B561004009
:100E6400F1120D64FF120D9F020DD8D208D2068034
:100E740095120D64FB120D64FA120D64F94A4B705D
:100E84000679947A117BFF20022EE561602A7E00A8
:100E94008E82758300120CE160060EEE656270F0BE
:100EA400C2D5EBC0E0EAC0E0E9C0E0EE1210FDD02C
:100EB400E0F9D0E0FAD0E0FB120CC8FF60AAEBC066
:100EC400E0EAC0E0E9C0E0120D9FD0E02401F9D0CF
:100ED400E03400FAD0E0FBE5620460DCD562D9803E
:100EE40087D20280A21210E060F7E562700104125A
:100EF4000980A962600DE562600914F56212118728
:100F0400EF60F3EA30E702F404C3995077EAF4257A
:100F1400620430E701E404F562800D1210E060C160
:100F2400EA05622562120980EA785FF630E701E497
:100F3400256204D56204200501141210FDE4C0E00A
:100F4400121187785FE6601320E70714F6120D8705
:100F5400802204F6D0E014C0E07F00120D87E56221
:100F64006007120D7E1562800B300503120D7ED0D2
:100F7400E0020DD8D0E00480C51210E060A0E56264
:100F840004120980785FEAF6E56220050260010434
:050F940024041210FD11
:100F990074FF04C0E0121187120D87E56220050273
:100FA9006003120D7ED0E0B562E87F45120D91789D
:100FB9005FE67F2B30E7047F2DF404C0E0120D9F1C
:100FC900D0E075F00A84C0F0120D88D0E0120D88C7
:100FD900020DD8791080027908C206C2088008D2A9
:100FE900D5790A8004790AC2D5E562047002F562EE
:100FF900E4FAFDFEFF120D64FC7B08200113120DBB
:1010090064FD7B1030000A120D64FE120D64FF7B33
:1010190020EC3382D592D55013C3E43000069FFFEC
:10102900E49EFEE42001039DFDE49CFCE4CBF8C2B0
:1010390001EC700CCFCECDCCE824F8F870F3801712
:10104900C3EF33FFEE33FEED33FDEC33FCEB33FB43
:10105900994002FB0FD8E9EB300105F8D0E0C4480C
:10106900B201C0E00AEC4D4E4F78207B0070C2EA15
:10107900B5620040BCC0E01210FFD0F0D0E0200102
:1010890004C4C0E0C4B201C0F0120D88D0F0D5F09C
:10109900EB020DD8120D3E0E75530FDC580E464C5F
:1010A9000E42420FE04F0FE8440FE8490E5B430F31
:1010B900EE550F1F460F7D450EE94711B4500E4AF4
:1010C9002D0E4E2E0E712B0E52230E6F20119D2ABE
:1010D9000E0A4800000E69E562B4FF037562061244
:1010E9000D64FC120D64FD120D64FE120D64FF788F
:1010F900580209AF790AA2D5200314300509B9109D
:10110900020404B9080104A2D520060250010420F2
:1011190002689202B561005034C0E07F20300319A3
:101129007F30A20272067205500F121156C202C216
:1011390006C205C2087F30800F300503E9C0E012FE
:101149000D9F300503D0E0F9D0E0B561CC3005172B
:101159007F30B9100C120D9F7F583004077F7880BB
:1011690003B90803120D9F3002057F2D020D9F7FE1
:10117900202008F87F2B2006F322920280CF7F00DF
:10118900B4070050052458F8E6FF22286E756C6CE8
:101199002900D201120D643001F8C201786130D5FD
:1011A9000108F6020E0A2D50434958120D64240312
:1011B900B405004001E49011AF93120D90743A12F6
:0A11C9000D90D203756104020FDCE3
:10093600E9D2E7C933E833F892D5EDD2E7CD33EC07
:0709460033FC5002B2D52280
:10094D00EC30E7100FBF000C0EBE00080DBD00040B
:10095D000BEB6014A2D5EB13FCED92E7FD2274FFB7
:10096D00FCFDFEFF22E480F8A2D574FF13FC7D8010
:03097D00E480EF24
:10098000F920E72824F950037907E4F42402FB183E
:10099000DBFDE624FB5014E9600DE4F618E604F6EE
:0F09A000B40A08E4F6D9F57401F60A22C2D5228A
:1009AF00ED33EC3392D5FA602AB4FF33EDC2E77B17
:1009BF00FF60067A0979D4E4227A0979DD20D5041B
:1009CF007A0979D8224E614E002B494E46002D49A7
:1009DF004E4600E47A08F608DAFC7B00740722E83A
:1009EF00C0E0ECC0E0EDC0E0EEC0E0EFC0E0EA75C3
:1009FF00F010A4CAABF075F04DA42BFBE435F0FC5E
:100A0F00EA2410FAEB34C5FBEC34D9FCEDC2E7FF56
:100A1F0075F056A4F42411C5F0F434C58FF0A42A50
:100A2F00E5F03BE43CF620E714120C88D0E0FFD051
:100A3F00E0FED0E0FDD0E0FC120BBB8014F40412FA
:100A4F000C88D0E0FFD0E0FED0E0FDD0E0FC120A31
:100A5F00B2D0E0F8E6FAEDD2E7CD33EC332482FBE7
:100A6F00E4C3CF33CFCE33CECD33CD33DBF37B07E0
:100A7F0075F00A846004F6081B0AE5F0F6088FF09B
:100A8F00740AA4FFACF08EF0740AA42CFEACF050E4
:100A9F00010C8DF0740AA42CFDE435F0F608DBDEB2
:030AAF00740722A7
:100AB200EC4D6011E8497017ED33EC3304600DE43E
:100AC200FCFFFEFD22E933E8330470F802096B12E1
:100AD200093658046009E4CC2481500628500902E2
:100AE2000975284003020972C0E0EB4A7044B980DC
:100AF20006D0E0FB020961EF4E701CBD8008EBFFDF
:100B0200EAFEE9FD80EBE98DF0A4FEE5F0020B9B25
:100B1200E9CDF9EAFEEBFFEF89F0A4FCE5F0CE891E
:100B2200F0A42EFFE435F0CD89F0A42DFEE435F0DB
:100B32008067EF4E7005BD80D780C3EF8BF0A4AC09
:100B4200F0EE8BF0A42CFCE435F0F8EF8AF0A42C44
:100B5200E5F038FCE433CB8DF0A42CFCE5F03BF857
:100B6200EE8AF0A42CFCE5F038F8E433CF89F0A447
:100B72002CFCE5F038CF3400CE89F0A42FFFE5F04D
:100B82003EFEE433C98DF0A42EFEE5F039CD8AF0A5
:100B9200A42FFFE5F03EFEE43DFD33D0E0FB50071D
:100BA2000BBB000F020975EC2CFCEF33FFEE33FE9A
:060BB200ED33FD02094DC8
:100BB800020975EC5D046005E85904700302096BCD
:100BC800120936580460F6EC4860F2EC7004FDFE39
:100BD800FF22C860DB2481C85009C3986002500610
:100BE8000209729850CAF582E9294B4A7005AB820E
:100BF80002096175F0007C1A7880C3EF9BEE9AEDCC
:100C080099400DC3EF9BFFEE9AFEED99FDE842F087
:100C1800DC23ACF0D0E0FFD0E0FED0E0FDAB8220DA
:100C2800E7101BEB60BAEC2CFCEF33FFEE33FEED64
:100C380033FD02094DE803F830E705C0F075F00010
:100C4800EF2FFFEE33FEED33FD40B830E7C280AA48
:100C58003F8000004120000042C80000447A0000A4
:100C6800461C400047C35000497424004B18968026
:100C78004CBEBC205A0E1BCA6753C21C749DC5AE1D
:100C8800FB60065407601C2323120CB6EB54386033
:100C980009120CA2120CB1120AB2ECF8EDF9EEFA34
:100CA800EFCB22EB120CB180F1543803241C900CCA
:100CB80058FE93FC0EEE93FD0EEE930ECE93FF229C
:1011DF0002125FE493A3F8E493A34003F68001F2B5
:1011EF0008DFF48029E493A3F85407240CC8C33311
:1011FF00C4540F4420C8834004F456800146F6DFE0
:10120F00E4800B01020408102040809014BEE47E9D
:10121F00019360BCA3FF543F30E509541FFEE493D4
:10122F00A360010ECF54C025E060A840B8E493A39B
:10123F00FAE493A3F8E493A3C8C582C8CAC583CAC6
:10124F00F0A3C8C582C8CAC583CADFE9DEE780BE7E
:0114C4000027
:100CC800BB010689828A83E0225002E722BBFE022A
:090CD800E32289828A83E493225D
:100CE100BB010CE58229F582E5833AF583E02250C8
:100CF10006E92582F8E622BBFE06E92582F8E22212
:0D0D0100E58229F582E5833AF583E493222B
:100D0E00BB010689828A83F0225002F722BBFE01C4
:020D1E00F322BE
:0E0D2000C3E49FFFE49EFEE49DFDE49CFC22E4
:100D2E00FAE6FB0808E6F925F0F618E6CA3AF622C6
:100D3E00D083D082F8E4937012740193700DA3A344
:100D4E0093F8740193F5828883E473740293686058
:060D5E00EFA3A3A380DF58
:10136700EFB40A07740D121372740A309811A89912
:10137700B8130CC2983098FDA899C298B811F630E6
:0713870099FDC299F59922BE
:00000001FF
