:03000000021AF7EA
:0C1AF700787FE4F6D8FD75815D02197956
:10131B00252E3266000000000000000000000000D7
:10132B005F5F0000000007070000070700247E7EB8
:10133B00247E7E240000242E6B6B3A12000066364E
:10134B00180C666200307A4F5D3772500000000057
:10135B0007070000000000003E7F6341000041636F
:10136B007F3E000000082A3E1C1C3E2A080008088D
:10137B003E3E0808000080E0600000000000080806
:10138B0008080808000000006060000000006030E2
:10139B00180C060300003E7F49457F3E000040428B
:1013AB007F7F40400000426371594F46000021612E
:1013BB00454F7B310000181C167F7F1000002767FC
:1013CB0045457D3900003E7F494979300000017168
:1013DB00790D07030000367F49497F360000064F21
:1013EB0049693F1E00000000363600000000004037
:1013FB0076360000000000081C36634100002424F0
:10140B002424242400004163361C0800000002033E
:10141B0051590F0600003E7F415D575E00007C7EF8
:10142B0013137E7C00007F7F49497F3600003E7F8F
:10143B004141632200007F7F41633E1C00007F7FA0
:10144B004949494100007F7F0909090100003E7F9E
:10145B004149797900007F7F08087F7F00000041B8
:10146B007F7F41000000206040407F3F00007F7F76
:10147B001C36634100007F7F40404040007F7F0669
:10148B000C067F7F00007F7F0E1C7F7F00003E7F5E
:10149B0041417F3E00007F7F09090F0600003E7F20
:1014AB0051217F5E00007F7F09197F660000266F48
:1014BB0049497B32000001017F7F010100003F7F22
:1014CB0040407F7F00001F3F60603F1F007F7F30E9
:1014DB0018307F7F000063771C1C77630000070FB9
:1014EB0078780F0700006171594D474300000000E9
:1014FB007F7F4141000003060C1830600000414122
:10150B007F7F000000080C0603060C0800404040DB
:10151B00404040400002060C080000000000207410
:10152B0054547C7800007F7F44447C380000387C26
:10153B00444444000000387C44447F7F0000387CE6
:10154B0054545C180000047E7F050500000098BC15
:10155B00A4A4FC7C00007F7F04047C780000004482
:10156B007D7D400000008080FD7D000000007F7FBE
:10157B0010386C44000000417F7F4000007C7C0CE5
:10158B00180C7C7800007C7C04047C780000387C90
:10159B0044447C380000FCFC44447C380000387C1C
:1015AB004444FCFC00007C7C04040C080000485CF8
:1015BB0054547424000004043E7E444400003C7CDC
:1015CB0040407C7C00001C3C60603C1C001C7C6030
:1015DB0030607C1C0000446C38386C4400009CBCB0
:1015EB00A0A0FC7C00004464745C4C440000000828
:1015FB003E77414100000000FFFF00000000414129
:10160B00773E0800000C06060C18180C00006078DA
:0D161B005E46586000000000000000000066
:0B1B0300C290C291D292C293C2942201
:101A7800E4FEC290A806EF088002C333D8FC30E722
:0D1A880003D38001C39291D2900EBE08E5F9
:011A9500222E
:101A3700E4FFFEC290A292E433FDC374079EFCF854
:101A4700ED088002C333D8FC2FFFD2900EBE08E307
:011A5700226C
:101A9600D3EF9400EE940040147D7D7C00ED1D7024
:0D1AA600011CED4C70F7EF1F70E61E80E391
:011AB3002210
:0A1B0E00EFD3940040031F80F7227C
:101ACF00D2947F80121A787F10121A78C2947F9660
:051ADF007E00021A96D2
:101A5800D2947F02121A78121A378F43121A378FCC
:0F1A680042C294E543FE7C00E42542FFEC3EFEC3
:011A7700224C
:1019B0008E428F43E4F54BF54AF549754841FFFEE9
:1019C000FD7C4012175DC004C005C006C007AC42D4
:1019D000AD43EC1208A5D003D002D001D00002081C
:0119E0000303
:101AE4008F42121B03E54260091542AF421219E10D
:031AF40080F3225A
:1019E1008F43AB43E4FD7F09121AB4AB437D057FFE
:1019F1000A121AB4AB437D077F0B121AB4AB437DB5
:0F1A0100017F0C121AB4AB43E4FD7F0F021AB43D
:101AB4008B48C293121A78AF05121A78AF481548AA
:0B1AC400EF6005121B1880F4D2932283
:06190E008B428A4389446C
:0E191400E4F546AB42AA43A944120DF060561A
:101922000544E5447002054314F9120DF024E0F574
:1019320047E4F545AF47EF3395E0FEEF7803C33355
:10194200CE33CED8F92420F58274133EF583AF4509
:10195200EF3395E0FEE5822FF582E5833EF583E4E1
:1019620093FDAB46121AB40545C3E54564809488DD
:0419720040C2054624
:02197600809F50
:01197800224C
:081B1800E4FF121A78021A78AA
:101979007F05121AE4121ACF121A588E228F2312D7
:1019890019B08F4B8E4A8D498C487545FF754613A2
:1019990075471B7B007A007924120F087B007A00B7
:0719A900792412190E80D110
:1008000002091DEC5D046005E85904700302091338
:100810001208DE580460F6EC4860F2EC7004FDFE4D
:10082000FF22C860DB2481C85009C39860025006CB
:1008300002091A9850CAF582E9294B4A7005AB8221
:1008400002090975F0007C1A7880C3EF9BEE9AEDDF
:1008500099400DC3EF9BFFEE9AFEED99FDE842F043
:10086000DC23ACF0D0E0FFD0E0FED0E0FDAB822096
:10087000E7101BEB60BAEC2CFCEF33FFEE33FEED20
:1008800033FD0208F5E803F830E705C0F075F00025
:10089000EF2FFFEE33FEED33FD40B830E7C280AA04
:1008A00075F020800E75F010800575F0087D007ED3
:1008B000007F003392D530D503120E48EC33401040
:1008C000EF33FFEE33FEED33FDEC33FCD5F0ED22DC
:0E08D000E5F0247EA2D513CC92E7CDCEFF2218
:100EAC00E5592445F8E60559227842300702784581
:100EBC00E475F001120E76020DF02000EB7F2ED2BD
:100ECC00008018EF540F2490D43440D4FF30040B1E
:100EDC00EF24BFB41A0050032461FFE55A600215D9
:100EEC005A055DE55D7002055C30070D7842E475CE
:100EFC00F001120E76EF020E36021A107403D207AE
:100F0C008003E4C207F5598B428A438944E4F55ABD
:100F1C00F55CF55DE55A60077F20120EE780F575EC
:100F2C005BFFC201C200C202C203C205C206C208F4
:100F3C00120EB5FF700D3007057F00120EF8AF5D75
:100F4C00AE5C22B4255FC2D5C204120EB5FF24D00C
:100F5C00B40A00501A75F00A785A30D50508B6FF55
:100F6C000106C6A426F620D5047002D20380D9242B
:100F7C00CFB41A00EF5004C2E5D2040211E5D2013D
:100F8C0080C6D20080C0D20280BCD2D580BAD20535
:100F9C0080B47F20120EE72002077401B55A00407E
:100FAC00F1120EACFF120EE7020F20D208D206800F
:100FBC0095120EACFB120EACFA120EACF94A4B7039
:100FCC000679DC7A127BFF20022EE55A602A7E001D
:100FDC008E82758300120E0960060EEE655B70F052
:100FEC00C2D5EBC0E0EAC0E0E9C0E0EE121245D099
:100FFC00E0F9D0E0FAD0E0FB120DF0FF60AAEBC0F4
:10100C00E0EAC0E0E9C0E0120EE7D0E02401F9D03C
:10101C00E03400FAD0E0FBE55B0460DCD55BD98002
:10102C0087D20280A212122860F7E55B70010412CD
:10103C000C01A95B600DE55B600914F55B1212CF26
:10104C00EF60F3EA30E702F404C3995077EAF42531
:10105C005B0430E701E404F55B800D12122860C1DB
:10106C00EA055B255B120C01EA7858F630E701E4DF
:10107C00255B04D55B0420050114121245E4C0E085
:10108C001212CF7858E6601320E70714F6120ECF31
:10109C00802204F6D0E014C0E07F00120ECFE55B96
:1010AC006007120EC6155B800B300503120EC6D0FE
:1010BC00E0020F20D0E00480C512122860A0E55B8E
:1010CC0004120C017858EAF6E55B20050260010475
:0510DC0024041212457E
:1010E10074FF04C0E01212CF120ECFE55B2005029F
:1010F1006003120EC6D0E0B55BE87F45120ED978C9
:1011010058E67F2B30E7047F2DF404C0E0120EE790
:10111100D0E075F00A84C0F0120ED0D0E0120ED0EB
:10112100020F20791080027908C206C2088008D215
:10113100D5790A8004790AC2D5E55B047002F55BB2
:10114100E4FAFDFEFF120EACFC7B08200113120E27
:10115100ACFD7B1030000A120EACFE120EACFF7B10
:1011610020EC3382D592D55013C3E43000069FFFA3
:10117100E49EFEE42001039DFDE49CFCE4CBF8C267
:1011810001EC700CCFCECDCCE824F8F870F38017C9
:10119100C3EF33FFEE33FEED33FDEC33FCEB33FBFA
:1011A100994002FB0FD8E9EB300105F8D0E0C448C3
:1011B100B201C0E00AEC4D4E4F78207B0070C2EACC
:1011C100B55B0040BCC0E0121247D0F0D0E0200176
:1011D10004C4C0E0C4B201C0F0120ED0D0F0D5F00A
:1011E100EB020F20120E860FBD531124580F8E4CA7
:1011F1000F8A4211284F1130441130490FA3431176
:10120100365510674610C54510314712FC500F92F4
:101211002D0F962E0FB92B0F9A230FB72012E52A07
:101221000F524800000FB1E55BB4FF03755B061276
:101231000EACFC120EACFD120EACFE120EACFF7821
:1012410051020C30790AA2D5200314300509B910D6
:10125100020404B9080104A2D520060250010420A9
:1012610002689202B55A005034C0E07F2030031961
:101271007F30A20272067205500F12129EC202C284
:1012810006C205C2087F30800F300503E9C0E012B5
:101291000EE7300503D0E0F9D0E0B55ACC300517A0
:1012A1007F30B9100C120EE77F583004077F788029
:1012B10003B90803120EE73002057F2D020EE77F06
:1012C100202008F87F2B2006F322920280CF7F0096
:1012D100B4070050052451F8E6FF22286E756C6CA6
:1012E1002900D201120EAC3001F8C201785A30D572
:1012F1000108F6020F522D50434958120EAC240337
:10130100B405004001E49012F793120ED8743A121A
:0A1311000ED8D203755A040211240D
:10175D008F478E468D458C44E4FFFE7D807C3FABEC
:10176D0047AA46A945A844120B407009AF47AE469B
:10177D00AD45AC4422AF47AE46AD45AC4412092849
:10178D00FBAF4BAE4AAD49AC48120928FFBF01086B
:10179D00E4FFFE7D807C3F22EF64046022EB640455
:1017AD00601DBB0127E4FFFEFDFCAB4BAA4AA94916
:1017BD00A848120B4060084006E4FFFEFDFC2274B1
:1017CD00FFF54BF54AF549F54802186BE4F54CF574
:1017DD004DFFFEFDFCAB47AA46A945A844120B40A0
:1017ED00504BAF4BAE4AAD49AC48120BCA8E4C8F25
:1017FD004DAC4CAD4DEC1208A5C8ECC8C9EDC9CA2D
:10180D00EECACBEFCBAF4BAE4AAD49AC4812094552
:10181D00E4FBFAF9F8120B4070A5AF47AE46AD45A3
:10182D00AC44120BB98F478E468D458C44AF47AEF5
:10183D0046AD45AC4412165CAB4BAA4AA949A84823
:10184D00120A3A1218AC8F4B8E4A8D498C48E54DD1
:10185D0030E00B120BB98F4B8E4A8D498C48AF4B34
:07186D00AE4AAD49AC482270
:1008DE00E9D2E7C933E833F892D5EDD2E7CD33EC60
:0708EE0033FC5002B2D522D9
:1008F500EC30E7100FBF000C0EBE00080DBD000464
:100905000BEB6014A2D5EB13FCED92E7FD2274FF0F
:10091500FCFDFEFF22E480F8A2D574FF13FC7D8068
:03092500E480EF7C
:10092800ED33EC33601004700FED547F70057402E2
:0A09380092E0227404220422E4225B
:10094200020913E86480F8E933E83360110460F0C7
:10095200ED33EC337009E8FCE9FDEAFEEBFF22041B
:1009620060DED3EB9FEA9EE99DE8C2E78CF0C2F716
:1009720095F0400CE8CCF8E9CDF9EACEFAEBCFFBE2
:100982001208DE85D0F05804700320D5B3E8047055
:10099200075002B2D502091D92D5EC0460F7E4CCEF
:1009A200C0E0C398F8603B94186008400DD0E0FBAB
:1009B2000208F5E4FBFAC9FC8028E830E406E4C941
:1009C200FBE4CAFCE830E305E4C9CACBFCE85407FF
:1009D2006010F8C3E913F9EA13FAEB13FBEC13FC0A
:1009E200D8F130F52FC3E49CFCEF9BFFEE9AFEEDAD
:1009F20099FDD0E0FBEF4E4D4C701222DB03020951
:100A02001AEC2CFCEF33FFEE33FEED33FDED30E755
:100A1200EB0208F5EF2BFFEE3AFEED39FDD0E0FBDD
:100A220050130BBB000302091DED13FDEE13FEEF85
:080A320013FFEC13FC0208F5B0
:100A3A00EC4D6011E8497017ED33EC3304600DE4B6
:100A4A00FCFFFEFD22E933E8330470F802091312B1
:100A5A0008DE58046009E4CC2481500628500902B3
:100A6A00091D28400302091AC0E0EB4A7044B98004
:100A7A0006D0E0FB020909EF4E701CBD8008EBFFAF
:100A8A00EAFEE9FD80EBE98DF0A4FEE5F0020B2316
:100A9A00E9CDF9EAFEEBFFEF89F0A4FCE5F0CE8997
:100AAA00F0A42EFFE435F0CD89F0A42DFEE435F054
:100ABA008067EF4E7005BD80D780C3EF8BF0A4AC82
:100ACA00F0EE8BF0A42CFCE435F0F8EF8AF0A42CBD
:100ADA00E5F038FCE433CB8DF0A42CFCE5F03BF8D0
:100AEA00EE8AF0A42CFCE5F038F8E433CF89F0A4C0
:100AFA002CFCE5F038CF3400CE89F0A42FFFE5F0C6
:100B0A003EFEE433C98DF0A42EFEE5F039CD8AF01D
:100B1A00A42FFFE5F03EFEE43DFD33D0E0FB500795
:100B2A000BBB000F02091DEC2CFCEF33FFEE33FE6A
:060B3A00ED33FD0208F599
:100B400074F8CC6480CCC86480C8F58204604FC35C
:100B5000EB9FF5F0EA9E42F0E99D42F0E89C45F0FB
:100B6000603C501DE5825FFFE582D313CB5BCBF485
:100B70002B5582FB50280ABA002409B900200880AE
:100B80001DE5825BFBE582D313CF5FCFF4C3132F48
:100B90005582FF50090EBE00050DBD00010CC3EBD0
:100BA0009FF5F0EA9E42F0E99D42F0E89C45F06036
:090BB00007CC4820E701B3EC2258
:100BB900ED33EC33600A047003BD8004ECB2E7FC4A
:010BC9002209
:100BCA00EDD2E7CD33EC3392D524814006E4FFFE23
:100BDA00FDFC22FCE4CFCECDCC24E0501174FF8082
:100BEA00EDC3CC13CCCD13CDCE13CECF13CF04701F
:070BFA00F030D5DE020E48C9
:100C0100F920E72824F950037907E4F42402FB18BA
:100C1100DBFDE624FB5014E9600DE4F618E604F66A
:0F0C2100B40A08E4F6D9F57401F60A22C2D52206
:100C3000ED33EC3392D5FA602AB4FF33EDC2E77B93
:100C4000FF60067A0C7955E4227A0C795E20D5048F
:100C50007A0C7959224E614E002B494E46002D499F
:100C60004E4600E47A08F608DAFC7B00740722E8B6
:100C7000C0E0ECC0E0EDC0E0EEC0E0EFC0E0EA753F
:100C8000F010A4CAABF075F04DA42BFBE435F0FCDA
:100C9000EA2410FAEB34C5FBEC34D9FCEDC2E7FFD3
:100CA00075F056A4F42411C5F0F434C58FF0A42ACD
:100CB000E5F03BE43CF620E714120D63D0E0FFD0F2
:100CC000E0FED0E0FDD0E0FC1208038014F4041232
:100CD0000D63D0E0FFD0E0FED0E0FDD0E0FC120AD2
:100CE0003AD0E0F8E6FAEDD2E7CD33EC332482FBDC
:100CF000E4C3CF33CFCE33CECD33CD33DBF37B075D
:100D000075F00A846004F6081B0AE5F0F6088FF017
:100D1000740AA4FFACF08EF0740AA42CFEACF05060
:100D2000010C8DF0740AA42CFDE435F0F608DBDE2E
:030D300074072223
:1018740033DA929E35B16011377FE5FE39218489D0
:101884003AAEC3FF3C1D955B3D6358473E75FDF082
:101894003F3172183F800000C2D502091D020913AE
:1018A400BD80FA50F302091AED33EC330460F17B86
:1018B4003B7AAA79B8783F120A3AED33EC3392D5E1
:1018C400247B5011A2D570DB500BED4480240450CE
:1018D40004A2D580CEEFFBEEFAEDF9ECF8120BCAB8
:1018E400EFF582F404FC1208AA120949C082901888
:1018F400747409120DB2ED33CC33D0F092D525F0C7
:0A190400A2D57001C313CC13FD221D
:101628003E9248DA3ECCCCCD3F2AAAAB400000001F
:101638003F8000003F9837F03FB504F33FD744FCA4
:101648003E3172173EB172173F0515913EDE5BD9E8
:10165800D2008002C200EDD2E7F8CD33EC3304703B
:101668000BBD800592D502091D02091340FBD31456
:1016780060F2F5F07C3FEE7A00C39496C8948B40F4
:10168800230AC89469C8941A401A0AC89468C89466
:101698001F40110AC8945AC89425400805F07A00DA
:1016A800CDC2E7CDC0F08C4E8D4F8E508F51EA23BE
:1016B80023C0E02438F582E43416F583120E66124E
:1016C8000949ECC0E0EDC0E0EEC0E0EFC0E0120E6A
:1016D80056A84EA94FAA50AB51120945D0E0FBD0ED
:1016E800E0FAD0E0F9D0E0B2E7F81208038C4E8DAA
:1016F8004F8E508F519016287403120DA3A84EA92F
:101708004FAA50AB51120A3AD0E0600F2444F58238
:10171800E43416F583120E661209498C4E8D4F8EED
:10172800508F51D0E0C3947FFDE49400FC1208A5CB
:101738007B187A727931783F120A3AA84EA94FAAD3
:1017480050AB5112094930000B7BD97A5B79DE78AE
:051758003E120A3A22D6
:100D33003F8000004120000042C80000447A0000C8
:100D4300461C400047C35000497424004B1896804A
:100D53004CBEBC205A0E1BCA6753C21C749DC5AE41
:100D6300FB60065407601C2323120D91EB5438607B
:100D730009120D7D120D8C120A3AECF8EDF9EEFA18
:100D8300EFCB22EB120D8C80F1543803241C900D11
:100D930033FE93FC0EEE93FD0EEE930ECE93FF22E5
:100DA300C0E0EFFBEEFAEDF9ECF8120A3AD0E0F509
:100DB300F0EFFBEEFAEDF9ECF8120E56A3A3A3A3A2
:100DC300E8C0E0E9C0E0EAC0E0EBC0E0C0F0120A2E
:100DD3003A120E66A3A3A3A3120949D0F0D0E0FBF5
:0D0DE300D0E0FAD0E0F9D0E0F8D5F0D4224D
:100DF000BB010689828A83E0225002E722BBFE0201
:090E0000E32289828A83E4932233
:100E0900BB010CE58229F582E5833AF583E022509E
:100E190006E92582F8E622BBFE06E92582F8E222E8
:0D0E2900E58229F582E5833AF583E4932202
:100E3600BB010689828A83F0225002F722BBFE019B
:020E4600F32295
:0E0E4800C3E49FFFE49EFEE49DFDE49CFC22BB
:100E5600E493FC740193FD740293FE740393FF22E2
:100E6600E493F8740193F9740293FA740393FB22E2
:100E7600FAE6FB0808E6F925F0F618E6CA3AF6227D
:100E8600D083D082F8E4937012740193700DA3A3FB
:100E960093F8740193F5828883E47374029368600F
:060EA600EFA3A3A380DF0F
:101A1000EFB40A07740D121A1B740A309811A899B2
:101A2000B8130CC2983098FDA899C298B811F63036
:071A300099FDC299F599220E
:00000001FF
