:030000000212BD2C
:0C12BD00787FE4F6D8FD75815C02130414
:101489004572726F720048756D643A2025342E31A9
:101499006625630054656D70723A2025352E3166D4
:0414A9002563430074
:0615E800042B80C094D426
:1014EC00D3EF9400EE940040147D7D7C00ED1D70D4
:0D14FC00011CED4C70F7EF1F70E61E80E341
:0115090022BF
:0A15CA00EFD3940040031F80F722C6
:10155C007F021215EF7F281215EF7F0C1215EF7F0B
:04156C00060215EF6F
:0515EF00C2A00215700E
:0515F400D2A0021570F9
:1013DF008B418A428943742B2FF8E62DFF1215EFAC
:1013EF00AB41AA42A943120CC860130543E54370F1
:0F13FF0002054214F9120CC8FF1215F480E22205
:02157000AD07C5
:101572007B007A0079441213A87B007A0079440236
:0215820013490B
:101349008B4C8A4D894E900004120CE124FF92A423
:10135900900005120CE124FF92A5900006120CE101
:1013690024FF92A6900007120CE124FF92A7121500
:10137900A6AB4CAA4DA94E120CC824FF92A490000A
:1013890001120CE124FF92A5900002120CE124FF46
:0F13990092A6900003120CE124FF92A70215A662
:0813A8008B4C8A4D894E8D4FDC
:1013B000E4FFA807E54F088003A2E713D8FB30E05D
:1013C000047E0180027E00AB4CAA4DA94EEFFD3396
:0E13D00095E08D82F583EE120D200FBF08D43C
:0113DE0022EC
:0C15A600D2A17F057E001214ECC2A1222D
:0A15D400D28C308DFDC28CC28D2236
:1014AD00AD07AC065389F0438901C374FF9CF58CDD
:1014BD00C374FF9DF58AD28C308DFDC28CC28D22F6
:0C15B200758901758CB8758A0C0215D47F
:0C15BE00758901758CFF758AF10215D447
:0A15DE00C2B01215B2D2B00215BE61
:0D159800E4FF20B0FD30B0FD20B0FD7F016C
:0115A5002223
:10146400E4FFFE30B0FD1215BE30B011C374079E08
:10147400FDF87401088002C333D8FC2FFF20B0FDAF
:041484000EBE08DFB1
:011488002241
:06150A008B448A4589466E
:10151000E4FFFEAB44AA45A9468E82758300120CF7
:07152000E12FFF0EBE04ECF9
:0115270022A1
:061528008B418A42894359
:10152E00E4FD12150AAB41AA42A943900004120C25
:07153E00E16F60010DAF0534
:011545002283
:10154600900002120CE1FE900003120CE17C0024D4
:0515560000FFEC3EFE69
:01155B00226D
:10158400900001120CE1FD7C00120CC8FEE42DFF5A
:03159400EC3EFE2C
:011597002231
:0614CD008B418A428943B5
:1014D300E4FC121464AB41AA42A9438C82758300D5
:0814E300EF120D200CBC05EA1C
:0114EB0022DE
:04140E008E418F423A
:10141200AC41AD42EC1208A5E54130E714547FFE21
:10142200AF427CFF7DFF120D42AC06AD07EC120805
:0B143200A5E4FBFA79207841020803D2
:1012070012155C1215DE121598EF60097B007A0043
:1012170079221214CD7B007A007922121528EF600B
:101227000B7BFF7A147989E4FDFF807D7B007A00D0
:1012370079221215848E298F2A1215468E278F2818
:101247007544FF75451475468FAC29AD2AEC120815
:10125700A5E4FBFA792078411208038F4A8E498D5D
:10126700488C47754B257B007A00792F120DF47B4C
:10127700007A00792FE4FDFF1213DFAF28AE2712A3
:10128700140E8F4A8E498D488C477544FF75451457
:1012970075469D754BDF7B007A00792F120DF47B25
:1012A700007A00792FE4FD7F011213DF7F647E004F
:0612B7001214EC02120A01
:1008000002091DEC5D046005E85904700302091338
:100810001208DE580460F6EC4860F2EC7004FDFE4D
:10082000FF22C860DB2481C85009C39860025006CB
:1008300002091A9850CAF582E9294B4A7005AB8221
:1008400002090975F0007C1A7880C3EF9BEE9AEDDF
:1008500099400DC3EF9BFFEE9AFEED99FDE842F043
:10086000DC23ACF0D0E0FFD0E0FED0E0FDAB822096
:10087000E7101BEB60BAEC2CFCEF33FFEE33FEED20
:1008800033FD0208F5E803F830E705C0F075F00025
:10089000EF2FFFEE33FEED33FD40B830E7C280AA04
:1008A00075F020800E75F010800575F0087D007ED3
:1008B000007F003392D530D503120D54EC33401035
:1008C000EF33FFEE33FEED33FDEC33FCD5F0ED22DC
:0E08D000E5F0247EA2D513CC92E7CDCEFF2218
:100D9800E5582444F8E6055822784130070278449B
:100DA800E475F001120D62020CC82000EB7F2ED210
:100DB800008018EF540F2490D43440D4FF30040B33
:100DC800EF24BFB41A0050032461FFE559600215EF
:100DD80059055CE55C7002055B30070D7841E475E8
:100DE800F001120D62EF020D0E02143D7403D207DA
:100DF8008003E4C207F5588B418A428943E4F559D8
:100E0800F55BF55CE55960077F20120DD380F57519
:100E18005AFFC201C200C202C203C205C206C2080A
:100E2800120DA1FF700D3007057F00120DE4AF5CB5
:100E3800AE5B22B4255FC2D5C204120DA1FF24D037
:100E4800B40A00501A75F00A785930D50508B6FF6B
:100E58000106C6A426F620D5047002D20380D92440
:100E6800CFB41A00EF5004C2E5D2040210D1D20167
:100E780080C6D20080C0D20280BCD2D580BAD2054A
:100E880080B47F20120DD32002077401B5590040A9
:100E9800F1120D98FF120DD3020E0CD208D2068063
:100EA80095120D98FB120D98FA120D98F94A4B708D
:100EB8000679C87A117BFF20022EE559602A7E0048
:100EC8008E82758300120CE160060EEE655A70F092
:100ED800C2D5EBC0E0EAC0E0E9C0E0EE121131D0C3
:100EE800E0F9D0E0FAD0E0FB120CC8FF60AAEBC032
:100EF800E0EAC0E0E9C0E0120DD3D0E02401F9D067
:100F0800E03400FAD0E0FBE55A0460DCD55AD98019
:100F180087D20280A212111460F7E55A70010412F8
:100F28000928A95A600DE55A600914F55A1211BB2F
:100F3800EF60F3EA30E702F404C3995077EAF42546
:100F48005A0430E701E404F55A800D12111460C107
:100F5800EA055A255A120928EA7857F630E701E4D3
:100F6800255A04D55A0420050114121131E4C0E0B1
:100F78001211BB7857E6601320E70714F6120DBB71
:100F8800802204F6D0E014C0E07F00120DBBE55AC1
:100F98006007120DB2155A800B300503120DB2D03E
:100FA800E0020E0CD0E00480C512111460A0E55ACE
:100FB800041209287857EAF6E55A20050260010468
:050FC8002404121131A8
:100FCD0074FF04C0E01211BB120DBBE55A200502DF
:100FDD006003120DB2D0E0B55AE87F45120DC57809
:100FED0057E67F2B30E7047F2DF404C0E0120DD3BC
:100FFD00D0E075F00A84C0F0120DBCD0E0120DBC2B
:10100D00020E0C791080027908C206C2088008D23F
:10101D00D5790A8004790AC2D5E55A047002F55AC9
:10102D00E4FAFDFEFF120D98FC7B08200113120D52
:10103D0098FD7B1030000A120D98FE120D98FF7B63
:10104D0020EC3382D592D55013C3E43000069FFFB8
:10105D00E49EFEE42001039DFDE49CFCE4CBF8C27C
:10106D0001EC700CCFCECDCCE824F8F870F38017DE
:10107D00C3EF33FFEE33FEED33FDEC33FCEB33FB0F
:10108D00994002FB0FD8E9EB300105F8D0E0C448D8
:10109D00B201C0E00AEC4D4E4F78207B0070C2EAE1
:1010AD00B55A0040BCC0E0121133D0F0D0E02001A1
:1010BD0004C4C0E0C4B201C0F0120DBCD0F0D5F034
:1010CD00EB020E0C120D720EA9531010580E7A4C25
:1010DD000E764210144F101C44101C490E8F4310F5
:1010ED0022550F53460FB1450F1D4711E8500E7E87
:1010FD002D0E822E0EA52B0E86230EA32011D12A86
:10110D000E3E4800000E9DE55AB4FF03755A0612B7
:10111D000D98FC120D98FD120D98FE120D98FF788A
:10112D0050020957790AA2D5200314300509B910C8
:10113D00020404B9080104A2D520060250010420BE
:10114D0002689202B559005034C0E07F2030031977
:10115D007F30A20272067205500F12118AC202C2AE
:10116D0006C205C2087F30800F300503E9C0E012CA
:10117D000DD3300503D0E0F9D0E0B559CC300517CB
:10118D007F30B9100C120DD37F583004077F788053
:10119D0003B90803120DD33002057F2D020DD37F45
:1011AD00202008F87F2B2006F322920280CF7F00AB
:1011BD00B4070050052450F8E6FF22286E756C6CBC
:1011CD002900D201120D983001F8C201785930D59D
:1011DD000108F6020E3E2D50434958120D98240376
:1011ED00B405004001E49011E393120DC4743A125A
:0A11FD000DC4D2037559040210104E
:1008DE00E9D2E7C933E833F892D5EDD2E7CD33EC60
:0708EE0033FC5002B2D522D9
:1008F500EC30E7100FBF000C0EBE00080DBD000464
:100905000BEB6014A2D5EB13FCED92E7FD2274FF0F
:10091500FCFDFEFF22E480F8A2D574FF13FC7D8068
:03092500E480EF7C
:10092800F920E72824F950037907E4F42402FB1896
:10093800DBFDE624FB5014E9600DE4F618E604F646
:0F094800B40A08E4F6D9F57401F60A22C2D522E2
:10095700ED33EC3392D5FA602AB4FF33EDC2E77B6F
:10096700FF60067A09797CE4227A09798520D50423
:100977007A097980224E614E002B494E46002D4957
:100987004E4600E47A08F608DAFC7B00740722E892
:10099700C0E0ECC0E0EDC0E0EEC0E0EFC0E0EA751B
:1009A700F010A4CAABF075F04DA42BFBE435F0FCB6
:1009B700EA2410FAEB34C5FBEC34D9FCEDC2E7FFAF
:1009C70075F056A4F42411C5F0F434C58FF0A42AA9
:1009D700E5F03BE43CF620E714120C88D0E0FFD0AA
:1009E700E0FED0E0FDD0E0FC1208038014F404120E
:1009F7000C88D0E0FFD0E0FED0E0FDD0E0FC120B89
:100A070052D0E0F8E6FAEDD2E7CD33EC332482FB9F
:100A1700E4C3CF33CFCE33CECD33CD33DBF37B0738
:100A270075F00A846004F6081B0AE5F0F6088FF0F3
:100A3700740AA4FFACF08EF0740AA42CFEACF0503C
:100A4700010C8DF0740AA42CFDE435F0F608DBDE0A
:030A5700740722FF
:100A5A00020913E86480F8E933E83360110460F0AE
:100A6A00ED33EC337009E8FCE9FDEAFEEBFF220402
:100A7A0060DED3EB9FEA9EE99DE8C2E78CF0C2F7FD
:100A8A0095F0400CE8CCF8E9CDF9EACEFAEBCFFBC9
:100A9A001208DE85D0F05804700320D5B3E804703C
:100AAA00075002B2D502091D92D5EC0460F7E4CCD6
:100ABA00C0E0C398F8603B94186008400DD0E0FB92
:100ACA000208F5E4FBFAC9FC8028E830E406E4C928
:100ADA00FBE4CAFCE830E305E4C9CACBFCE85407E6
:100AEA006010F8C3E913F9EA13FAEB13FBEC13FCF1
:100AFA00D8F130F52FC3E49CFCEF9BFFEE9AFEED94
:100B0A0099FDD0E0FBEF4E4D4C701222DB03020937
:100B1A001AEC2CFCEF33FFEE33FEED33FDED30E73C
:100B2A00EB0208F5EF2BFFEE3AFEED39FDD0E0FBC4
:100B3A0050130BBB000302091DED13FDEE13FEEF6C
:080B4A0013FFEC13FC0208F597
:100B5200EC4D6011E8497017ED33EC3304600DE49D
:100B6200FCFFFEFD22E933E8330470F80209131298
:100B720008DE58046009E4CC24815006285009029A
:100B8200091D28400302091AC0E0EB4A7044B980EB
:100B920006D0E0FB020909EF4E701CBD8008EBFF96
:100BA200EAFEE9FD80EBE98DF0A4FEE5F0020C3BE4
:100BB200E9CDF9EAFEEBFFEF89F0A4FCE5F0CE897E
:100BC200F0A42EFFE435F0CD89F0A42DFEE435F03B
:100BD2008067EF4E7005BD80D780C3EF8BF0A4AC69
:100BE200F0EE8BF0A42CFCE435F0F8EF8AF0A42CA4
:100BF200E5F038FCE433CB8DF0A42CFCE5F03BF8B7
:100C0200EE8AF0A42CFCE5F038F8E433CF89F0A4A6
:100C12002CFCE5F038CF3400CE89F0A42FFFE5F0AC
:100C22003EFEE433C98DF0A42EFEE5F039CD8AF004
:100C3200A42FFFE5F03EFEE43DFD33D0E0FB50077C
:100C42000BBB000F02091DEC2CFCEF33FFEE33FE51
:060C5200ED33FD0208F580
:100C58003F8000004120000042C80000447A0000A4
:100C6800461C400047C35000497424004B18968026
:100C78004CBEBC205A0E1BCA6753C21C749DC5AE1D
:100C8800FB60065407601C2323120CB6EB54386033
:100C980009120CA2120CB1120B52ECF8EDF9EEFA93
:100CA800EFCB22EB120CB180F1543803241C900CCA
:100CB80058FE93FC0EEE93FD0EEE930ECE93FF229C
:1012C900021207E493A3F8E493A34003F68001F222
:1012D90008DFF48029E493A3F85407240CC8C33326
:1012E900C4540F4420C8834004F456800146F6DFF5
:1012F900E4800B01020408102040809015E8E47E88
:10130900019360BCA3FF543F30E509541FFEE493E9
:10131900A360010ECF54C025E060A840B8E493A3B0
:10132900FAE493A3F8E493A3C8C582C8CAC583CADB
:10133900F0A3C8C582C8CAC583CADFE9DEE780BE93
:0115EE0000FC
:100CC800BB010689828A83E0225002E722BBFE022A
:090CD800E32289828A83E493225D
:100CE100BB010CE58229F582E5833AF583E02250C8
:100CF10006E92582F8E622BBFE06E92582F8E22212
:0D0D0100E58229F582E5833AF583E493222B
:100D0E00BB010689828A83F0225002F722BBFE01C4
:020D1E00F322BE
:100D2000F8BB010DE58229F582E5833AF583E8F009
:100D3000225006E92582C8F622BBFE05E92582C8B5
:020D4000F2229D
:100D4200EF8DF0A4A8F0CF8CF0A428CE8DF0A42EC5
:020D5200FE227F
:0E0D5400C3E49FFFE49EFEE49DFDE49CFC22B0
:100D6200FAE6FB0808E6F925F0F618E6CA3AF62292
:100D7200D083D082F8E4937012740193700DA3A310
:100D820093F8740193F5828883E473740293686024
:060D9200EFA3A3A380DF24
:10143D00EFB40A07740D121448740A309811A89964
:10144D00B8130CC2983098FDA899C298B811F6300F
:07145D0099FDC299F59922E7
:00000001FF
