:03000000020800F3
:0C080000787FE4F6D8FD75811A020847E5
:100A26004275677A2042656E7363650032303235EF
:010A360000BF
:060A4300041780C094D4EA
:1009B900E4FDFCC3ED9FEE6480F8EC64809850156B
:1009C900E4FBFA0BBB00010AEB64644A70F50DBD48
:0509D90000010C80DEAE
:0109DE0022F6
:1009FE007F02120A4A7F28120A4A7F0C120A4A7F85
:040A0E0006020A4A88
:050A4A00C280020A1247
:050A4F00D280020A1232
:10098A008B088A09890A74172FF8E62DFF120A4A7A
:10099A00AB08AA09A90A12088C6013050AE50A70AD
:0F09AA0002050914F912088CFF120A4F80E2228D
:020A1200AD072E
:100A14007B007A00790B1209537B007A00790B0270
:020A240008F4D4
:1008F4008B138A1489159000041208A524FF92A46E
:100904009000051208A524FF92A59000061208A5E0
:1009140024FF92A69000071208A524FF92A7120AAA
:1009240037AB13AA14A91512088C24FF92A49000C3
:10093400011208A524FF92A59000021208A524FF25
:0F09440092A69000031208A524FF92A7020A377B
:080953008B138A1489158D161F
:10095B00E4FFA807E516088003A2E713D8FB30E0F5
:10096B00047E0180027E00AB13AA14A915EFFD33A0
:0E097B0095E08D82F583EE1208D20FBF08D4EE
:01098900224B
:0C0A3700D2817F057E001209B9C2812225
:1009DF001209FE7BFF7A0A79267D01E4FF12098A4C
:0F09EF007BFF7A0A79327D057F0112098A80E445
:10080C000209DFE493A3F8E493A34003F68001F21A
:10081C0008DFF48029E493A3F85407240CC8C333ED
:10082C00C4540F4420C8834004F456800146F6DFBC
:10083C00E4800B0102040810204080900A43E47EFF
:10084C00019360BCA3FF543F30E509541FFEE493B1
:10085C00A360010ECF54C025E060A840B8E493A378
:10086C00FAE493A3F8E493A3C8C582C8CAC583CAA3
:10087C00F0A3C8C582C8CAC583CADFE9DEE780BE5B
:010A490000AC
:10088C00BB010689828A83E0225002E722BBFE026A
:09089C00E32289828A83E493229D
:1008A500BB010CE58229F582E5833AF583E0225008
:1008B50006E92582F8E622BBFE06E92582F8E22252
:0D08C500E58229F582E5833AF583E493226C
:1008D200F8BB010DE58229F582E5833AF583E8F05C
:1008E200225006E92582C8F622BBFE05E92582C808
:0208F200F222F0
:00000001FF
