:03000000020E00ED
:0C0E0000787FE4F6D8FD758166020E478D
:101233002530326425303264253032640025346928
:0112430000AA
:0C1251000A223F065B4F666D7D077F6F31
:0B127600D288D2A8D2AFD296C2972235
:0300030002125E88
:0C125E00C0D0B296A296B39297D0D032C6
:07128B00C292C290D2912231
:0210DB00AD075F
:1010DD00E4FCC292EDFF3395E0FEEFA80408800515
:1010ED00C333CE33CED8F930E703D38001C392900A
:0610FD00D2920CBC08DCDD
:0111030022C9
:10115100E4FFFEC292A291E433FDC374079EFCF842
:10116100ED088002C333D8FC2FFFD2920EBE08E3F4
:01117100225B
:10117200AB07AA06EB7804CEA2E713CE13D8F8FF8A
:101182007C007D0A120B75EB540F2FFFEC3EFE2202
:1010AC00AB07AA067C007D0A120B87EFC4F8540F1D
:1010BC00C868F582EEC454F048F583AE02AF037CE9
:0F10CC00007D0A120B87ED2582FFEC3583FE2293
:061004008B488A49894A6D
:10100A007556FF755712755833900004120BE8F5A0
:10101A005A85F059900002120BE8F55C85F05B12D4
:10102A000BBDF55E85F05D7B007A00794B12085C9A
:06103A007B007A00794BF7
:01104000228D
:060FC4008B488A49894AAE
:100FCA007556FF755712755833900008120BE8F5DD
:100FDA005A85F05990000A120BE8F55C85F05B908F
:100FEA00000C120BE8F55E85F05D7B007A00794B08
:090FFA0012085C7B007A00794BBF
:0110030022CA
:1011CF0012128BD2937D207C007F0E7E0012107A3C
:0B11DF007D487C007F0F7E0002107A2C
:1011FE00E4FDFCC2931210DB121151EF3395E0D2D5
:02120E0093FE4D
:0112100022BB
:08107A00AB05AA048F828E83EE
:10108200E4F54BF54AF549F548C293E5822480FF21
:10109200E43583FE3395E08F4B8E4AF549F54812CD
:0910A20010DBAF031210DBD29346
:0110AB002222
:060F3C008B128A138914D8
:100F4200E4F515F516E51625E0FFE51533AB12AA13
:100F520013A9148F82F583120BE8FFAEF01210ACC6
:100F6200AC06AD07AF16AE1512107A0516E516706F
:0E0F7200020515C39407E5156480948040C7FE
:010F8000224E
:060F81008B488A49894AF1
:100F8700E4F54BF54CAF4CAE4B1211FE121172AD9E
:100F970007E54C25E0FFE54B33AB48AA49A94A8F43
:100FA70082F583EE8DF0120C20054CE54C7002059E
:0C0FB7004BC39407E54B6480948040C954
:010FC300220B
:1011B100D3EF9400EE940040147D7D7C00ED1D7012
:0D11C100011CED4C70F7EF1F70E61E80E37F
:0111CE0022FE
:07121100121218D2807F02C7
:0A121800EFD3940040031F80F7227B
:0512A500C280C281229D
:0C126A00D280D2817F02121218C28122B1
:10122200C2807F02121218C2817F02121211D28171
:011232002299
:0A128100C2807F05121211C2802204
:02112B00AE070D
:10112D00E4FDC280A805EE088003A2E713D8FB30CA
:10113D00E003D38001C39281D2807F061212180D75
:03114D00BD08DFFB
:01115000227C
:061299001212A5021292E0
:101192007556FF7557127558408E598F5A7B007AD3
:0F11A20000790812085C7B007A0079080211EAD4
:1011EA008B488A49894A7F4012129FAB48AA49A96B
:0411FA004A02104154
:07129200EF2487FF02129F09
:061041008B4B8A4C894D27
:10104700E4F54E7FC0121244AB4BAA4CA94D120BCC
:101057005C601DAF4E054E054DE54D7002054C1405
:10106700F9120B5CFD120E8C12112B12128180D813
:0310770002122240
:06129F00121244021222AB
:0D124400AE0712126AAF0612112B021281C2
:100E8C00E4FEEDC394304028EDD394395022ED2488
:100E9C00D0FCEF64016003BF030C74222CF8E6FB5A
:100EAC00EB2480FB800674222CF8E6FBAE03803426
:100EBC00ED642D7017EF64016003BF0309E522FB9D
:100ECC00EB2480FB80027B40AE038018BD2015EF25
:100EDC0064016003BF0309E522FDED2480FD80025F
:060EEC007D00AE05AF061B
:010EF20022DD
:100EF3007F071212991212761211CF7B007A0079B2
:100F03002C120F8130960B7B007A00792C1210047F
:100F1300800C3097127B007A00792C120FC4783C36
:100F23007C007D00120D197B007A00793C1211EAD6
:090F33007FC87E001211B180C2DA
:100E0C00020EF3E493A3F8E493A34003F68001F2FB
:100E1C0008DFF48029E493A3F85407240CC8C333E7
:100E2C00C4540F4420C8834004F456800146F6DFB6
:100E3C00E4800B0102040810204080901251E47EE3
:100E4C00019360BCA3FF543F30E509541FFEE493AB
:100E5C00A360010ECF54C025E060A840B8E493A372
:100E6C00FAE493A3F8E493A3C8C582C8CAC583CA9D
:100E7C00F0A3C8C582C8CAC583CADFE9DEE780BE55
:01125D000090
:100B5C00BB010689828A83E0225002E722BBFE0297
:090B6C00E32289828A83E49322CA
:100B7500EF8DF0A4A8F0CF8CF0A428CE8DF0A42E94
:020B8500FE224E
:100B8700C2D5EC30E709B2D5E4C39DFDE49CFCEE89
:100B970030E715B2D5E4C39FFFE49EFE120D75C37F
:100BA700E49DFDE49CFC8003120D7530D507C3E47A
:060BB7009FFFE49EFE22F8
:100BBD00BB010A89828A83E0F5F0A3E02250068703
:100BCD00F009E71922BBFE07E3F5F009E3192289C5
:0B0BDD00828A83E493F5F074019322F8
:100BE800BB0110E58229F582E5833AF583E0F5F04B
:100BF800A3E0225009E92582F886F008E622BBFE28
:100C08000AE92582F8E2F5F008E222E5832AF5836D
:080C1800E993F5F0A3E9932232
:100C2000F8BB0111E58229F582E5833AF583E8F006
:100C3000E5F0A3F0225009E92582C8F608A6F022C3
:0D0C4000BBFE09E92582C8F2E5F008F222AA
:10080000E5622456F8E605622278533007027856EE
:10081000E475F001120DCA020B5C2000EB7F2ED2B2
:10082000008018EF540F2490D43440D4FF30040BD0
:10083000EF24BFB41A0050032461FFE56360021582
:10084000630566E5667002056530070D7853E4754B
:10085000F001120DCAEF020D630211047403D207F6
:100860008003E4C207F5628B538A548955E4F5632B
:10087000F565F566E56360077F2012083B80F57536
:1008800064FFC201C200C202C203C205C206C2089E
:10089000120809FF700D3007057F0012084CAF6683
:1008A000AE6522B4255FC2D5C204120809FF24D068
:1008B000B40A00501A75F00A786330D50508B6FFFF
:1008C0000106C6A426F620D5047002D20380D924DE
:1008D000CFB41A00EF5004C2E5D204020A4CD20190
:1008E00080C6D20080C0D20280BCD2D580BAD205E8
:1008F00080B47F2012083B2002077401B5630040DA
:10090000F1120800FF12083B020874D208D20680D8
:1009100095120800FB120800FA120800F94A4B7001
:1009200006791D7A0B7BFF20022EE563602A7E008C
:100930008E82758300120D3660060EEE656470F0CF
:10094000C2D5EBC0E0EAC0E0E9C0E0EE120A93D005
:10095000E0F9D0E0FAD0E0FB120B5CFF60AAEBC03C
:10096000E0EAC0E0E9C0E012083BD0E02401F9D0A1
:10097000E03400FAD0E0FBE5640460DCD564D980A3
:10098000877BFF7A0A798FD202809C791080027966
:1009900008C206C2088008D2D5790A8004790AC242
:1009A000D5E564047002F564E4FAFDFEFF12080068
:1009B000FC7B08200113120800FD7B1030000A1296
:1009C0000800FE120800FF7B20EC3382D592D55040
:1009D00013C3E43000069FFFE49EFEE42001039D64
:1009E000FDE49CFCE4CBF8C201EC700CCFCECDCC86
:1009F000E824F8F870F38017C3EF33FFEE33FEED11
:100A000033FDEC33FCEB33FB994002FB0FD8E9EBF1
:100A1000300105F8D0E0C448B201C0E00AEC4D4E08
:100A20004F78207B0070C2EAB5640040BCC0E01281
:100A30000A95D0F0D0E0200104C4C0E0C4B201C0E7
:100A4000F0120824D0F0D5F0EB020874120DDA0988
:100A50001153098B5808E24C08DE42098F4F099761
:0F0A60004409974908F743099D550981460981C3
:100A6F00450981470B3D5008E62D08EA2E090D2B4D
:100A7F0008EE23090B200B262A08A64800000905BB
:100A8F003F3F3F00790AA2D5200314300509B91062
:100A9F00020404B9080104A2D52006025001042063
:100AAF0002689202B563005034C0E07F2030031912
:100ABF007F30A20272067205500F120AECC202C2F8
:100ACF0006C205C2087F30800F300503E9C0E0126F
:100ADF00083B300503D0E0F9D0E0B563CC30051703
:100AEF007F30B9100C12083B7F583004077F788095
:100AFF0003B9080312083B3002057F2D02083B7F24
:100B0F00202008F87F2B2006F322920280CF286E38
:100B1F00756C6C2900D2011208003001F8C20178FF
:100B2F006330D50108F60208A62D50434958120824
:100B3F00002403B405004001E4900B389312082CF5
:0D0B4F00743A12082CD20375630402098B5E
:100C4D00E709F60870FA8046E709F20870FA803E67
:100C5D0088828C83E709F0A370FA807EE309F60899
:100C6D0070FA8076E309F20870FA806E88828C83C0
:100C7D00E309F0A370FA806289828A83E0A3F60803
:100C8D0070FA805689828A83E0A3F20870FA804A4E
:100C9D0080D280FA80C680D4806580F28031801049
:100CAD0080A680EA809A80A880DA80E280CA8031AE
:100CBD0089828A83ECFAE493A3C8C582C8CCC58324
:100CCD00CCF0A3C8C582C8CCC583CC70E9800D8992
:100CDD00828A83E493A3F60870F9ECFAA9F0EDFB90
:100CED002289828A83ECFAE0A3C8C582C8CCC58369
:100CFD00CCF0A3C8C582C8CCC583CC70EA80DD8991
:100D0D00828A83E493A3F20870F980CE88F0ED24F3
:100D1D0002B4040050C4F582EB2402B4040050BAAE
:090D2D002323458223900C9D73E1
:100D3600BB010CE58229F582E5833AF583E0225072
:100D460006E92582F8E622BBFE06E92582F8E222BC
:0D0D5600E58229F582E5833AF583E49322D6
:100D6300BB010689828A83F0225002F722BBFE016F
:020D7300F32269
:100D7500BC000BBE0029EF8DF084FFADF022E4CC62
:100D8500F875F008EF2FFFEE33FEEC33FCEE9DEC2B
:100D9500984005FCEE9DFE0FD5F0E9E4CEFD22ED71
:100DA500F8F5F0EE8420D21CFEADF075F008EF2FBB
:100DB500FFED33FD4007985006D5F0F222C398FDAC
:050DC5000FD5F0EA2249
:100DCA00FAE6FB0808E6F925F0F618E6CA3AF6222A
:100DDA00D083D082F8E4937012740193700DA3A3A8
:100DEA0093F8740193F5828883E4737402936860BC
:060DFA00EFA3A3A380DFBC
:10110400EFB40A07740D12110F740A309811A899DC
:10111400B8130CC2983098FDA899C298B811F6304B
:0711240099FDC299F5992223
:00000001FF
