:0300000002125E8B
:0C125E00787FE4F6D8FD7581470212A5E8
:1016170025366C690025352E3166B02563003F06F7
:101627005B4F666D7D077F6F2D204346B0250040D9
:061637000039716373002D
:02178200C1099B
:10167F00D3EF9400EE940040147D7D7C00ED1D703F
:0D168F00011CED4C70F7EF1F70E61E80E3AC
:01169C00222B
:0716CC001216D3D2807F0249
:0A16D300EFD3940040031F80F722BC
:07174A00D288D2A8D2AF2221
:0300030002177C65
:03177C00B209327D
:07175100C2B7D2B6D2B722E5
:03177F00C2B722CC
:0A143700121751EF3395E0FE7D0817
:04144100AB07AA0645
:10144500900000EDFF3395E0FEC3E5829FEE6480DA
:10145500F8E5836480985022C2B6AF82AE02EBA84D
:1014650007088006CEA2E713CE13D8F830E003D3E1
:0A1475008001C392B5D2B6A380C96E
:01147F00224A
:10157500E4F52CFDFCD2B5FBC2B630B5157E007482
:1015850001A803088005C333CE33CED8F92DFDEE6F
:0E1595003CFCD2B60BBB09E0C2B5AE04AF05FC
:0115A3002225
:1015CB008C228D23C2B5C2B6C2B7AD07AC067F0164
:1015DB00121660AD23AC227F021216607F0A121422
:0615EB00C37FEE02175F52
:06175F0012143702177F8F
:1016FF00E4FDFC121437121575AC06AD0702177F07
:101660008C248D25121437E52525E0FFE52433FE73
:0F1670007D101214417F147E0012167F02177F27
:1014C300A907E9D3940040321217517D087F0C7E9F
:1014D30000121441E9FF7E001214417F327E001294
:1014E300167F12177F7FAC1216FFE97C00B5070742
:0D14F300ECB506037F00227F01227F02225C
:101371007FAA1216FF8E228F237FA01216FF8E24C2
:101381008F257FA91216FF8E268F27E5254524601C
:101391004EAF23AE2212169DAC06AD07EC120AA386
:1013A100E4FBFA798078BE120807C004C005C006C4
:1013B100C007C3E5259527FFE5249526FEAC24AD9E
:1013C10025120D20AC06AD07EC120AA3D003D00202
:1013D100D001D0001208078F2B8E2A8D298C28AFBF
:0713E1002BAE2AAD29AC2858
:0113E80022E2
:061765001216FF02169DA2
:04169D00AD07AC06E3
:1016A100ECA2E713FEED13FFEC30E00AEF547F24C8
:0616B10080FFE434FFFE9F
:0116B7002210
:05177700C280C28122C6
:0C172B00D280D2817F021216D3C281222C
:1016DD00C2807F021216D3C2817F021216CCD28134
:0116ED0022DA
:0A173700C2807F051216CCC280228A
:0215F100AE0743
:1015F300E4FDC280A805EE088003A2E713D8FB3000
:10160300E003D38001C39281D2807F061216D30DEB
:03161300BD08DF30
:0116160022B1
:06176B0012177702175867
:10163D007525FF7526167527178F2B8E2A8D298CEC
:10164D00287B007A00793E120E4B7B007A00793EA2
:03165D000216B8BA
:1016B8008B228A2389247F40121771AB22AA23A97F
:0416C8002402148064
:07175800EF2487FF02177167
:061480008B258A26892756
:10148600E4F5287D2E12153D8F297FC012171EAB5D
:0A14960025AA26A927120CC8602021
:1014A0000527E5277002052614F9120CC8F52A64F1
:0E14B0002E60E2AF280528AB2AAD29121741A5
:0514BE0080D50216DDDF
:0617710012171E0216DD36
:0D171E00AE0712172BAF061215F102173798
:091741001215001215F102173710
:061500008F2B8D2C8B2DBA
:10150600E4F52EAF2D12170FAF2D5014EF3395E0E3
:10151600FE74F52FF58274153EF583E493FF800380
:101526001213E98F2EE52CF4600AE52BB52C05EF96
:061536002480FF22AF2E0D
:01153C00228C
:0213E9008F2F44
:1013EB00E4F530F531AF30EF3395E0FE742F2FF588
:1013FB008274163EF583E493602FAF2F1216EEE541
:10140B0030FD3395E0FC742F2DF58274163CF5837B
:10141B00E493B5071074362DF58274163CF583E40E
:0B142B0093F5318004053080BCAF3128
:011436002293
:08153D008B2B8A2C892D8D2EC9
:10154500E4FF7EFFAB2BAA2CA92DEFFD3395E08D93
:1015550082F583120CE1FDC36480F8EF6480985036
:0F1565000CEDB52E05EF14FE80030F80D7AF06F7
:011574002254
:1012EA007F0712176B7D147C007F197E001215CBC5
:1012FA0012174A1213718F0F8E0E8D0D8C0C200946
:10130A00028025E4FFFE7D107C41AB0FAA0EA90DD9
:10131A00A80C1208F8E4FBFA79A07840120A01E452
:10132A00FBFAF978421208078F0B8E0A8D098C088E
:10133A007525FF75261675271C8F2B8E2A8D298CED
:10134A00282009047F6380027F668F2C7B007A0045
:10135A007910120E4B7B007A0079101216B87FC8EA
:07136A007E0012167F808C4B
:10080000020B11E86480F8E933E83360110460F00A
:10081000ED33EC337009E8FCE9FDEAFEEBFF22045E
:1008200060DED3EB9FEA9EE99DE8C2E78CF0C2F759
:1008300095F0400CE8CCF8E9CDF9EACEFAEBCFFB25
:10084000120ADC85D0F05804700320D5B3E8047098
:10085000075002B2D5020B1B92D5EC0460F7E4CC32
:10086000C0E0C398F8603B94186008400DD0E0FBEE
:10087000020AF3E4FBFAC9FC8028E830E406E4C984
:10088000FBE4CAFCE830E305E4C9CACBFCE8540742
:100890006010F8C3E913F9EA13FAEB13FBEC13FC4D
:1008A000D8F130F52FC3E49CFCEF9BFFEE9AFEEDF0
:1008B00099FDD0E0FBEF4E4D4C701222DB03020B92
:1008C00018EC2CFCEF33FFEE33FEED33FDED30E79B
:1008D000EB020AF3EF2BFFEE3AFEED39FDD0E0FB21
:1008E00050130BBB0003020B1BED13FDEE13FEEFC9
:0808F00013FFEC13FC020AF3F4
:1008F800EC4D6011E8497017ED33EC3304600DE4FA
:10090800FCFFFEFD22E933E8330470F8020B1112F4
:100918000ADC58046009E4CC2481500628500902F6
:100928000B1B284003020B18C0E0EB4A7044B98047
:1009380006D0E0FB020B07EF4E701CBD8008EBFFF2
:10094800EAFEE9FD80EBE98DF0A4FEE5F00209E19D
:10095800E9CDF9EAFEEBFFEF89F0A4FCE5F0CE89DA
:10096800F0A42EFFE435F0CD89F0A42DFEE435F097
:100978008067EF4E7005BD80D780C3EF8BF0A4ACC5
:10098800F0EE8BF0A42CFCE435F0F8EF8AF0A42C00
:10099800E5F038FCE433CB8DF0A42CFCE5F03BF813
:1009A800EE8AF0A42CFCE5F038F8E433CF89F0A403
:1009B8002CFCE5F038CF3400CE89F0A42FFFE5F009
:1009C8003EFEE433C98DF0A42EFEE5F039CD8AF061
:1009D800A42FFFE5F03EFEE43DFD33D0E0FB5007D9
:1009E8000BBB000F020B1BEC2CFCEF33FFEE33FEAE
:0609F800ED33FD020AF3DD
:1009FE00020B1BEC5D046005E859047003020B1139
:100A0E00120ADC580460F6EC4860F2EC7004FDFE4D
:100A1E00FF22C860DB2481C85009C39860025006CB
:100A2E00020B189850CAF582E9294B4A7005AB8221
:100A3E00020B0775F0007C1A7880C3EF9BEE9AEDDF
:100A4E0099400DC3EF9BFFEE9AFEED99FDE842F043
:100A5E00DC23ACF0D0E0FFD0E0FED0E0FDAB822096
:100A6E00E7101BEB60BAEC2CFCEF33FFEE33FEED20
:100A7E0033FD020AF3E803F830E705C0F075F00025
:100A8E00EF2FFFEE33FEED33FD40B830E7C280AA04
:100A9E0075F020800E75F010800575F0087D007ED3
:100AAE00007F003392D530D503120D56EC33401033
:100ABE00EF33FFEE33FEED33FDEC33FCD5F0ED22DC
:0E0ACE00E5F0247EA2D513CC92E7CDCEFF2218
:100DEF00E5392425F8E605392278223007027825DF
:100DFF00E475F001120D64020CC82000EB7F2ED2B7
:100E0F00008018EF540F2490D43440D4FF30040BDB
:100E1F00EF24BFB41A0050032461FFE53A600215B6
:100E2F003A053DE53D7002053C30070D7822E4752B
:100E3F00F001120D64EF020D0E0215A47403D20718
:100E4F008003E4C207F5398B228A238924E4F53A1B
:100E5F00F53CF53DE53A60077F20120E2A80F575C7
:100E6F003BFFC201C200C202C203C205C206C208D2
:100E7F00120DF8FF700D3007057F00120E3BAF3DCE
:100E8F00AE3C22B4255FC2D5C204120DF8FF24D0A8
:100E9F00B40A00501A75F00A783A30D50508B6FF33
:100EAF000106C6A426F620D5047002D20380D924E9
:100EBF00CFB41A00EF5004C2E5D204021128D201B8
:100ECF0080C6D20080C0D20280BCD2D580BAD205F3
:100EDF0080B47F20120E2A2002077401B53A004019
:100EEF00F1120DEFFF120E2A020E63D208D2068006
:100EFF0095120DEFFB120DEFFA120DEFF94A4B7031
:100F0F0006791F7A127BFF20022EE53A602A7E00B7
:100F1F008E82758300120CE160060EEE653B70F059
:100F2F00C2D5EBC0E0EAC0E0E9C0E0EE121188D014
:100F3F00E0F9D0E0FAD0E0FB120CC8FF60AAEBC0DA
:100F4F00E0EAC0E0E9C0E0120E2AD0E02401F9D0B7
:100F5F00E03400FAD0E0FBE53B0460DCD53BD98000
:100F6F0087D20280A212116B60F7E53B7001041269
:100F7F000B26A93B600DE53B600914F53B121212DD
:100F8F00EF60F3EA30E702F404C3995077EAF425EF
:100F9F003B0430E701E404F53B800D12116B60C197
:100FAF00EA053B253B120B26EA7838F630E701E4D9
:100FBF00253B04D53B0420050114121188E4C0E041
:100FCF001212127838E6601320E70714F6120E1289
:100FDF00802204F6D0E014C0E07F00120E12E53B31
:100FEF006007120E09153B800B300503120E09D056
:100FFF00E0020E63D0E00480C512116B60A0E53BE8
:10100F0004120B267838EAF6E53B2005026001044E
:05101F002404121188F9
:1010240074FF04C0E0121212120E12E53B200502F6
:101034006003120E09D0E0B53BE87F45120E1C7820
:1010440038E67F2B30E7047F2DF404C0E0120E2A2B
:10105400D0E075F00A84C0F0120E13D0E0120E1323
:10106400020E63791080027908C206C2088008D291
:10107400D5790A8004790AC2D5E53B047002F53BB0
:10108400E4FAFDFEFF120DEFFC7B08200113120DA4
:10109400EFFD7B1030000A120DEFFE120DEFFF7B07
:1010A40020EC3382D592D55013C3E43000069FFF61
:1010B400E49EFEE42001039DFDE49CFCE4CBF8C225
:1010C40001EC700CCFCECDCCE824F8F870F3801787
:1010D400C3EF33FFEE33FEED33FDEC33FCEB33FBB8
:1010E400994002FB0FD8E9EB300105F8D0E0C44881
:1010F400B201C0E00AEC4D4E4F78207B0070C2EA8A
:10110400B53B0040BCC0E012118AD0F0D0E0200111
:1011140004C4C0E0C4B201C0F0120E13D0F0D5F084
:10112400EB020E63120D740F00531067580ED14C6E
:101134000ECD42106B4F1073441073490EE64310EA
:1011440079550FAA461008450F7447123F500ED523
:101154002D0ED92E0EFC2B0EDD230EFA2012282A7A
:101164000E954800000EF4E53BB4FF03753B0612F0
:101174000DEFFC120DEFFD120DEFFE120DEFFF78D7
:1011840031020B55790AA2D5200314300509B91090
:10119400020404B9080104A2D52006025001042067
:1011A40002689202B53A005034C0E07F203003193F
:1011B4007F30A20272067205500F1211E1C202C200
:1011C40006C205C2087F30800F300503E9C0E01273
:1011D4000E2A300503D0E0F9D0E0B53ACC3005173B
:1011E4007F30B9100C120E2A7F583004077F7880A4
:1011F40003B90803120E2A3002057F2D020E2A7F3E
:10120400202008F87F2B2006F322920280CF7F0053
:10121400B4070050052431F8E6FF22286E756C6C83
:101224002900D201120DEF3001F8C201783A30D50D
:101234000108F6020E952D50434958120DEF240370
:10124400B405004001E490123A93120E1B743A1252
:0A1254000E1BD203753A0402106766
:100ADC00E9D2E7C933E833F892D5EDD2E7CD33EC60
:070AEC0033FC5002B2D522D9
:100AF300EC30E7100FBF000C0EBE00080DBD000464
:100B03000BEB6014A2D5EB13FCED92E7FD2274FF0F
:100B1300FCFDFEFF22E480F8A2D574FF13FC7D8068
:030B2300E480EF7C
:100B2600F920E72824F950037907E4F42402FB1896
:100B3600DBFDE624FB5014E9600DE4F618E604F646
:0F0B4600B40A08E4F6D9F57401F60A22C2D522E2
:100B5500ED33EC3392D5FA602AB4FF33EDC2E77B6F
:100B6500FF60067A0B797AE4227A0B798320D50423
:100B75007A0B797E224E614E002B494E46002D4957
:100B85004E4600E47A08F608DAFC7B00740722E892
:100B9500C0E0ECC0E0EDC0E0EEC0E0EFC0E0EA751B
:100BA500F010A4CAABF075F04DA42BFBE435F0FCB6
:100BB500EA2410FAEB34C5FBEC34D9FCEDC2E7FFAF
:100BC50075F056A4F42411C5F0F434C58FF0A42AA9
:100BD500E5F03BE43CF620E714120C88D0E0FFD0AA
:100BE500E0FED0E0FDD0E0FC120A018014F404120E
:100BF5000C88D0E0FFD0E0FED0E0FDD0E0FC12088C
:100C0500F8D0E0F8E6FAEDD2E7CD33EC332482FBF9
:100C1500E4C3CF33CFCE33CECD33CD33DBF37B0738
:100C250075F00A846004F6081B0AE5F0F6088FF0F3
:100C3500740AA4FFACF08EF0740AA42CFEACF0503C
:100C4500010C8DF0740AA42CFDE435F0F608DBDE0A
:030C5500740722FF
:100C58003F8000004120000042C80000447A0000A4
:100C6800461C400047C35000497424004B18968026
:100C78004CBEBC205A0E1BCA6753C21C749DC5AE1D
:100C8800FB60065407601C2323120CB6EB54386033
:100C980009120CA2120CB11208F8ECF8EDF9EEFAF0
:100CA800EFCB22EB120CB180F1543803241C900CCA
:100CB80058FE93FC0EEE93FD0EEE930ECE93FF229C
:10126A000212EAE493A3F8E493A34003F68001F29E
:10127A0008DFF48029E493A3F85407240CC8C33385
:10128A00C4540F4420C8834004F456800146F6DF54
:10129A00E4800B0102040810204080901782E47E4B
:1012AA00019360BCA3FF543F30E509541FFEE49349
:1012BA00A360010ECF54C025E060A840B8E493A310
:1012CA00FAE493A3F8E493A3C8C582C8CAC583CA3B
:1012DA00F0A3C8C582C8CAC583CADFE9DEE780BEF3
:011784000064
:100CC800BB010689828A83E0225002E722BBFE022A
:090CD800E32289828A83E493225D
:100CE100BB010CE58229F582E5833AF583E02250C8
:100CF10006E92582F8E622BBFE06E92582F8E22212
:0D0D0100E58229F582E5833AF583E493222B
:100D0E00BB010689828A83F0225002F722BBFE01C4
:020D1E00F322BE
:100D2000C2D5EC30E709B2D5E4C39DFDE49CFCEEEE
:100D300030E715B2D5E4C39FFFE49EFE120D9AC3BF
:100D4000E49DFDE49CFC8003120D9A30D507C3E4BA
:060D50009FFFE49EFE225D
:0E0D5600C3E49FFFE49EFEE49DFDE49CFC22AE
:100D6400FAE6FB0808E6F925F0F618E6CA3AF62290
:100D7400D083D082F8E4937012740193700DA3A30E
:100D840093F8740193F5828883E473740293686022
:060D9400EFA3A3A380DF22
:1015A400EFB40A07740D1215AF740A309811A89994
:1015B400B8130CC2983098FDA899C298B811F630A7
:0715C40099FDC299F599227F
:0F170F00EFC394304007EF943A50028001C32299
:1016EE00EFC39461400AEF947B5005EF24E0FF2294
:0116FE0022C9
:100D9A00BC000BBE0029EF8DF084FFADF022E4CC3D
:100DAA00F875F008EF2FFFEE33FEEC33FCEE9DEC06
:100DBA00984005FCEE9DFE0FD5F0E9E4CEFD22ED4C
:100DCA00F8F5F0EE8420D21CFEADF075F008EF2F96
:100DDA00FFED33FD4007985006D5F0F222C398FD87
:050DEA000FD5F0EA2224
:00000001FF
