:0300000002126683
:0C126600787FE4F6D8FD75816F0212ADB0
:0E157B0025366C690025372E3366B0256300D7
:10145A00C1090A227E306D79335B5F707F730A2C73
:10146A002D20B0434625454F52000A360100634EEF
:06147A0047674F1D05004D
:10150D00D3EF9400EE940040147D7D7C00ED1D70B2
:0D151D00011CED4C70F7EF1F70E61E80E31F
:01152A00229E
:0A159600EFD3940040031F80F722FA
:0715A000D288D2A8D2AF22CD
:030003000215AE35
:0315AE00B209324D
:0715A700C292C290D2912212
:02143100AD0705
:10143300E4FCC292EDFF3395E0FEEFA804088005BB
:10144300C333CE33CED8F930E703D38001C39290B0
:06145300D2920CBC08DC83
:011459002270
:1014CB00E4FFFEC292A291E433FDC374079EFCF8C5
:1014DB00ED088002C333D8FC2FFFD2920EBE08E377
:0114EB0022DE
:0D1589001215A71215A07F2C7E0102150D72
:10152B00C2941214CB8F551214CB8F54D294E55511
:0A153B00FE7C00E42554FFEC3EFEA8
:011545002283
:0411D3008E548F5552
:1011D700E5557807CEA2E713CE13D8F8FDAC06EC99
:1011E700120AA38F598E588D578C56E5555478F5AA
:1011F7005A603A7803A2E713D8FBF55AAB59AA58B5
:10120700A957A856C000C001C002C003FC120AA813
:10121700E4FBFA7980783D1208F8D003D002D001B8
:10122700D0001208078F598E588D578C5620090900
:10123700AF59AE58AD57AC5622E4FFFE7D107C4146
:10124700AB59AA58A957A8561208F8E4FBFA79A08F
:0E1257007840120A01E4FBFAF9784212080707
:011265002266
:1014EC008F541215A7E4FD7F0912156C7D0F7F0A2E
:1014FC0012156CAD547F0B12156C7D017F0C02150F
:01150C006C72
:0F156C00AB05C293121431AF03121431D2932284
:1014A8007557FF75581575597B8F5D8E5C8D5B8CF4
:1014B8005A7B007A007908120DC07B007A007908FF
:0314C8000212F21B
:0612F2008B548A55895659
:1012F800E4F5577D2E1213488F59E4F558AB54AADC
:1013080055A956121546AD58ED3395E0FCC3ED9F2F
:04131800EC9E502BCC
:10131C00AB54AA55A9568D828C83120CE1F55A64F4
:10132C002E6014AB5AAD59AF571213CFAD07E5571A
:07133C0004FF12156C0557B8
:04134300055880BE0B
:011347002283
:0613CF008F5B8D5CAF0393
:1013D500E4F55DEFC39430400EEFD39439500874B3
:1013E500F22FF8E6FF80031214038F5DE55CF460CD
:0D13F5000AE55BB55C05EF2480FF22AF5DCB
:0114020022C7
:021403008F5EFA
:10140500E4F55FF560742C255FF8E6601CAF5E12AD
:10141500155B742C255FF8E6B5070A7436255FF869
:0B142500E6F5608004055F80DCAF602E
:011430002299
:081348008B5B8A5C895D8D5E00
:10135000E4F55F7560FFF55FAB5BAA5CA95D1215F4
:1013600046AD5FED3395E0FCC3ED9FEC9E501BABAB
:101370005BAA5CA95D8D828C83120CE1B55E07E5EA
:0C1380005F14F5608004055F80CEAF6054
:01138C00223E
:10138D007F071214EC12158912152B8E408F411206
:10139D0011D38F5D8E5C8D5B8C5A7557FF7558150B
:1013AD007559802009047F6380027F668F5E7B0004
:1013BD007A007942120DC07B007A0079421212F246
:0213CD0080C6D8
:10080000020B11E86480F8E933E83360110460F00A
:10081000ED33EC337009E8FCE9FDEAFEEBFF22045E
:1008200060DED3EB9FEA9EE99DE8C2E78CF0C2F759
:1008300095F0400CE8CCF8E9CDF9EACEFAEBCFFB25
:10084000120ADC85D0F05804700320D5B3E8047098
:10085000075002B2D5020B1B92D5EC0460F7E4CC32
:10086000C0E0C398F8603B94186008400DD0E0FBEE
:10087000020AF3E4FBFAC9FC8028E830E406E4C984
:10088000FBE4CAFCE830E305E4C9CACBFCE8540742
:100890006010F8C3E913F9EA13FAEB13FBEC13FC4D
:1008A000D8F130F52FC3E49CFCEF9BFFEE9AFEEDF0
:1008B00099FDD0E0FBEF4E4D4C701222DB03020B92
:1008C00018EC2CFCEF33FFEE33FEED33FDED30E79B
:1008D000EB020AF3EF2BFFEE3AFEED39FDD0E0FB21
:1008E00050130BBB0003020B1BED13FDEE13FEEFC9
:0808F00013FFEC13FC020AF3F4
:1008F800EC4D6011E8497017ED33EC3304600DE4FA
:10090800FCFFFEFD22E933E8330470F8020B1112F4
:100918000ADC58046009E4CC2481500628500902F6
:100928000B1B284003020B18C0E0EB4A7044B98047
:1009380006D0E0FB020B07EF4E701CBD8008EBFFF2
:10094800EAFEE9FD80EBE98DF0A4FEE5F00209E19D
:10095800E9CDF9EAFEEBFFEF89F0A4FCE5F0CE89DA
:10096800F0A42EFFE435F0CD89F0A42DFEE435F097
:100978008067EF4E7005BD80D780C3EF8BF0A4ACC5
:10098800F0EE8BF0A42CFCE435F0F8EF8AF0A42C00
:10099800E5F038FCE433CB8DF0A42CFCE5F03BF813
:1009A800EE8AF0A42CFCE5F038F8E433CF89F0A403
:1009B8002CFCE5F038CF3400CE89F0A42FFFE5F009
:1009C8003EFEE433C98DF0A42EFEE5F039CD8AF061
:1009D800A42FFFE5F03EFEE43DFD33D0E0FB5007D9
:1009E8000BBB000F020B1BEC2CFCEF33FFEE33FEAE
:0609F800ED33FD020AF3DD
:1009FE00020B1BEC5D046005E859047003020B1139
:100A0E00120ADC580460F6EC4860F2EC7004FDFE4D
:100A1E00FF22C860DB2481C85009C39860025006CB
:100A2E00020B189850CAF582E9294B4A7005AB8221
:100A3E00020B0775F0007C1A7880C3EF9BEE9AEDDF
:100A4E0099400DC3EF9BFFEE9AFEED99FDE842F043
:100A5E00DC23ACF0D0E0FFD0E0FED0E0FDAB822096
:100A6E00E7101BEB60BAEC2CFCEF33FFEE33FEED20
:100A7E0033FD020AF3E803F830E705C0F075F00025
:100A8E00EF2FFFEE33FEED33FD40B830E7C280AA04
:100A9E0075F020800E75F010800575F0087D007ED3
:100AAE00007F003392D530D503120D20EC33401069
:100ABE00EF33FFEE33FEED33FDEC33FCD5F0ED22DC
:0E0ACE00E5F0247EA2D513CC92E7CDCEFF2218
:100D6400E56B2457F8E6056B227854300702785770
:100D7400E475F001120D2E020CC82000EB7F2ED278
:100D8400008018EF540F2490D43440D4FF30040B67
:100D9400EF24BFB41A0050032461FFE56C60021510
:100DA4006C056FE56F7002056E30070D7854E475BD
:100DB400F001120D2EEF020D0E0214817403D207FE
:100DC4008003E4C207F56B8B548A558956E4F56CAD
:100DD400F56EF56FE56C60077F20120D9F80F57549
:100DE4006DFFC201C200C202C203C205C206C2082C
:100DF400120D6DFF700D3007057F00120DB0AF6F3F
:100E0400AE6E22B4255FC2D5C204120D6DFF24D08C
:100E1400B40A00501A75F00A786C30D50508B6FF8C
:100E24000106C6A426F620D5047002D20380D92474
:100E3400CFB41A00EF5004C2E5D20402109DD201CF
:100E440080C6D20080C0D20280BCD2D580BAD2057E
:100E540080B47F20120D9F2002077401B56C0040FE
:100E6400F1120D64FF120D9F020DD8D208D2068034
:100E740095120D64FB120D64FA120D64F94A4B705D
:100E84000679947A117BFF20022EE56C602A7E009D
:100E94008E82758300120CE160060EEE656D70F0B3
:100EA400C2D5EBC0E0EAC0E0E9C0E0EE1210FDD02C
:100EB400E0F9D0E0FAD0E0FB120CC8FF60AAEBC066
:100EC400E0EAC0E0E9C0E0120D9FD0E02401F9D0CF
:100ED400E03400FAD0E0FBE56D0460DCD56DD98028
:100EE40087D20280A21210E060F7E56D700104124F
:100EF4000B26A96D600DE56D600914F56D1211875F
:100F0400EF60F3EA30E702F404C3995077EAF4257A
:100F14006D0430E701E404F56D800D1210E060C14A
:100F2400EA056D256D120B26EA786AF630E701E4CE
:100F3400256D04D56D04200501141210FDE4C0E0F4
:100F4400121187786AE6601320E70714F6120D87FA
:100F5400802204F6D0E014C0E07F00120D87E56D16
:100F64006007120D7E156D800B300503120D7ED0C7
:100F7400E0020DD8D0E00480C51210E060A0E56D59
:100F840004120B26786AEAF6E56D20050260010476
:050F940024041210FD11
:100F990074FF04C0E0121187120D87E56D20050268
:100FA9006003120D7ED0E0B56DE87F45120D917892
:100FB9006AE67F2B30E7047F2DF404C0E0120D9F11
:100FC900D0E075F00A84C0F0120D88D0E0120D88C7
:100FD900020DD8791080027908C206C2088008D2A9
:100FE900D5790A8004790AC2D5E56D047002F56DD8
:100FF900E4FAFDFEFF120D64FC7B08200113120DBB
:1010090064FD7B1030000A120D64FE120D64FF7B33
:1010190020EC3382D592D55013C3E43000069FFFEC
:10102900E49EFEE42001039DFDE49CFCE4CBF8C2B0
:1010390001EC700CCFCECDCCE824F8F870F3801712
:10104900C3EF33FFEE33FEED33FDEC33FCEB33FB43
:10105900994002FB0FD8E9EB300105F8D0E0C4480C
:10106900B201C0E00AEC4D4E4F78207B0070C2EA15
:10107900B56D0040BCC0E01210FFD0F0D0E02001F7
:1010890004C4C0E0C4B201C0F0120D88D0F0D5F09C
:10109900EB020DD8120D3E0E75530FDC580E464C5F
:1010A9000E42420FE04F0FE8440FE8490E5B430F31
:1010B900EE550F1F460F7D450EE94711B4500E4AF4
:1010C9002D0E4E2E0E712B0E52230E6F20119D2ABE
:1010D9000E0A4800000E69E56DB4FF03756D06122E
:1010E9000D64FC120D64FD120D64FE120D64FF788F
:1010F90063020B55790AA2D5200314300509B910EA
:10110900020404B9080104A2D520060250010420F2
:1011190002689202B56C005034C0E07F2030031998
:101129007F30A20272067205500F121156C202C216
:1011390006C205C2087F30800F300503E9C0E012FE
:101149000D9F300503D0E0F9D0E0B56CCC30051720
:101159007F30B9100C120D9F7F583004077F7880BB
:1011690003B90803120D9F3002057F2D020D9F7FE1
:10117900202008F87F2B2006F322920280CF7F00DF
:10118900B4070050052463F8E6FF22286E756C6CDD
:101199002900D201120D643001F8C201786C30D5F2
:1011A9000108F6020E0A2D50434958120D64240312
:1011B900B405004001E49011AF93120D90743A12F6
:0A11C9000D90D203756C04020FDCD8
:100ADC00E9D2E7C933E833F892D5EDD2E7CD33EC60
:070AEC0033FC5002B2D522D9
:100AF300EC30E7100FBF000C0EBE00080DBD000464
:100B03000BEB6014A2D5EB13FCED92E7FD2274FF0F
:100B1300FCFDFEFF22E480F8A2D574FF13FC7D8068
:030B2300E480EF7C
:100B2600F920E72824F950037907E4F42402FB1896
:100B3600DBFDE624FB5014E9600DE4F618E604F646
:0F0B4600B40A08E4F6D9F57401F60A22C2D522E2
:100B5500ED33EC3392D5FA602AB4FF33EDC2E77B6F
:100B6500FF60067A0B797AE4227A0B798320D50423
:100B75007A0B797E224E614E002B494E46002D4957
:100B85004E4600E47A08F608DAFC7B00740722E892
:100B9500C0E0ECC0E0EDC0E0EEC0E0EFC0E0EA751B
:100BA500F010A4CAABF075F04DA42BFBE435F0FCB6
:100BB500EA2410FAEB34C5FBEC34D9FCEDC2E7FFAF
:100BC50075F056A4F42411C5F0F434C58FF0A42AA9
:100BD500E5F03BE43CF620E714120C88D0E0FFD0AA
:100BE500E0FED0E0FDD0E0FC120A018014F404120E
:100BF5000C88D0E0FFD0E0FED0E0FDD0E0FC12088C
:100C0500F8D0E0F8E6FAEDD2E7CD33EC332482FBF9
:100C1500E4C3CF33CFCE33CECD33CD33DBF37B0738
:100C250075F00A846004F6081B0AE5F0F6088FF0F3
:100C3500740AA4FFACF08EF0740AA42CFEACF0503C
:100C4500010C8DF0740AA42CFDE435F0F608DBDE0A
:030C5500740722FF
:100C58003F8000004120000042C80000447A0000A4
:100C6800461C400047C35000497424004B18968026
:100C78004CBEBC205A0E1BCA6753C21C749DC5AE1D
:100C8800FB60065407601C2323120CB6EB54386033
:100C980009120CA2120CB11208F8ECF8EDF9EEFAF0
:100CA800EFCB22EB120CB180F1543803241C900CCA
:100CB80058FE93FC0EEE93FD0EEE930ECE93FF229C
:1012720002138DE493A3F8E493A34003F68001F2F2
:1012820008DFF48029E493A3F85407240CC8C3337D
:10129200C4540F4420C8834004F456800146F6DF4C
:1012A200E4800B010204081020408090145AE47E6E
:1012B200019360BCA3FF543F30E509541FFEE49341
:1012C200A360010ECF54C025E060A840B8E493A308
:1012D200FAE493A3F8E493A3C8C582C8CAC583CA33
:1012E200F0A3C8C582C8CAC583CADFE9DEE780BEEB
:01148000006B
:100CC800BB010689828A83E0225002E722BBFE022A
:090CD800E32289828A83E493225D
:100CE100BB010CE58229F582E5833AF583E02250C8
:100CF10006E92582F8E622BBFE06E92582F8E22212
:0D0D0100E58229F582E5833AF583E493222B
:100D0E00BB010689828A83F0225002F722BBFE01C4
:020D1E00F322BE
:0E0D2000C3E49FFFE49EFEE49DFDE49CFC22E4
:100D2E00FAE6FB0808E6F925F0F618E6CA3AF622C6
:100D3E00D083D082F8E4937012740193700DA3A344
:100D4E0093F8740193F5828883E473740293686058
:060D5E00EFA3A3A380DF58
:10148100EFB40A07740D12148C740A309811A899DC
:10149100B8130CC2983098FDA899C298B811F630CB
:0714A10099FDC299F59922A3
:10155B00EFC39461400AEF947B5005EF24E0FF2228
:01156B00225D
:10154600E4FFFE120CC8600C0FEF70010E09E97083
:05155600F20A80EF2203
:00000001FF
