:0300000002150BDB
:0C150B00787FE4F6D8FD7581630212D6EB
:1013FB0054483A202569B0432C20544C3A20256997
:10140B00B0430A0D0054656D706572617475726539
:0C141B003A2025352E3166B0430A0D0042
:1014C200D3EF9400EE940040147D7D7C00ED1D70FE
:0D14D200011CED4C70F7EF1F70E61E80E36B
:0114DF0022EA
:0A152300EFD3940040031F80F7226D
:0C151700758920759850758DFDD28E22CC
:08152D008F993099FDC299224B
:071535003098FDAF99C29848
:01153C00228C
:061427007B007A00792A27
:10142D008B488A49894AAB48AA49A94A120CC86017
:10143D0013054AE54A7002054914F9120CC8FF124A
:05144D00152D80E222D4
:07153D00C2B4D2B3D2B42204
:03155000C2B42200
:0A13480012153DEF3395E0FE7D081D
:04135200AB07AA0635
:10135600900000EDFF3395E0FEC3E5829FEE6480CA
:10136600F8E5836480985022C2B3AF82AE02EBA840
:1013760007088006CEA2E713CE13D8F830E003D3D1
:0A1386008001C392B2D2B3A380C964
:01139000223A
:1013CE00E4FDFCD2B2FBC2B330B2157E007401A8AC
:1013DE0003088005C333CE33CED8F92DFDEE3CFC89
:0C13EE00D2B30BBB09E0C2B2AE04AF05E5
:0113FA0022D0
:101452008E488F498C4A8D4BC2B2C2B3C2B47F0A46
:10146200121391AD49AC487F011214A3AD4BAC4AA3
:0A1472007F021214A37FEE0215445E
:06154400121348021550CD
:1014FB00E4FDFC1213481213CEAC06AD07021550D7
:1014A3008C4C8D4D121348E54D25E0FFE54C33FE82
:0F14B3007D101213527F147E001214C2021550C6
:10139100A907E9D39400403212153D7D087F0C7EE8
:1013A10000121352E9FF7E001213527F327E0012A7
:1013B10014C21215507FAC1214FBE97C00B507076B
:0D13C100ECB506037F00227F01227F02228F
:10125E007FAA1214FB8E488F497FA01214FB8E4A70
:10126E008F4B7FA91214FB8E4C8F4DE54B454A6078
:10127E004EAF49AE481214E0AC06AD07EC1208FDB5
:10128E00E4FBFA798078BE120807C004C005C006D8
:10129E00C007C3E54B954DFFE54A954CFEAC4AADF4
:1012AE004B120D20AC06AD07EC1208FDD003D00298
:1012BE00D001D0001208078F518E508D4F8C4EAF3B
:0712CE0051AE50AD4FAC4ED4
:0112D50022F6
:06154A001214FB0214E084
:0414E000AD07AC06A2
:1014E400ECA2E713FEED13FFEC30E00AEF547F2487
:0614F40080FFE434FFFE5E
:0114FA0022CF
:1012D6001215177D147C007F197E001214527FA10F
:1012E60012154A8E268F277FA212154A8E288F291D
:1012F600754BFF754C13754DFB85264E85274F851F
:1013060028508529517B007A00792A120E4B121437
:101316002712125E8F258E248D238C22754BFF7526
:101326004C14754D108F518E508D4F8C4E7B007A1C
:1013360000792A120E4B1214277FF47E011214C272
:0213460080CF56
:1008000002096BE86480F8E933E83360110460F0B2
:10081000ED33EC337009E8FCE9FDEAFEEBFF22045E
:1008200060DED3EB9FEA9EE99DE8C2E78CF0C2F759
:1008300095F0400CE8CCF8E9CDF9EACEFAEBCFFB25
:1008400012093685D0F05804700320D5B3E804703F
:10085000075002B2D502097592D5EC0460F7E4CCDA
:10086000C0E0C398F8603B94186008400DD0E0FBEE
:1008700002094DE4FBFAC9FC8028E830E406E4C92B
:10088000FBE4CAFCE830E305E4C9CACBFCE8540742
:100890006010F8C3E913F9EA13FAEB13FBEC13FC4D
:1008A000D8F130F52FC3E49CFCEF9BFFEE9AFEEDF0
:1008B00099FDD0E0FBEF4E4D4C701222DB03020994
:1008C00072EC2CFCEF33FFEE33FEED33FDED30E741
:1008D000EB02094DEF2BFFEE3AFEED39FDD0E0FBC8
:1008E00050130BBB0003020975ED13FDEE13FEEF71
:0808F00013FFEC13FC02094D9B
:1008F80075F020800E75F010800575F0087D007E7B
:10090800007F003392D530D503120D56EC334010DA
:10091800EF33FFEE33FEED33FDEC33FCD5F0ED2283
:0E092800E5F0247EA2D513CC92E7CDCEFF22BF
:100DEF00E55F244BF8E6055F227848300702784B21
:100DFF00E475F001120D64020CC82000EB7F2ED2B7
:100E0F00008018EF540F2490D43440D4FF30040BDB
:100E1F00EF24BFB41A0050032461FFE56060021590
:100E2F00600563E5637002056230070D7848E4756D
:100E3F00F001120D64EF020D0E02147C7403D20741
:100E4F008003E4C207F55F8B488A49894AE4F5605D
:100E5F00F562F563E56060077F20120E2A80F57555
:100E6F0061FFC201C200C202C203C205C206C208AC
:100E7F00120DF8FF700D3007057F00120E3BAF63A8
:100E8F00AE6222B4255FC2D5C204120DF8FF24D082
:100E9F00B40A00501A75F00A786030D50508B6FF0D
:100EAF000106C6A426F620D5047002D20380D924E9
:100EBF00CFB41A00EF5004C2E5D204021128D201B8
:100ECF0080C6D20080C0D20280BCD2D580BAD205F3
:100EDF0080B47F20120E2A2002077401B5600040F3
:100EEF00F1120DEFFF120E2A020E63D208D2068006
:100EFF0095120DEFFB120DEFFA120DEFF94A4B7031
:100F0F0006791F7A127BFF20022EE560602A7E0091
:100F1F008E82758300120CE160060EEE656170F033
:100F2F00C2D5EBC0E0EAC0E0E9C0E0EE121188D014
:100F3F00E0F9D0E0FAD0E0FB120CC8FF60AAEBC0DA
:100F4F00E0EAC0E0E9C0E0120E2AD0E02401F9D0B7
:100F5F00E03400FAD0E0FBE5610460DCD561D980B4
:100F6F0087D20280A212116B60F7E5617001041243
:100F7F000980A961600DE561600914F56112121213
:100F8F00EF60F3EA30E702F404C3995077EAF425EF
:100F9F00610430E701E404F561800D12116B60C14B
:100FAF00EA05612561120980EA785EF630E701E40F
:100FBF00256104D5610420050114121188E4C0E0F5
:100FCF00121212785EE6601320E70714F6120E1263
:100FDF00802204F6D0E014C0E07F00120E12E5610B
:100FEF006007120E091561800B300503120E09D030
:100FFF00E0020E63D0E00480C512116B60A0E561C2
:10100F0004120980785EEAF6E561200502600104AA
:05101F002404121188F9
:1010240074FF04C0E0121212120E12E561200502D0
:101034006003120E09D0E0B561E87F45120E1C78FA
:101044005EE67F2B30E7047F2DF404C0E0120E2A05
:10105400D0E075F00A84C0F0120E13D0E0120E1323
:10106400020E63791080027908C206C2088008D291
:10107400D5790A8004790AC2D5E561047002F56164
:10108400E4FAFDFEFF120DEFFC7B08200113120DA4
:10109400EFFD7B1030000A120DEFFE120DEFFF7B07
:1010A40020EC3382D592D55013C3E43000069FFF61
:1010B400E49EFEE42001039DFDE49CFCE4CBF8C225
:1010C40001EC700CCFCECDCCE824F8F870F3801787
:1010D400C3EF33FFEE33FEED33FDEC33FCEB33FBB8
:1010E400994002FB0FD8E9EB300105F8D0E0C44881
:1010F400B201C0E00AEC4D4E4F78207B0070C2EA8A
:10110400B5610040BCC0E012118AD0F0D0E02001EB
:1011140004C4C0E0C4B201C0F0120E13D0F0D5F084
:10112400EB020E63120D740F00531067580ED14C6E
:101134000ECD42106B4F1073441073490EE64310EA
:1011440079550FAA461008450F7447123F500ED523
:101154002D0ED92E0EFC2B0EDD230EFA2012282A7A
:101164000E954800000EF4E561B4FF0375610612A4
:101174000DEFFC120DEFFD120DEFFE120DEFFF78D7
:10118400570209AF790AA2D5200314300509B91012
:10119400020404B9080104A2D52006025001042067
:1011A40002689202B560005034C0E07F2030031919
:1011B4007F30A20272067205500F1211E1C202C200
:1011C40006C205C2087F30800F300503E9C0E01273
:1011D4000E2A300503D0E0F9D0E0B560CC30051715
:1011E4007F30B9100C120E2A7F583004077F7880A4
:1011F40003B90803120E2A3002057F2D020E2A7F3E
:10120400202008F87F2B2006F322920280CF7F0053
:10121400B4070050052457F8E6FF22286E756C6C5D
:101224002900D201120DEF3001F8C201786030D5E7
:101234000108F6020E952D50434958120DEF240370
:10124400B405004001E490123A93120E1B743A1252
:0A1254000E1BD20375600402106740
:10093600E9D2E7C933E833F892D5EDD2E7CD33EC07
:0709460033FC5002B2D52280
:10094D00EC30E7100FBF000C0EBE00080DBD00040B
:10095D000BEB6014A2D5EB13FCED92E7FD2274FFB7
:10096D00FCFDFEFF22E480F8A2D574FF13FC7D8010
:03097D00E480EF24
:10098000F920E72824F950037907E4F42402FB183E
:10099000DBFDE624FB5014E9600DE4F618E604F6EE
:0F09A000B40A08E4F6D9F57401F60A22C2D5228A
:1009AF00ED33EC3392D5FA602AB4FF33EDC2E77B17
:1009BF00FF60067A0979D4E4227A0979DD20D5041B
:1009CF007A0979D8224E614E002B494E46002D49A7
:1009DF004E4600E47A08F608DAFC7B00740722E83A
:1009EF00C0E0ECC0E0EDC0E0EEC0E0EFC0E0EA75C3
:1009FF00F010A4CAABF075F04DA42BFBE435F0FC5E
:100A0F00EA2410FAEB34C5FBEC34D9FCEDC2E7FF56
:100A1F0075F056A4F42411C5F0F434C58FF0A42A50
:100A2F00E5F03BE43CF620E714120C88D0E0FFD051
:100A3F00E0FED0E0FDD0E0FC120BBB8014F40412FA
:100A4F000C88D0E0FFD0E0FED0E0FDD0E0FC120A31
:100A5F00B2D0E0F8E6FAEDD2E7CD33EC332482FBE7
:100A6F00E4C3CF33CFCE33CECD33CD33DBF37B07E0
:100A7F0075F00A846004F6081B0AE5F0F6088FF09B
:100A8F00740AA4FFACF08EF0740AA42CFEACF050E4
:100A9F00010C8DF0740AA42CFDE435F0F608DBDEB2
:030AAF00740722A7
:100AB200EC4D6011E8497017ED33EC3304600DE43E
:100AC200FCFFFEFD22E933E8330470F802096B12E1
:100AD200093658046009E4CC2481500628500902E2
:100AE2000975284003020972C0E0EB4A7044B980DC
:100AF20006D0E0FB020961EF4E701CBD8008EBFFDF
:100B0200EAFEE9FD80EBE98DF0A4FEE5F0020B9B25
:100B1200E9CDF9EAFEEBFFEF89F0A4FCE5F0CE891E
:100B2200F0A42EFFE435F0CD89F0A42DFEE435F0DB
:100B32008067EF4E7005BD80D780C3EF8BF0A4AC09
:100B4200F0EE8BF0A42CFCE435F0F8EF8AF0A42C44
:100B5200E5F038FCE433CB8DF0A42CFCE5F03BF857
:100B6200EE8AF0A42CFCE5F038F8E433CF89F0A447
:100B72002CFCE5F038CF3400CE89F0A42FFFE5F04D
:100B82003EFEE433C98DF0A42EFEE5F039CD8AF0A5
:100B9200A42FFFE5F03EFEE43DFD33D0E0FB50071D
:100BA2000BBB000F020975EC2CFCEF33FFEE33FE9A
:060BB200ED33FD02094DC8
:100BB800020975EC5D046005E85904700302096BCD
:100BC800120936580460F6EC4860F2EC7004FDFE39
:100BD800FF22C860DB2481C85009C3986002500610
:100BE8000209729850CAF582E9294B4A7005AB820E
:100BF80002096175F0007C1A7880C3EF9BEE9AEDCC
:100C080099400DC3EF9BFFEE9AFEED99FDE842F087
:100C1800DC23ACF0D0E0FFD0E0FED0E0FDAB8220DA
:100C2800E7101BEB60BAEC2CFCEF33FFEE33FEED64
:100C380033FD02094DE803F830E705C0F075F00010
:100C4800EF2FFFEE33FEED33FD40B830E7C280AA48
:100C58003F8000004120000042C80000447A0000A4
:100C6800461C400047C35000497424004B18968026
:100C78004CBEBC205A0E1BCA6753C21C749DC5AE1D
:100C8800FB60065407601C2323120CB6EB54386033
:100C980009120CA2120CB1120AB2ECF8EDF9EEFA34
:100CA800EFCB22EB120CB180F1543803241C900CCA
:100CB80058FE93FC0EEE93FD0EEE930ECE93FF229C
:100CC800BB010689828A83E0225002E722BBFE022A
:090CD800E32289828A83E493225D
:100CE100BB010CE58229F582E5833AF583E02250C8
:100CF10006E92582F8E622BBFE06E92582F8E22212
:0D0D0100E58229F582E5833AF583E493222B
:100D0E00BB010689828A83F0225002F722BBFE01C4
:020D1E00F322BE
:100D2000C2D5EC30E709B2D5E4C39DFDE49CFCEEEE
:100D300030E715B2D5E4C39FFFE49EFE120D9AC3BF
:100D4000E49DFDE49CFC8003120D9A30D507C3E4BA
:060D50009FFFE49EFE225D
:0E0D5600C3E49FFFE49EFEE49DFDE49CFC22AE
:100D6400FAE6FB0808E6F925F0F618E6CA3AF62290
:100D7400D083D082F8E4937012740193700DA3A30E
:100D840093F8740193F5828883E473740293686022
:060D9400EFA3A3A380DF22
:10147C00EFB40A07740D121487740A309811A899E6
:10148C00B8130CC2983098FDA899C298B811F630D0
:07149C0099FDC299F59922A8
:100D9A00BC000BBE0029EF8DF084FFADF022E4CC3D
:100DAA00F875F008EF2FFFEE33FEEC33FCEE9DEC06
:100DBA00984005FCEE9DFE0FD5F0E9E4CEFD22ED4C
:100DCA00F8F5F0EE8420D21CFEADF075F008EF2F96
:100DDA00FFED33FD4007985006D5F0F222C398FD87
:050DEA000FD5F0EA2224
:00000001FF
