:030000000212BE2B
:0C12BE00787FE4F6D8FD7581630213050B
:10160D0025366C6900204572720025362E3166B084
:0B161D0025630025372E316625630091
:10163E00013800072DA3A580B0B5B10006271819F3
:04164E001A1B1C1D2A
:10157A00D3EF9400EE940040147D7D7C00ED1D7045
:0D158A00011CED4C70F7EF1F70E61E80E3B2
:011597002231
:0A16B500EFD3940040031F80F722DA
:0A16BF00D28C308DFDC28CC28D224A
:0C169D00758901758CB8758A0C0216BFA7
:0C16A900758901758CFF758AF10216BF6F
:0816D200C2B012169DD2B02235
:0D168F00E4FF20B0FD30B0FD20B0FD7F0174
:01169C00222B
:10148B00E4FFFE30B0FD1216A930B011C374079EF5
:10149B00FDF87401088002C333D8FC2FFF20B0FD88
:0414AB000EBE08DF8A
:0114AF00221A
:0716E200D288D2A8D2AF228A
:030003000214B034
:1014B000C0E0C0D075D000C007C3E5386480948216
:1014C00040047F008004E53804FF8F38D007D0D077
:0314D000D0E03237
:0316E9000216E204
:061598008B4B8A4C894DCB
:10159E00E4FFFEAB4BAA4CA94D8E82758300120C54
:0715AE00E12FFF0EBE04EC6B
:0115B5002213
:0615B6008B488A49894AB6
:1015BC00E4FD121598AB48AA49A94A900004120CF4
:0715CC00E16F60010DAF05A6
:0115D30022F5
:10162800900002120CE1FE900003120CE17C0024F1
:0516380000FFEC3EFE86
:01163D00228A
:10166800900001120CE1FD7C00120CC8FEE42DFF75
:03167800EC3EFE47
:01167B00224C
:06155B008B488A49894A11
:10156100E4FC12148BAB48AA49A94A8C827583000A
:08157100EF120D200CBC05EA8D
:01157900224F
:04134A008E488F49F1
:10134E00AC48AD49EC120AA38F4D8E4C8D4B8C4A96
:10135E00E54830E71C547FFEAF497CFF7DFF120D40
:10136E0042AC06AD07EC120AA38F4D8E4C8D4B8C02
:10137E004AE5387011FBFA79207841AF4DAE4CAD8D
:10138E004BAC4A020A01E4FBFA79207841AF4DAE2C
:10139E004CAD4BAC4A120A01E4FBFA7910784112BB
:1013AE0008F8E4FBFA79A07840120A01E4FBFAF996
:0513BE0078421208074F
:0113C3002207
:0916C900C290C291D292D2932288
:1015D400E4FEC290A806EF088002C333D8FC30E7CB
:0D15E40003D38001C39291D2900EBE08E5A2
:0115F10022D7
:10151900E4FFFEC290A292E433FDC374079EFCF877
:10152900ED088002C333D8FC2FFFD2900EBE08E32A
:01153900228F
:10167C008F481216C9E54860091548AF481214D3B3
:03168C0080F322C6
:1014D3008F4912153A12153AAB497DFF7F02121557
:1014E30040AB497D037F03121540AB497D017F0467
:0314F3000215409F
:06153A00AB497DFF7F01BB
:101540008B4EC2931215D4AF051215D4AF4E154E63
:0B155000EF60051216DA80F4D293223F
:1014F600754BFF754C16754D0D8F518E508D4F8C5B
:101506004E7B007A007908120DF47B007A00790888
:031516000213C4F9
:0613C4008B488A49894AAA
:1013CA00E4F54BF54CAB48AA49A94A121653AD4C61
:1013DA00ED3395E0FCC3ED9FEC9E5040AB48AA4923
:1013EA00A94A8D828C83120CE1F54D30E706FF1273
:1013FA0015F28F4DAF4C121427AB07E54B2420FF93
:10140A00AD4D121540C3E54B6480948340047F00C0
:0C141A008004E54B04FF8F4B054C80A9BB
:0114260022A3
:0816DA00E4FF1215D40215D43F
:10142700C3EF64809480400CD3EF648094835004AE
:10143700E4FE8026C3EF64809484400CD3EF64807D
:10144700948750047E018012C3EF64809485400A1C
:0C145700D3EF6480948B50027E02AF063D
:011463002266
:1015F200E4FEFD742D2EF8E6600EB5070874272E62
:0A160200F8E6FD80030E80EBAF0553
:01160C0022BB
:101207007F0312167C1216E91216D212168FEF60A0
:10121700097B007A00792212155B7B007A0079221C
:101227001215B6EF60087BFF7A167912807C7B0077
:101237007A0079221216688E368F371216288E3466
:101247008F35E538600464017026AF35AE3412136C
:101257004A8F518E508D4F8C4E754BFF754C1675BE
:101267004D17E53870047F4380027F468F52802BED
:10127700E538B4022F754BFF754C16754D20AC360B
:10128700AD37EC120AA3E4FBFA79207841120A0180
:101297008F518E508D4F8C4E7552257B007A007979
:1012A70039120DF47B007A0079391213C47F647EFA
:0712B7000012157A02120F6C
:10080000020B11E86480F8E933E83360110460F00A
:10081000ED33EC337009E8FCE9FDEAFEEBFF22045E
:1008200060DED3EB9FEA9EE99DE8C2E78CF0C2F759
:1008300095F0400CE8CCF8E9CDF9EACEFAEBCFFB25
:10084000120ADC85D0F05804700320D5B3E8047098
:10085000075002B2D5020B1B92D5EC0460F7E4CC32
:10086000C0E0C398F8603B94186008400DD0E0FBEE
:10087000020AF3E4FBFAC9FC8028E830E406E4C984
:10088000FBE4CAFCE830E305E4C9CACBFCE8540742
:100890006010F8C3E913F9EA13FAEB13FBEC13FC4D
:1008A000D8F130F52FC3E49CFCEF9BFFEE9AFEEDF0
:1008B00099FDD0E0FBEF4E4D4C701222DB03020B92
:1008C00018EC2CFCEF33FFEE33FEED33FDED30E79B
:1008D000EB020AF3EF2BFFEE3AFEED39FDD0E0FB21
:1008E00050130BBB0003020B1BED13FDEE13FEEFC9
:0808F00013FFEC13FC020AF3F4
:1008F800EC4D6011E8497017ED33EC3304600DE4FA
:10090800FCFFFEFD22E933E8330470F8020B1112F4
:100918000ADC58046009E4CC2481500628500902F6
:100928000B1B284003020B18C0E0EB4A7044B98047
:1009380006D0E0FB020B07EF4E701CBD8008EBFFF2
:10094800EAFEE9FD80EBE98DF0A4FEE5F00209E19D
:10095800E9CDF9EAFEEBFFEF89F0A4FCE5F0CE89DA
:10096800F0A42EFFE435F0CD89F0A42DFEE435F097
:100978008067EF4E7005BD80D780C3EF8BF0A4ACC5
:10098800F0EE8BF0A42CFCE435F0F8EF8AF0A42C00
:10099800E5F038FCE433CB8DF0A42CFCE5F03BF813
:1009A800EE8AF0A42CFCE5F038F8E433CF89F0A403
:1009B8002CFCE5F038CF3400CE89F0A42FFFE5F009
:1009C8003EFEE433C98DF0A42EFEE5F039CD8AF061
:1009D800A42FFFE5F03EFEE43DFD33D0E0FB5007D9
:1009E8000BBB000F020B1BEC2CFCEF33FFEE33FEAE
:0609F800ED33FD020AF3DD
:1009FE00020B1BEC5D046005E859047003020B1139
:100A0E00120ADC580460F6EC4860F2EC7004FDFE4D
:100A1E00FF22C860DB2481C85009C39860025006CB
:100A2E00020B189850CAF582E9294B4A7005AB8221
:100A3E00020B0775F0007C1A7880C3EF9BEE9AEDDF
:100A4E0099400DC3EF9BFFEE9AFEED99FDE842F043
:100A5E00DC23ACF0D0E0FFD0E0FED0E0FDAB822096
:100A6E00E7101BEB60BAEC2CFCEF33FFEE33FEED20
:100A7E0033FD020AF3E803F830E705C0F075F00025
:100A8E00EF2FFFEE33FEED33FD40B830E7C280AA04
:100A9E0075F020800E75F010800575F0087D007ED3
:100AAE00007F003392D530D503120D54EC33401035
:100ABE00EF33FFEE33FEED33FDEC33FCD5F0ED22DC
:0E0ACE00E5F0247EA2D513CC92E7CDCEFF2218
:100D9800E55F244BF8E6055F227848300702784B78
:100DA800E475F001120D62020CC82000EB7F2ED210
:100DB800008018EF540F2490D43440D4FF30040B33
:100DC800EF24BFB41A0050032461FFE560600215E8
:100DD800600563E5637002056230070D7848E475C5
:100DE800F001120D62EF020D0E0214647403D207B3
:100DF8008003E4C207F55F8B488A49894AE4F560B5
:100E0800F562F563E56060077F20120DD380F57504
:100E180061FFC201C200C202C203C205C206C20803
:100E2800120DA1FF700D3007057F00120DE4AF63AE
:100E3800AE6222B4255FC2D5C204120DA1FF24D030
:100E4800B40A00501A75F00A786030D50508B6FF64
:100E58000106C6A426F620D5047002D20380D92440
:100E6800CFB41A00EF5004C2E5D2040210D1D20167
:100E780080C6D20080C0D20280BCD2D580BAD2054A
:100E880080B47F20120DD32002077401B5600040A2
:100E9800F1120D98FF120DD3020E0CD208D2068063
:100EA80095120D98FB120D98FA120D98F94A4B708D
:100EB8000679C87A117BFF20022EE560602A7E0041
:100EC8008E82758300120CE160060EEE656170F08B
:100ED800C2D5EBC0E0EAC0E0E9C0E0EE121131D0C3
:100EE800E0F9D0E0FAD0E0FB120CC8FF60AAEBC032
:100EF800E0EAC0E0E9C0E0120DD3D0E02401F9D067
:100F0800E03400FAD0E0FBE5610460DCD561D9800B
:100F180087D20280A212111460F7E56170010412F1
:100F28000B26A961600DE561600914F5611211BB1A
:100F3800EF60F3EA30E702F404C3995077EAF42546
:100F4800610430E701E404F561800D12111460C1F9
:100F5800EA05612561120B26EA785EF630E701E4BE
:100F6800256104D5610420050114121131E4C0E0A3
:100F78001211BB785EE6601320E70714F6120DBB6A
:100F8800802204F6D0E014C0E07F00120DBBE561BA
:100F98006007120DB21561800B300503120DB2D037
:100FA800E0020E0CD0E00480C512111460A0E561C7
:100FB80004120B26785EEAF6E5612005026001045A
:050FC8002404121131A8
:100FCD0074FF04C0E01211BB120DBBE561200502D8
:100FDD006003120DB2D0E0B561E87F45120DC57802
:100FED005EE67F2B30E7047F2DF404C0E0120DD3B5
:100FFD00D0E075F00A84C0F0120DBCD0E0120DBC2B
:10100D00020E0C791080027908C206C2088008D23F
:10101D00D5790A8004790AC2D5E561047002F561BB
:10102D00E4FAFDFEFF120D98FC7B08200113120D52
:10103D0098FD7B1030000A120D98FE120D98FF7B63
:10104D0020EC3382D592D55013C3E43000069FFFB8
:10105D00E49EFEE42001039DFDE49CFCE4CBF8C27C
:10106D0001EC700CCFCECDCCE824F8F870F38017DE
:10107D00C3EF33FFEE33FEED33FDEC33FCEB33FB0F
:10108D00994002FB0FD8E9EB300105F8D0E0C448D8
:10109D00B201C0E00AEC4D4E4F78207B0070C2EAE1
:1010AD00B5610040BCC0E0121133D0F0D0E020019A
:1010BD0004C4C0E0C4B201C0F0120DBCD0F0D5F034
:1010CD00EB020E0C120D720EA9531010580E7A4C25
:1010DD000E764210144F101C44101C490E8F4310F5
:1010ED0022550F53460FB1450F1D4711E8500E7E87
:1010FD002D0E822E0EA52B0E86230EA32011D12A86
:10110D000E3E4800000E9DE561B4FF0375610612A9
:10111D000D98FC120D98FD120D98FE120D98FF788A
:10112D0057020B55790AA2D5200314300509B910C1
:10113D00020404B9080104A2D520060250010420BE
:10114D0002689202B560005034C0E07F2030031970
:10115D007F30A20272067205500F12118AC202C2AE
:10116D0006C205C2087F30800F300503E9C0E012CA
:10117D000DD3300503D0E0F9D0E0B560CC300517C4
:10118D007F30B9100C120DD37F583004077F788053
:10119D0003B90803120DD33002057F2D020DD37F45
:1011AD00202008F87F2B2006F322920280CF7F00AB
:1011BD00B4070050052457F8E6FF22286E756C6CB5
:1011CD002900D201120D983001F8C201786030D596
:1011DD000108F6020E3E2D50434958120D98240376
:1011ED00B405004001E49011E393120DC4743A125A
:0A11FD000DC4D20375600402101047
:100ADC00E9D2E7C933E833F892D5EDD2E7CD33EC60
:070AEC0033FC5002B2D522D9
:100AF300EC30E7100FBF000C0EBE00080DBD000464
:100B03000BEB6014A2D5EB13FCED92E7FD2274FF0F
:100B1300FCFDFEFF22E480F8A2D574FF13FC7D8068
:030B2300E480EF7C
:100B2600F920E72824F950037907E4F42402FB1896
:100B3600DBFDE624FB5014E9600DE4F618E604F646
:0F0B4600B40A08E4F6D9F57401F60A22C2D522E2
:100B5500ED33EC3392D5FA602AB4FF33EDC2E77B6F
:100B6500FF60067A0B797AE4227A0B798320D50423
:100B75007A0B797E224E614E002B494E46002D4957
:100B85004E4600E47A08F608DAFC7B00740722E892
:100B9500C0E0ECC0E0EDC0E0EEC0E0EFC0E0EA751B
:100BA500F010A4CAABF075F04DA42BFBE435F0FCB6
:100BB500EA2410FAEB34C5FBEC34D9FCEDC2E7FFAF
:100BC50075F056A4F42411C5F0F434C58FF0A42AA9
:100BD500E5F03BE43CF620E714120C88D0E0FFD0AA
:100BE500E0FED0E0FDD0E0FC120A018014F404120E
:100BF5000C88D0E0FFD0E0FED0E0FDD0E0FC12088C
:100C0500F8D0E0F8E6FAEDD2E7CD33EC332482FBF9
:100C1500E4C3CF33CFCE33CECD33CD33DBF37B0738
:100C250075F00A846004F6081B0AE5F0F6088FF0F3
:100C3500740AA4FFACF08EF0740AA42CFEACF0503C
:100C4500010C8DF0740AA42CFDE435F0F608DBDE0A
:030C5500740722FF
:100C58003F8000004120000042C80000447A0000A4
:100C6800461C400047C35000497424004B18968026
:100C78004CBEBC205A0E1BCA6753C21C749DC5AE1D
:100C8800FB60065407601C2323120CB6EB54386033
:100C980009120CA2120CB11208F8ECF8EDF9EEFAF0
:100CA800EFCB22EB120CB180F1543803241C900CCA
:100CB80058FE93FC0EEE93FD0EEE930ECE93FF229C
:1012CA00021207E493A3F8E493A34003F68001F221
:1012DA0008DFF48029E493A3F85407240CC8C33325
:1012EA00C4540F4420C8834004F456800146F6DFF4
:1012FA00E4800B010204081020408090163EE47E30
:10130A00019360BCA3FF543F30E509541FFEE493E8
:10131A00A360010ECF54C025E060A840B8E493A3AF
:10132A00FAE493A3F8E493A3C8C582C8CAC583CADA
:10133A00F0A3C8C582C8CAC583CADFE9DEE780BE92
:011652000097
:100CC800BB010689828A83E0225002E722BBFE022A
:090CD800E32289828A83E493225D
:100CE100BB010CE58229F582E5833AF583E02250C8
:100CF10006E92582F8E622BBFE06E92582F8E22212
:0D0D0100E58229F582E5833AF583E493222B
:100D0E00BB010689828A83F0225002F722BBFE01C4
:020D1E00F322BE
:100D2000F8BB010DE58229F582E5833AF583E8F009
:100D3000225006E92582C8F622BBFE05E92582C8B5
:020D4000F2229D
:100D4200EF8DF0A4A8F0CF8CF0A428CE8DF0A42EC5
:020D5200FE227F
:0E0D5400C3E49FFFE49EFEE49DFDE49CFC22B0
:100D6200FAE6FB0808E6F925F0F618E6CA3AF62292
:100D7200D083D082F8E4937012740193700DA3A310
:100D820093F8740193F5828883E473740293686024
:060D9200EFA3A3A380DF24
:10146400EFB40A07740D12146F740A309811A89916
:10147400B8130CC2983098FDA899C298B811F630E8
:0714840099FDC299F59922C0
:10165300E4FFFE120CC8600C0FEF70010E09E97075
:05166300F20A80EF22F5
:00000001FF
