:03000000020E7B72
:0C0E7B00787FE4F6D8FD75817C020EC281
:100DEE00253032643A253032643A2530326400536D
:100DFE00756E004D6F6E0054756500576564005436
:100E0E006875004672690053617400657272004A1B
:100E1E00616E00466562004D6172636800417072DA
:100E2E00696C004D6179004A756E65004A756C7982
:100E3E00004175670053657074004F6374004E6F08
:100E4E007600446563006572726F7200256420251A
:100E5E0073203230253032640054696D653A257343
:0D0E6E0000446174653A25732C2025730043
:1012D400042280C094D40E440000000A00100002CE
:0612E400000400050014E7
:07133700C290C291D2922284
:0211B800AD0781
:1011BA00E4FCC290EDFF3395E0FEEFA80408800539
:1011CA00C333CE33CED8F930E703D38001C392912B
:0611DA00D2900CBC08DC01
:0111E00022EC
:10120800E4FFFEC290A292E433FDC374079EFCF88B
:10121800ED088002C333D8FC2FFFD2900EBE08E33E
:0112280022A3
:10124A00AB07AA06EB7804CEA2E713CE13D8F8FFB1
:10125A007C007D0A120B75EB540F2FFFEC3EFE2229
:10115A00AB07AA067C007D0A120B87EFC4F8540F6E
:10116A00C868F582EEC454F048F583AE02AF037C3A
:0F117A00007D0A120B87ED2582FFEC3583FE22E4
:0610EB008B528A53895468
:1010F100756CFF756D0D756EEE900004120BE8F5C1
:101101007085F06F900002120BE8F57285F0711294
:101111000BBDF57485F0737B007A00795512085C7C
:061121007B007A00795505
:0111270022A5
:100F0700EE7077EF14B407005070900F1F75F00361
:100F1700A4C58325F0C58373020F34020F3F020F68
:100F27004A020F55020F60020F6B020F767552FFD0
:100F370075530D7554FD804B7552FF75530E7554DF
:100F47000180407552FF75530E75540580357552F3
:100F5700FF75530E755409802A7552FF75530E7528
:100F6700540D801F7552FF75530E755411801475FB
:100F770052FF75530E75541580097552FF75530E40
:090F8700755419AB52AA53A95488
:010F9000223E
:100D1700EE6003020DDEEF14B40C004003020DDE9B
:100D2700900D3575F003A4C58325F0C58373020DB7
:100D370059020D65020D70020D7B020D86020D91A1
:100D4700020D9C020DA7020DB2020DBD020DC802D5
:100D57000DD37569FF756A0E756B1D020DE7756911
:100D6700FF756A0E756B2180777569FF756A0E7559
:100D77006B25806C7569FF756A0E756B2B806175C5
:100D870069FF756A0E756B3180567569FF756A0E56
:100D9700756B35804B7569FF756A0E756B3A8040C8
:100DA7007569FF756A0E756B3F80357569FF756AE2
:100DB7000E756B43802A7569FF756A0E756B4880DF
:100DC7001F7569FF756A0E756B4C80147569FF7521
:100DD7006A0E756B5080097569FF756A0E756B54DD
:060DE700AB69AA6AA96BCA
:010DED0022E3
:061016008B528A5389543D
:10101C0090000A120BE8FFAEF0120D178B718A725A
:10102C008973756CFF756D0E756E5AAB52AA53A908
:10103C0054900008120BE8F57085F06F90000C12BC
:10104C000BE8F57585F0747B007A00795512085C15
:06105C007B007A007955CB
:01106200226B
:10128800121337D2947D207C007F0E7E0012112825
:0B1298007D487C007F0F7E00021128C3
:1012EB00E4FDFCC2941211B8121208EF3395E0D250
:0212FB0094FE5F
:0112FD0022CE
:08112800AB05AA048F828E833F
:10113000E4F555F554F553F552C294E5822480FF49
:10114000E43583FE3395E08F558E54F553F55212F6
:0911500011B8AF031211B8D294DA
:011159002273
:061063008B088A09890ACE
:10106900E4F50BF50CE50C25E0FFE50B33AB08AA1D
:1010790009A90A8F82F583120BE8FFAEF012115A03
:10108900AC06AD07AF0CAE0B121128050CE50C70C0
:0E10990002050BC39407E50B6480948040C7EA
:0110A7002226
:0610A8008B528A538954AB
:1010AE00E4F555F556AF56AE551212EB12124AAD87
:1010BE0007E55625E0FFE55533AB52AA53A9548FE9
:1010CE0082F583EE8DF0120C200556E55670020562
:0C10DE0055C39407E5556480948040C918
:0110EA0022E3
:10126A00D3EF9400EE940040147D7D7C00ED1D7058
:0D127A00011CED4C70F7EF1F70E61E80E3C5
:011287002244
:0A132300EFD3940040031F80F7226F
:0A132D00AD07121337E4FF0212BCF3
:1012BC00AB05AA07C2937F401211B8AF021211B846
:0812CC00AF031211B8D2932206
:10131100C2937F411211B87F0A1211B8121208D27A
:011321009338
:0113220022A8
:1012A300E4FF12132D7F021213437F281213437F8F
:0912B3000C1213437F01021343E6
:05133E00D2090212FEBD
:05134300C2090212FEC8
:101189008B528A53895474222FF8E62DFF12134388
:10119900AB52AA53A954120B5C60130554E5547061
:0F11A90002055314F9120B5CFF12133E80E22271
:1012FE008F55E55554F0FF121229E555C454F0FFF1
:03130E000212299F
:10122900A907A209E4334201E94404FD7F0A121225
:10123900BC7F057E0012126AE954FBFD7F0A021287
:01124900BCE8
:100F91001212A31212887B007A0079441210A87BE6
:100FA100007A0079441210EB8B6F8A708971756C2D
:100FB100FF756D0E756E677B007A00792612085CED
:100FC1007B007A007926E4FDFF121189AF4BAE4A0E
:100FD100120F07C003C002C0017B007A00794412DE
:100FE10010168B728A738974D001D002D0038B6F73
:100FF1008A708971756CFF756D0E756E6F7B007AE5
:1010010000792612085C7B007A007926E4FD7F01D5
:0510110012118980812D
:100E8700020F91E493A3F8E493A34003F68001F2E1
:100E970008DFF48029E493A3F85407240CC8C3336C
:100EA700C4540F4420C8834004F456800146F6DF3B
:100EB700E4800B01020408102040809012D4E47EE5
:100EC700019360BCA3FF543F30E509541FFEE49330
:100ED700A360010ECF54C025E060A840B8E493A3F7
:100EE700FAE493A3F8E493A3C8C582C8CAC583CA22
:100EF700F0A3C8C582C8CAC583CADFE9DEE780BEDA
:0112EA000003
:100B5C00BB010689828A83E0225002E722BBFE0297
:090B6C00E32289828A83E49322CA
:100B7500EF8DF0A4A8F0CF8CF0A428CE8DF0A42E94
:020B8500FE224E
:100B8700C2D5EC30E709B2D5E4C39DFDE49CFCEE89
:100B970030E715B2D5E4C39FFFE49EFE120C8CC369
:100BA700E49DFDE49CFC8003120C8C30D507C3E464
:060BB7009FFFE49EFE22F8
:100BBD00BB010A89828A83E0F5F0A3E02250068703
:100BCD00F009E71922BBFE07E3F5F009E3192289C5
:0B0BDD00828A83E493F5F074019322F8
:100BE800BB0110E58229F582E5833AF583E0F5F04B
:100BF800A3E0225009E92582F886F008E622BBFE28
:100C08000AE92582F8E2F5F008E222E5832AF5836D
:080C1800E993F5F0A3E9932232
:100C2000F8BB0111E58229F582E5833AF583E8F006
:100C3000E5F0A3F0225009E92582C8F608A6F022C3
:0D0C4000BBFE09E92582C8F2E5F008F222AA
:10080000E578246CF8E60578227869300702786C80
:10081000E475F001120CE1020B5C2000EB7F2ED29C
:10082000008018EF540F2490D43440D4FF30040BD0
:10083000EF24BFB41A0050032461FFE5796002156C
:1008400079057CE57C7002057B30070D7869E475DD
:10085000F001120CE1EF020C7A0211E17403D207ED
:100860008003E4C207F5788B698A6A896BE4F579BD
:10087000F57BF57CE57960077F2012083B80F575F4
:100880007AFFC201C200C202C203C205C206C20888
:10089000120809FF700D3007057F0012084CAF7C6D
:1008A000AE7B22B4255FC2D5C204120809FF24D052
:1008B000B40A00501A75F00A787930D50508B6FFE9
:1008C0000106C6A426F620D5047002D20380D924DE
:1008D000CFB41A00EF5004C2E5D204020A4CD20190
:1008E00080C6D20080C0D20280BCD2D580BAD205E8
:1008F00080B47F2012083B2002077401B5790040C4
:10090000F1120800FF12083B020874D208D20680D8
:1009100095120800FB120800FA120800F94A4B7001
:1009200006791D7A0B7BFF20022EE579602A7E0076
:100930008E82758300120C4D60060EEE657A70F0A3
:10094000C2D5EBC0E0EAC0E0E9C0E0EE120A93D005
:10095000E0F9D0E0FAD0E0FB120B5CFF60AAEBC03C
:10096000E0EAC0E0E9C0E012083BD0E02401F9D0A1
:10097000E03400FAD0E0FBE57A0460DCD57AD98077
:10098000877BFF7A0A798FD202809C791080027966
:1009900008C206C2088008D2D5790A8004790AC242
:1009A000D5E57A047002F57AE4FAFDFEFF1208003C
:1009B000FC7B08200113120800FD7B1030000A1296
:1009C0000800FE120800FF7B20EC3382D592D55040
:1009D00013C3E43000069FFFE49EFEE42001039D64
:1009E000FDE49CFCE4CBF8C201EC700CCFCECDCC86
:1009F000E824F8F870F38017C3EF33FFEE33FEED11
:100A000033FDEC33FCEB33FB994002FB0FD8E9EBF1
:100A1000300105F8D0E0C448B201C0E00AEC4D4E08
:100A20004F78207B0070C2EAB57A0040BCC0E0126B
:100A30000A95D0F0D0E0200104C4C0E0C4B201C0E7
:100A4000F0120824D0F0D5F0EB020874120CF10972
:100A50001153098B5808E24C08DE42098F4F099761
:0F0A60004409974908F743099D550981460981C3
:100A6F00450981470B3D5008E62D08EA2E090D2B4D
:100A7F0008EE23090B200B262A08A64800000905BB
:100A8F003F3F3F00790AA2D5200314300509B91062
:100A9F00020404B9080104A2D52006025001042063
:100AAF0002689202B579005034C0E07F20300319FC
:100ABF007F30A20272067205500F120AECC202C2F8
:100ACF0006C205C2087F30800F300503E9C0E0126F
:100ADF00083B300503D0E0F9D0E0B579CC300517ED
:100AEF007F30B9100C12083B7F583004077F788095
:100AFF0003B9080312083B3002057F2D02083B7F24
:100B0F00202008F87F2B2006F322920280CF286E38
:100B1F00756C6C2900D2011208003001F8C20178FF
:100B2F007930D50108F60208A62D5043495812080E
:100B3F00002403B405004001E4900B389312082CF5
:0D0B4F00743A12082CD20375790402098B48
:100C4D00BB010CE58229F582E5833AF583E022505C
:100C5D0006E92582F8E622BBFE06E92582F8E222A6
:0D0C6D00E58229F582E5833AF583E49322C0
:100C7A00BB010689828A83F0225002F722BBFE0159
:020C8A00F32253
:100C8C00BC000BBE0029EF8DF084FFADF022E4CC4C
:100C9C00F875F008EF2FFFEE33FEEC33FCEE9DEC15
:100CAC00984005FCEE9DFE0FD5F0E9E4CEFD22ED5B
:100CBC00F8F5F0EE8420D21CFEADF075F008EF2FA5
:100CCC00FFED33FD4007985006D5F0F222C398FD96
:050CDC000FD5F0EA2233
:100CE100FAE6FB0808E6F925F0F618E6CA3AF62214
:100CF100D083D082F8E4937012740193700DA3A392
:100D010093F8740193F5828883E4737402936860A5
:060D1100EFA3A3A380DFA5
:1011E100EFB40A07740D1211EC740A309811A89922
:1011F100B8130CC2983098FDA899C298B811F6306E
:0712010099FDC299F5992245
:00000001FF
