:03000000020DEE00
:0C0DEE00787FE4F6D8FD75817E020E359A
:100F0400253032643A253032643A25303264005355
:100F1400756E004D6F6E005475650057656400541E
:100F24006875004672690053617400657272004A04
:100F3400616E00466562004D6172636800417072C3
:100F4400696C004D6179004A756E65004A756C796B
:100F5400004175670053657074004F6374004E6FF1
:100F640076004465630025642F25732F32302530C5
:100F740032640054696D653A257300446174653ABE
:070F840025732C20257300EA
:0612D600043280C094D434
:10121700D3EF9400EE940040147D7D7C00ED1D70AB
:0D122700011CED4C70F7EF1F70E61E80E318
:011234002297
:0A12B000EFD3940040031F80F722E3
:0512DD00D281D2802245
:0512E200C281C2802260
:0912C400D281D280C281C28022D5
:0912CD00C280C281D280D28122CC
:0C12A400EF24FF9281D280C280D2812210
:0511380012113DAF059E
:10113D00E4FEA806EF088002C333D8FC30E703D3E2
:10114D008001C39281D280C2800EBE08E5E4FF12F9
:07115D0012A4A281E433FF9C
:011164002268
:10118C00E4FEFDD280A281E433FCC374079DFBF81E
:10119C00EC088002C333D8FC2EFEC2800DBD08E3E0
:0511AC001212A4AF06C1
:0111B100221B
:0A12BA00AD071212DDE4FF021292EC
:10129200AC071212E27F4012113DAF041211380264
:0212A20012CD6B
:101235001212E27F4012113D7F0A12113D1212C4B3
:0D1245007F4112113D7F0112118C0212CD6C
:10125200E4FF1212BA7F021212EC7F281212EC7F04
:091262000C1212EC7F010212ECE7
:0512E700D20902127F94
:0512EC00C20902127F9F
:1010DA008B548A55895674322FF8E62DFF1212EC7A
:1010EA00AB54AA55A956120B5C60130556E5567007
:0F10FA0002055514F9120B5CFF1212E780E22277
:10127F008F57E55754F0FF1211D6E557C454F0FFBE
:03128F000211D673
:1011D600AB07A209E4334203EB4404FD7F0A121273
:1011E600927F057E00121217EB54FBFD7F0A021256
:0111F6009266
:1011F700AB07AA06EB7804CEA2E713CE13D8F8FF05
:101207007C007D0A120B75EB540F2FFFEC3EFE227C
:10110900AB07AA067C007D0A120B87EFC4F8540FBF
:10111900C868F582EEC454F048F583AE02AF037C8B
:0F112900007D0A120B87ED2582FFEC3583FE2235
:06109D008B548A558956B0
:1010A300756EFF756F0F757004900004120BE8F5F1
:1010B3007285F071900002120BE8F57485F07312DB
:1010C3000BBDF57685F0757B007A00795712085CC5
:0610D3007B007A00795752
:0110D90022F4
:100E7A00EE7077EF14B407005070900E9275F0037D
:100E8A00A4C58325F0C58373020EA7020EB2020E13
:100E9A00BD020EC8020ED3020EDE020EE97554FF21
:100EAA0075550F755613804B7554FF75550F75564A
:100EBA001780407554FF75550F75561B803575544C
:100ECA00FF75550F75561F802A7554FF75550F7596
:100EDA005623801F7554FF75550F75562780147554
:100EEA0054FF75550F75562B80097554FF75550FAC
:090EFA0075562FAB54AA55A956F8
:010F030022CB
:100D1700EE6003020DDEEF14B40C004003020DDE9B
:100D2700900D3575F003A4C58325F0C58373020DB7
:100D370059020D65020D70020D7B020D86020D91A1
:100D4700020D9C020DA7020DB2020DBD020DC802D5
:100D57000DD3756BFF756C0F756D33020DE7756BF2
:100D6700FF756C0F756D378077756BFF756C0F7539
:100D77006D3B806C756BFF756C0F756D4180617590
:100D87006BFF756C0F756D478056756BFF756C0F34
:100D9700756D4B804B756BFF756C0F756D50804093
:100DA700756BFF756C0F756D558035756BFF756CC1
:100DB7000F756D59802A756BFF756C0F756D5E80A9
:100DC7001F756BFF756C0F756D628014756BFF7502
:100DD7006C0F756D668009756BFF756C0F756D2FE0
:060DE700AB6BAA6CA96DC4
:010DED0022E3
:061010008B548A5589563D
:1010160090000A120BE8FFAEF0120D178B738A745C
:101026008975756EFF756F0F75706AAB54AA55A9F1
:1010360056900008120BE8F57285F07190000C12BC
:101046000BE8F57785F0767B007A00795712085C15
:061056007B007A007957CF
:01105C002271
:0312F1000212DD09
:0411B200AD07AC06D3
:1011B600E4FFFE1212E27FD01211381212C47FD160
:1011C60012113D7F0112118C7E001211F70212CD11
:06105D008B548A558956F0
:10106300E4F557F558AF58AE571211B2AD07E5582E
:1010730025E0FFE55733AB54AA55A9568F82F58374
:10108300EE8DF0120C200558E55870020557C394F5
:0910930007E5576480948040CC0D
:01109C002231
:10126B00AB07AA061212E27FD012113DAF03121187
:04127B00380212CD56
:100F8B001212521212F17B007A00792212105D7B41
:100F9B00007A00792212109D8B718A728973756E9B
:100FAB00FF756F0F7570777B007A00793612085CCE
:100FBB007B007A007936E4FDFF1210DAAF29AE28F8
:100FCB00120E7AC003C002C0017B007A0079221294
:100FDB0010108B748A758976D001D002D0038B7177
:100FEB008A728973756EFF756F0F75707F7B007AD0
:100FFB0000793612085C7B007A007936E4FD7F01BC
:05100B001210DA8081E3
:100DFA00020F8BE493A3F8E493A34003F68001F275
:100E0A0008DFF48029E493A3F85407240CC8C333F9
:100E1A00C4540F4420C8834004F456800146F6DFC8
:100E2A00E4800B01020408102040809012D6E47E70
:100E3A00019360BCA3FF543F30E509541FFEE493BD
:100E4A00A360010ECF54C025E060A840B8E493A384
:100E5A00FAE493A3F8E493A3C8C582C8CAC583CAAF
:100E6A00F0A3C8C582C8CAC583CADFE9DEE780BE67
:0112DC000011
:100B5C00BB010689828A83E0225002E722BBFE0297
:090B6C00E32289828A83E49322CA
:100B7500EF8DF0A4A8F0CF8CF0A428CE8DF0A42E94
:020B8500FE224E
:100B8700C2D5EC30E709B2D5E4C39DFDE49CFCEE89
:100B970030E715B2D5E4C39FFFE49EFE120C8CC369
:100BA700E49DFDE49CFC8003120C8C30D507C3E464
:060BB7009FFFE49EFE22F8
:100BBD00BB010A89828A83E0F5F0A3E02250068703
:100BCD00F009E71922BBFE07E3F5F009E3192289C5
:0B0BDD00828A83E493F5F074019322F8
:100BE800BB0110E58229F582E5833AF583E0F5F04B
:100BF800A3E0225009E92582F886F008E622BBFE28
:100C08000AE92582F8E2F5F008E222E5832AF5836D
:080C1800E993F5F0A3E9932232
:100C2000F8BB0111E58229F582E5833AF583E8F006
:100C3000E5F0A3F0225009E92582C8F608A6F022C3
:0D0C4000BBFE09E92582C8F2E5F008F222AA
:10080000E57A246EF8E6057A22786B300702786E76
:10081000E475F001120CE1020B5C2000EB7F2ED29C
:10082000008018EF540F2490D43440D4FF30040BD0
:10083000EF24BFB41A0050032461FFE57B6002156A
:100840007B057EE57E7002057D30070D786BE475D3
:10085000F001120CE1EF020C7A0211657403D20769
:100860008003E4C207F57A8B6B8A6C896DE4F57BB3
:10087000F57DF57EE57B60077F2012083B80F575EE
:100880007CFFC201C200C202C203C205C206C20886
:10089000120809FF700D3007057F0012084CAF7E6B
:1008A000AE7D22B4255FC2D5C204120809FF24D050
:1008B000B40A00501A75F00A787B30D50508B6FFE7
:1008C0000106C6A426F620D5047002D20380D924DE
:1008D000CFB41A00EF5004C2E5D204020A4CD20190
:1008E00080C6D20080C0D20280BCD2D580BAD205E8
:1008F00080B47F2012083B2002077401B57B0040C2
:10090000F1120800FF12083B020874D208D20680D8
:1009100095120800FB120800FA120800F94A4B7001
:1009200006791D7A0B7BFF20022EE57B602A7E0074
:100930008E82758300120C4D60060EEE657C70F0A1
:10094000C2D5EBC0E0EAC0E0E9C0E0EE120A93D005
:10095000E0F9D0E0FAD0E0FB120B5CFF60AAEBC03C
:10096000E0EAC0E0E9C0E012083BD0E02401F9D0A1
:10097000E03400FAD0E0FBE57C0460DCD57CD98073
:10098000877BFF7A0A798FD202809C791080027966
:1009900008C206C2088008D2D5790A8004790AC242
:1009A000D5E57C047002F57CE4FAFDFEFF12080038
:1009B000FC7B08200113120800FD7B1030000A1296
:1009C0000800FE120800FF7B20EC3382D592D55040
:1009D00013C3E43000069FFFE49EFEE42001039D64
:1009E000FDE49CFCE4CBF8C201EC700CCFCECDCC86
:1009F000E824F8F870F38017C3EF33FFEE33FEED11
:100A000033FDEC33FCEB33FB994002FB0FD8E9EBF1
:100A1000300105F8D0E0C448B201C0E00AEC4D4E08
:100A20004F78207B0070C2EAB57C0040BCC0E01269
:100A30000A95D0F0D0E0200104C4C0E0C4B201C0E7
:100A4000F0120824D0F0D5F0EB020874120CF10972
:100A50001153098B5808E24C08DE42098F4F099761
:0F0A60004409974908F743099D550981460981C3
:100A6F00450981470B3D5008E62D08EA2E090D2B4D
:100A7F0008EE23090B200B262A08A64800000905BB
:100A8F003F3F3F00790AA2D5200314300509B91062
:100A9F00020404B9080104A2D52006025001042063
:100AAF0002689202B57B005034C0E07F20300319FA
:100ABF007F30A20272067205500F120AECC202C2F8
:100ACF0006C205C2087F30800F300503E9C0E0126F
:100ADF00083B300503D0E0F9D0E0B57BCC300517EB
:100AEF007F30B9100C12083B7F583004077F788095
:100AFF0003B9080312083B3002057F2D02083B7F24
:100B0F00202008F87F2B2006F322920280CF286E38
:100B1F00756C6C2900D2011208003001F8C20178FF
:100B2F007B30D50108F60208A62D5043495812080C
:100B3F00002403B405004001E4900B389312082CF5
:0D0B4F00743A12082CD203757B0402098B46
:100C4D00BB010CE58229F582E5833AF583E022505C
:100C5D0006E92582F8E622BBFE06E92582F8E222A6
:0D0C6D00E58229F582E5833AF583E49322C0
:100C7A00BB010689828A83F0225002F722BBFE0159
:020C8A00F32253
:100C8C00BC000BBE0029EF8DF084FFADF022E4CC4C
:100C9C00F875F008EF2FFFEE33FEEC33FCEE9DEC15
:100CAC00984005FCEE9DFE0FD5F0E9E4CEFD22ED5B
:100CBC00F8F5F0EE8420D21CFEADF075F008EF2FA5
:100CCC00FFED33FD4007985006D5F0F222C398FD96
:050CDC000FD5F0EA2233
:100CE100FAE6FB0808E6F925F0F618E6CA3AF62214
:100CF100D083D082F8E4937012740193700DA3A392
:100D010093F8740193F5828883E4737402936860A5
:060D1100EFA3A3A380DFA5
:10116500EFB40A07740D121170740A309811A8991A
:10117500B8130CC2983098FDA899C298B811F630EA
:0711850099FDC299F59922C2
:00000001FF
