:0300000002120ADF
:0C120A00787FE4F6D8FD75816502125172
:101458004453313632310054656D70723A20253369
:071468002E326625634300EC
:0914EA00042780C094D401229073
:05151300D281D280220C
:05151800C281C2802227
:0914F400D281D280C281C28022A3
:0914FD00C280C281D280D281229A
:0C14C800EF24FF9281D280C280D28122EA
:0A132B00AC07121518121335AF05B8
:10133500E4FEA806EF088002C333D8FC30E703D3E8
:101345008001C39281D280C2800EBE08E5E4FF12FF
:0713550014C8A281E433FF7C
:01135C00226E
:1013DD00E4FEFDD280A281E433FCC374079DFBF8CB
:1013ED00EC088002C333D8FC2EFEC2800DBD08E38D
:0513FD001214C8AF0648
:0114020022C7
:0C14D4008F4A1214837DEEAF4A02150D02
:101483001215181213357FAC1213357F0212133560
:031493000214FD43
:06150D0012132D0214FD73
:10146F0012132B1214F4EC04FF1213357F01121315
:04147F00DD0214FD79
:1014A900AE0712132DAF02121335AF031213350213
:0214B90014FD20
:10138C0012132B1214F4EC04FF121335E4FF121396
:10139C00DD8F4B7F011213DD8F4A1214FDE54BFEDE
:0913AC007C00E4254AFFEC3EFE42
:0113B5002215
:0412F6008E4A8F4B42
:1012FA00E54AFD3395E0FC1208FD8F4F8E4E8D4D69
:10130A008C4CE54B30E711E4FFFEFD7C3FAB4FAA66
:10131A004EA94DA84C020807AF4FAE4EAD4DAC4C8E
:01132A0022A0
:10140300D3EF9400EE940040147D7D7C00ED1D70BD
:0D141300011CED4C70F7EF1F70E61E80E32A
:0114200022A9
:0A14E000EFD3940040031F80F722B1
:071506008F49E4FF0214BB52
:0D14BB00AD07121518AF491213300214FDD1
:10143E001215131215067F021215227F281215227D
:0A144E007F0C1215227F0102152207
:05151D00D20902149642
:05152200C2090214964D
:101496008F4DE54D54F0FF121421E54DC454F0FF75
:0314A6000214210C
:10135D008B4A8A4B894C74272FF8E62DFF121522E4
:10136D00AB4AAA4BA94C120CFF6013054CE54C700F
:0F137D0002054B14F9120CFFFF12151D80E2221E
:10142100AB07A209E4334203EB4404FF1214BB7F70
:0D143100057E00121403EB54FBFF0214BBF8
:101296007F4E12143EAF221214D47BFF7A14795873
:1012A6007D05E4FF12135D7DAAAF2212138CAC06F6
:1012B600AD07EC1208FD8F268E258D248C2312098E
:1012C600361212F68F538E528D518C50754DFF7516
:1012D6004E14754F5F7554DF7B007A00792B120D23
:1012E600F77B007A00792BE4FD7F0112135D80B74E
:100800000209A2E86480F8E933E83360110460F07B
:10081000ED33EC337009E8FCE9FDEAFEEBFF22045E
:1008200060DED3EB9FEA9EE99DE8C2E78CF0C2F759
:1008300095F0400CE8CCF8E9CDF9EACEFAEBCFFB25
:1008400012096D85D0F05804700320D5B3E8047008
:10085000075002B2D50209AC92D5EC0460F7E4CCA3
:10086000C0E0C398F8603B94186008400DD0E0FBEE
:10087000020984E4FBFAC9FC8028E830E406E4C9F4
:10088000FBE4CAFCE830E305E4C9CACBFCE8540742
:100890006010F8C3E913F9EA13FAEB13FBEC13FC4D
:1008A000D8F130F52FC3E49CFCEF9BFFEE9AFEEDF0
:1008B00099FDD0E0FBEF4E4D4C701222DB03020994
:1008C000A9EC2CFCEF33FFEE33FEED33FDED30E70A
:1008D000EB020984EF2BFFEE3AFEED39FDD0E0FB91
:1008E00050130BBB00030209ACED13FDEE13FEEF3A
:0808F00013FFEC13FC02098464
:1008F80075F020800E75F010800575F0087D007E7B
:10090800007F003392D530D503120D57EC334010D9
:10091800EF33FFEE33FEED33FDEC33FCD5F0ED2283
:0E092800E5F0247EA2D513CC92E7CDCEFF22BF
:10093600EDD2E7CD33EC3392D524814006E4FFFEB9
:10094600FDFC22FCE4CFCECDCC24E0501174FF8018
:10095600EDC3CC13CCCD13CDCE13CECF13CF0470B5
:07096600F030D5DE020D5751
:100D9B00E561244DF8E6056122784A300702784D6B
:100DAB00E475F001120D65020CFF2000EB7F2ED2D3
:100DBB00008018EF540F2490D43440D4FF30040B30
:100DCB00EF24BFB41A0050032461FFE562600215E3
:100DDB00620565E5657002056430070D784AE475B8
:100DEB00F001120D65EF020D450213B67403D20725
:100DFB008003E4C207F5618B4A8A4B894CE4F562A8
:100E0B00F564F565E56260077F20120DD680F575F8
:100E1B0063FFC201C200C202C203C205C206C208FE
:100E2B00120DA4FF700D3007057F00120DE7AF65A3
:100E3B00AE6422B4255FC2D5C204120DA4FF24D028
:100E4B00B40A00501A75F00A786230D50508B6FF5F
:100E5B000106C6A426F620D5047002D20380D9243D
:100E6B00CFB41A00EF5004C2E5D2040210D4D20161
:100E7B0080C6D20080C0D20280BCD2D580BAD20547
:100E8B0080B47F20120DD62002077401B56200409A
:100E9B00F1120D9BFF120DD6020E0FD208D2068057
:100EAB0095120D9BFB120D9BFA120D9BF94A4B7081
:100EBB000679CB7A117BFF20022EE562602A7E0039
:100ECB008E82758300120D1860060EEE656370F04E
:100EDB00C2D5EBC0E0EAC0E0E9C0E0EE121134D0BD
:100EEB00E0F9D0E0FAD0E0FB120CFFFF60AAEBC0F8
:100EFB00E0EAC0E0E9C0E0120DD6D0E02401F9D061
:100F0B00E03400FAD0E0FBE5630460DCD563D98004
:100F1B0087D20280A212111760F7E56370010412E9
:100F2B0009B7A963600DE563600914F5631211BE7F
:100F3B00EF60F3EA30E702F404C3995077EAF42543
:100F4B00630430E701E404F563800D12111760C1EF
:100F5B00EA056325631209B7EA7860F630E701E426
:100F6B00256304D5630420050114121134E4C0E099
:100F7B001211BE7860E6601320E70714F6120DBE5F
:100F8B00802204F6D0E014C0E07F00120DBEE563B2
:100F9B006007120DB51563800B300503120DB5D02C
:100FAB00E0020E0FD0E00480C512111760A0E563BC
:100FBB00041209B77860EAF6E563200502600104C4
:050FCB002404121134A2
:100FD00074FF04C0E01211BE120DBEE563200502CD
:100FE0006003120DB5D0E0B563E87F45120DC878F7
:100FF00060E67F2B30E7047F2DF404C0E0120DD6AD
:10100000D0E075F00A84C0F0120DBFD0E0120DBF21
:10101000020E0F791080027908C206C2088008D239
:10102000D5790A8004790AC2D5E563047002F563B4
:10103000E4FAFDFEFF120D9BFC7B08200113120D4C
:101040009BFD7B1030000A120D9BFE120D9BFF7B57
:1010500020EC3382D592D55013C3E43000069FFFB5
:10106000E49EFEE42001039DFDE49CFCE4CBF8C279
:1010700001EC700CCFCECDCCE824F8F870F38017DB
:10108000C3EF33FFEE33FEED33FDEC33FCEB33FB0C
:10109000994002FB0FD8E9EB300105F8D0E0C448D5
:1010A000B201C0E00AEC4D4E4F78207B0070C2EADE
:1010B000B5630040BCC0E0121136D0F0D0E0200192
:1010C00004C4C0E0C4B201C0F0120DBFD0F0D5F02E
:1010D000EB020E0F120D750EAC531013580E7D4C13
:1010E0000E794210174F101F44101F490E924310E3
:1010F00025550F56460FB4450F204711EB500E8172
:101100002D0E852E0EA82B0E89230EA62011D42A73
:101110000E414800000EA0E563B4FF03756306129C
:101120000D9BFC120D9BFD120D9BFE120D9BFF787B
:10113000590209E6790AA2D5200314300509B9102D
:10114000020404B9080104A2D520060250010420BB
:1011500002689202B562005034C0E07F203003196B
:101160007F30A20272067205500F12118DC202C2A8
:1011700006C205C2087F30800F300503E9C0E012C7
:101180000DD6300503D0E0F9D0E0B562CC300517BC
:101190007F30B9100C120DD67F583004077F78804D
:1011A00003B90803120DD63002057F2D020DD67F3C
:1011B000202008F87F2B2006F322920280CF7F00A8
:1011C000B4070050052459F8E6FF22286E756C6CB0
:1011D0002900D201120D9B3001F8C201786230D58E
:1011E0000108F6020E412D50434958120D9B24036D
:1011F000B405004001E49011E693120DC7743A1251
:0A1200000DC7D2037562040210133B
:10096D00E9D2E7C933E833F892D5EDD2E7CD33ECD0
:07097D0033FC5002B2D52249
:10098400EC30E7100FBF000C0EBE00080DBD0004D4
:100994000BEB6014A2D5EB13FCED92E7FD2274FF80
:1009A400FCFDFEFF22E480F8A2D574FF13FC7D80D9
:0309B400E480EFED
:1009B700F920E72824F950037907E4F42402FB1807
:1009C700DBFDE624FB5014E9600DE4F618E604F6B7
:0F09D700B40A08E4F6D9F57401F60A22C2D52253
:1009E600ED33EC3392D5FA602AB4FF33EDC2E77BE0
:1009F600FF60067A0A790BE4227A0A791420D50474
:100A06007A0A790F224E614E002B494E46002D4937
:100A16004E4600E47A08F608DAFC7B00740722E802
:100A2600C0E0ECC0E0EDC0E0EEC0E0EFC0E0EA758B
:100A3600F010A4CAABF075F04DA42BFBE435F0FC26
:100A4600EA2410FAEB34C5FBEC34D9FCEDC2E7FF1F
:100A560075F056A4F42411C5F0F434C58FF0A42A19
:100A6600E5F03BE43CF620E714120CBFD0E0FFD0E3
:100A7600E0FED0E0FDD0E0FC120BF28014F404128C
:100A86000CBFD0E0FFD0E0FED0E0FDD0E0FC120AC3
:100A9600E9D0E0F8E6FAEDD2E7CD33EC332482FB79
:100AA600E4C3CF33CFCE33CECD33CD33DBF37B07A9
:100AB60075F00A846004F6081B0AE5F0F6088FF064
:100AC600740AA4FFACF08EF0740AA42CFEACF050AD
:100AD600010C8DF0740AA42CFDE435F0F608DBDE7B
:030AE60074072270
:100AE900EC4D6011E8497017ED33EC3304600DE407
:100AF900FCFFFEFD22E933E8330470F80209A21273
:100B0900096D58046009E4CC248150062850090273
:100B190009AC2840030209A9C0E0EB4A7044B98036
:100B290006D0E0FB020998EF4E701CBD8008EBFF70
:100B3900EAFEE9FD80EBE98DF0A4FEE5F0020BD2B7
:100B4900E9CDF9EAFEEBFFEF89F0A4FCE5F0CE89E7
:100B5900F0A42EFFE435F0CD89F0A42DFEE435F0A4
:100B69008067EF4E7005BD80D780C3EF8BF0A4ACD2
:100B7900F0EE8BF0A42CFCE435F0F8EF8AF0A42C0D
:100B8900E5F038FCE433CB8DF0A42CFCE5F03BF820
:100B9900EE8AF0A42CFCE5F038F8E433CF89F0A410
:100BA9002CFCE5F038CF3400CE89F0A42FFFE5F016
:100BB9003EFEE433C98DF0A42EFEE5F039CD8AF06E
:100BC900A42FFFE5F03EFEE43DFD33D0E0FB5007E6
:100BD9000BBB000F0209ACEC2CFCEF33FFEE33FE2C
:060BE900ED33FD0209845A
:100BEF000209ACEC5D046005E8590470030209A228
:100BFF0012096D580460F6EC4860F2EC7004FDFECB
:100C0F00FF22C860DB2481C85009C39860025006D8
:100C1F000209A99850CAF582E9294B4A7005AB829F
:100C2F0002099875F0007C1A7880C3EF9BEE9AED5D
:100C3F0099400DC3EF9BFFEE9AFEED99FDE842F050
:100C4F00DC23ACF0D0E0FFD0E0FED0E0FDAB8220A3
:100C5F00E7101BEB60BAEC2CFCEF33FFEE33FEED2D
:100C6F0033FD020984E803F830E705C0F075F000A2
:100C7F00EF2FFFEE33FEED33FD40B830E7C280AA11
:100C8F003F8000004120000042C80000447A00006D
:100C9F00461C400047C35000497424004B189680EF
:100CAF004CBEBC205A0E1BCA6753C21C749DC5AEE6
:100CBF00FB60065407601C2323120CEDEB543860C5
:100CCF0009120CD9120CE8120AE9ECF8EDF9EEFA58
:100CDF00EFCB22EB120CE880F1543803241C900C5C
:100CEF008FFE93FC0EEE93FD0EEE930ECE93FF222E
:10121600021296E493A3F8E493A34003F68001F246
:1012260008DFF48029E493A3F85407240CC8C333D9
:10123600C4540F4420C8834004F456800146F6DFA8
:10124600E4800B01020408102040809014EAE47E3A
:10125600019360BCA3FF543F30E509541FFEE4939D
:10126600A360010ECF54C025E060A840B8E493A364
:10127600FAE493A3F8E493A3C8C582C8CAC583CA8F
:10128600F0A3C8C582C8CAC583CADFE9DEE780BE47
:0114F30000F8
:100CFF00BB010689828A83E0225002E722BBFE02F3
:090D0F00E32289828A83E4932225
:100D1800BB010CE58229F582E5833AF583E0225090
:100D280006E92582F8E622BBFE06E92582F8E222DA
:0D0D3800E58229F582E5833AF583E49322F4
:100D4500BB010689828A83F0225002F722BBFE018D
:020D5500F32287
:0E0D5700C3E49FFFE49EFEE49DFDE49CFC22AD
:100D6500FAE6FB0808E6F925F0F618E6CA3AF6228F
:100D7500D083D082F8E4937012740193700DA3A30D
:100D850093F8740193F5828883E473740293686021
:060D9500EFA3A3A380DF21
:1013B600EFB40A07740D1213C1740A309811A89974
:1013C600B8130CC2983098FDA899C298B811F63097
:0713D60099FDC299F599226F
:00000001FF
