:03000000020800F3
:0C080000787FE4F6D8FD75811A020847E5
:100A17004275677A2042656E7363650032303235FE
:010A270000CE
:060A3400041780C094D4F9
:1009AA00E4FDFCC3ED9FEE6480F8EC64809850157A
:1009BA00E4FBFA0BBB00010AEB64644A70F50DBD57
:0509CA0000010C80DEBD
:0109CF002205
:1009EF007F02120A3B7F38120A3B7F0C120A3B7FB1
:0409FF0006020A3BA7
:050A3B00C280020A0365
:050A4000D280020A0350
:10097B008B088A09890A74172FF8E62DFF120A3B98
:10098B00AB08AA09A90A12088C6013050AE50A70BC
:0F099B0002050914F912088CFF120A4080E222AB
:020A0300AD073D
:100A05007B007A00790B1209447B007A00790B028E
:020A150008F4E3
:1008F40012088C24FF92A09000011208A524FF92F4
:10090400A19000021208A524FF92A29000031208ED
:10091400A524FF92A39000041208A524FF92A4909A
:1009240000051208A524FF92A59000061208A5242C
:10093400FF92A69000071208A524FF92A7020A2896
:080944008B138A1489158D162E
:10094C00E4FFA807E516088003A2E713D8FB30E004
:10095C00047E0180027E00AB13AA14A915EFFD33AF
:0E096C0095E08D82F583EE1208D20FBF08D4FD
:01097A00225A
:0C0A2800D2817F057E001209AAC2812243
:1009D0001209EF7BFF7A0A79177D01E4FF12097B88
:0F09E0007BFF7A0A79237D057F0112097B80E472
:10080C000209D0E493A3F8E493A34003F68001F229
:10081C0008DFF48029E493A3F85407240CC8C333ED
:10082C00C4540F4420C8834004F456800146F6DFBC
:10083C00E4800B0102040810204080900A34E47E0E
:10084C00019360BCA3FF543F30E509541FFEE493B1
:10085C00A360010ECF54C025E060A840B8E493A378
:10086C00FAE493A3F8E493A3C8C582C8CAC583CAA3
:10087C00F0A3C8C582C8CAC583CADFE9DEE780BE5B
:010A3A0000BB
:10088C00BB010689828A83E0225002E722BBFE026A
:09089C00E32289828A83E493229D
:1008A500BB010CE58229F582E5833AF583E0225008
:1008B50006E92582F8E622BBFE06E92582F8E22252
:0D08C500E58229F582E5833AF583E493226C
:1008D200F8BB010DE58229F582E5833AF583E8F05C
:1008E200225006E92582C8F622BBFE05E92582C808
:0208F200F222F0
:00000001FF
