:030000000211E00A
:0C11E000787FE4F6D8FD758161021227CB
:10149A002534690025352E3166003F065B4F666D9F
:1014AA007D077F6F2D20B0434625454F52004000EF
:0814BA00634E47674F1D05005A
:1015C40010493F0000003E8000003E0000003D80C6
:0515D40000000144903D
:10157300D3EF9400EE940040147D7D7C00ED1D704C
:0D158300011CED4C70F7EF1F70E61E80E3B9
:011590002238
:0A165D00EFD3940040031F80F72232
:05167F00D291D290227F
:05168400C291C290229A
:09166700D291D290C291C29022EE
:09167000C290C291D290D29122E5
:0C164500EF24FF9291D290C290D291222B
:08143E00121684121446AF05DA
:10144600E4FEA806EF088002C333D8FC30E703D3D6
:101456008001C39291D290C2900EBE08E5E4FF12BD
:071466001645A291E433FFDB
:01146D00225C
:1014E900E4FEFDD290A291E433FCC374079DFBF89E
:1014F900EC088002C333D8FC2EFEC2900DBD08E370
:05150900121645AF06BB
:01150E0022BA
:10160200AB05AA077F0A7E00121573AF02AD030273
:02161200163789
:0E1637001216841214467F011214410216701E
:02153200AD0703
:10153400E4FF121684AF051214467F0112144612FA
:101544001667ED04FF1214467F011214E9021670A7
:0B165100121532EF5460C4135407FF61
:01165C00226B
:10161400AE0712143EAF02121446AF031214460270
:0216240016703E
:02146E00AC07C9
:1014700012143E121667EC04FF121446E4FF121415
:10148000E98F237F011214E98F22121670E523FEE3
:091490007C00E42522FFEC3EFE85
:011499002230
:06126C008E228F238D2469
:10127200E522FD3395E0FC120A038F288E278D2686
:101282008C257E00E52354F0FF604DAB28AA27A9E8
:1012920026A825C000C001C002C003C3740795245C
:1012A200FDEFA805088006CEA2E713CE13D8F8FDFD
:1012B200AC06EC120A03E52425E025E02449F812E5
:1012C2000D2E1208F8D003D002D001D00012080768
:1012D2008F288E278D268C25AF28AE27AD26AC25EC
:0112E20022E9
:1015AC0012167F1216847F70121446E4FF12144632
:0815BC007F471214460216706D
:10155400752BFF752C14752D9A8E2E8F2F7B007A88
:0F156400007922120DCD7B007A0079220215EF5B
:10150F00752BFF752C14752D9E8F318E308D2F8C72
:10151F002E7B007A007908120DCD7B007A007908B6
:03152F000215EFB3
:1015EF001216847F701214467F011214461212E3F2
:0315FF0002167061
:0612E3008B288A29892AEC
:1012E900E4F52B752C2EAD2C121380EF14F52DABD4
:1012F90028AA29A92A1215918B288A29892AAB2873
:09130900AA29A92A120CC8601FD0
:10131200E52A152A70021529F9120CC8F52E652C3A
:0D13220060E3AF2B052BAB2EAD2D1216791D
:02132F0080D666
:011331002299
:061679001213C502144625
:0613C5008F2F8D30AF03F5
:1013CB00E4F531EFC39430401AEFD394395014EF56
:1013DB003395E0FE74742FF58274143EF583E49319
:1013EB00FF80031213328F31E530F4600AE52FB51D
:0913FB003005EF2480FF22AF3120
:0114040022C5
:021332008F32F8
:10133400E4F533F534AF33EF3395E0FE74AE2FF5B7
:101344008274143EF583E493602FAF32121626E5BF
:1013540033FD3395E0FC74AE2DF58274143CF583B3
:10136400E493B5071074B82DF58274143CF583E446
:0B13740093F5348004053380BCAF34D7
:01137F00224B
:081380008B2F8A3089318D3278
:10138800E4F5337534FFF533AB2FAA30A9311215C4
:10139800DAAD33ED3395E0FCC3ED9FEC9E501BAB0B
:1013A8002FAA30A9318D828C83120CE1B53207E562
:0C13B8003314F5348004053380CEAF34CC
:0113C4002206
:061591008B2F8A30893126
:101597001215DAEF14FFAB2F3395E0FEE5312FF983
:0415A700E5303EFAF3
:0115AB00221D
:101405001215ACE4FDAF44121602AF441216518F0B
:1014150061E4FDAF4412146E8E598F5AAD611212FC
:101425006C8F488E478D468C457F047E001215547F
:091435007F647E0012157380D85B
:10080000020A71E86480F8E933E83360110460F0AB
:10081000ED33EC337009E8FCE9FDEAFEEBFF22045E
:1008200060DED3EB9FEA9EE99DE8C2E78CF0C2F759
:1008300095F0400CE8CCF8E9CDF9EACEFAEBCFFB25
:10084000120A3C85D0F05804700320D5B3E8047038
:10085000075002B2D5020A7B92D5EC0460F7E4CCD3
:10086000C0E0C398F8603B94186008400DD0E0FBEE
:10087000020A53E4FBFAC9FC8028E830E406E4C924
:10088000FBE4CAFCE830E305E4C9CACBFCE8540742
:100890006010F8C3E913F9EA13FAEB13FBEC13FC4D
:1008A000D8F130F52FC3E49CFCEF9BFFEE9AFEEDF0
:1008B00099FDD0E0FBEF4E4D4C701222DB03020A93
:1008C00078EC2CFCEF33FFEE33FEED33FDED30E73B
:1008D000EB020A53EF2BFFEE3AFEED39FDD0E0FBC1
:1008E00050130BBB0003020A7BED13FDEE13FEEF6A
:0808F00013FFEC13FC020A5394
:1008F800EC4D6011E8497017ED33EC3304600DE4FA
:10090800FCFFFEFD22E933E8330470F8020A711295
:100918000A3C58046009E4CC248150062850090296
:100928000A7B284003020A78C0E0EB4A7044B98089
:1009380006D0E0FB020A67EF4E701CBD8008EBFF93
:10094800EAFEE9FD80EBE98DF0A4FEE5F00209E19D
:10095800E9CDF9EAFEEBFFEF89F0A4FCE5F0CE89DA
:10096800F0A42EFFE435F0CD89F0A42DFEE435F097
:100978008067EF4E7005BD80D780C3EF8BF0A4ACC5
:10098800F0EE8BF0A42CFCE435F0F8EF8AF0A42C00
:10099800E5F038FCE433CB8DF0A42CFCE5F03BF813
:1009A800EE8AF0A42CFCE5F038F8E433CF89F0A403
:1009B8002CFCE5F038CF3400CE89F0A42FFFE5F009
:1009C8003EFEE433C98DF0A42EFEE5F039CD8AF061
:1009D800A42FFFE5F03EFEE43DFD33D0E0FB5007D9
:1009E8000BBB000F020A7BEC2CFCEF33FFEE33FE4F
:0609F800ED33FD020A537D
:1009FE0075F020800E75F010800575F0087D007E74
:100A0E00007F003392D530D503120D20EC33401009
:100A1E00EF33FFEE33FEED33FDEC33FCD5F0ED227C
:0E0A2E00E5F0247EA2D513CC92E7CDCEFF22B8
:100D7100E53F242BF8E6053F227828300702782B3F
:100D8100E475F001120D3B020CC82000EB7F2ED25E
:100D9100008018EF540F2490D43440D4FF30040B5A
:100DA100EF24BFB41A0050032461FFE5406002152F
:100DB100400543E5437002054230070D7828E4758C
:100DC100F001120D3BEF020D0E0214C27403D207A3
:100DD1008003E4C207F53F8B288A29892AE4F5407C
:100DE100F542F543E54060077F20120DAC80F575B3
:100DF10041FFC201C200C202C203C205C206C2084B
:100E0100120D7AFF700D3007057F00120DBDAF4343
:100E1100AE4222B4255FC2D5C204120D7AFF24D09E
:100E2100B40A00501A75F00A784030D50508B6FFAB
:100E31000106C6A426F620D5047002D20380D92467
:100E4100CFB41A00EF5004C2E5D2040210AAD201B5
:100E510080C6D20080C0D20280BCD2D580BAD20571
:100E610080B47F20120DAC2002077401B540004010
:100E7100F1120D71FF120DAC020DE5D208D2068000
:100E810095120D71FB120D71FA120D71F94A4B7029
:100E91000679A17A117BFF20022EE540602A7E00AF
:100EA1008E82758300120CE160060EEE654170F0D2
:100EB100C2D5EBC0E0EAC0E0E9C0E0EE12110AD011
:100EC100E0F9D0E0FAD0E0FB120CC8FF60AAEBC059
:100ED100E0EAC0E0E9C0E0120DACD0E02401F9D0B5
:100EE100E03400FAD0E0FBE5410460DCD541D98073
:100EF10087D20280A21210ED60F7E5417001041261
:100F01000A86A941600DE541600914F54112119469
:100F1100EF60F3EA30E702F404C3995077EAF4256D
:100F2100410430E701E404F541800D1210ED60C188
:100F3100EA05412541120A86EA783EF630E701E4E6
:100F4100254104D541042005011412110AE4C0E031
:100F5100121194783EE6601320E70714F6120D94FF
:100F6100802204F6D0E014C0E07F00120D94E54128
:100F71006007120D8B1541800B300503120D8BD0CC
:100F8100E0020DE5D0E00480C51210ED60A0E5415E
:100F910004120A86783EEAF6E54120050260010462
:050FA100240412110AF6
:100FA60074FF04C0E0121194120D94E5412005026D
:100FB6006003120D8BD0E0B541E87F45120D9E7897
:100FC6003EE67F2B30E7047F2DF404C0E0120DAC23
:100FD600D0E075F00A84C0F0120D95D0E0120D95A0
:100FE600020DE5791080027908C206C2088008D28F
:100FF600D5790A8004790AC2D5E541047002F54123
:10100600E4FAFDFEFF120D71FC7B08200113120DA0
:1010160071FD7B1030000A120D71FE120D71FF7BFF
:1010260020EC3382D592D55013C3E43000069FFFDF
:10103600E49EFEE42001039DFDE49CFCE4CBF8C2A3
:1010460001EC700CCFCECDCCE824F8F870F3801705
:10105600C3EF33FFEE33FEED33FDEC33FCEB33FB36
:10106600994002FB0FD8E9EB300105F8D0E0C448FF
:10107600B201C0E00AEC4D4E4F78207B0070C2EA08
:10108600B5410040BCC0E012110CD0F0D0E0200108
:1010960004C4C0E0C4B201C0F0120D95D0F0D5F082
:1010A600EB020DE5120D4B0E82530FE9580E534C11
:1010B6000E4F420FED4F0FF5440FF5490E68430FE3
:1010C600FB550F2C460F8A450EF64711C1500E5799
:1010D6002D0E5B2E0E7E2B0E5F230E7C2011AA2A70
:1010E6000E174800000E76E541B4FF03754106125F
:1010F6000D71FC120D71FD120D71FE120D71FF784E
:1011060037020AB5790AA2D5200314300509B910A9
:10111600020404B9080104A2D520060250010420E5
:1011260002689202B540005034C0E07F20300319B7
:101136007F30A20272067205500F121163C202C2FC
:1011460006C205C2087F30800F300503E9C0E012F1
:101156000DAC300503D0E0F9D0E0B540CC30051732
:101166007F30B9100C120DAC7F583004077F7880A1
:1011760003B90803120DAC3002057F2D020DAC7FBA
:10118600202008F87F2B2006F322920280CF7F00D2
:10119600B4070050052437F8E6FF22286E756C6CFC
:1011A6002900D201120D713001F8C201784030D504
:1011B6000108F6020E172D50434958120D712403EB
:1011C600B405004001E49011BC93120D9D743A12CF
:0A11D6000D9DD203754004020FE9DD
:100A3C00E9D2E7C933E833F892D5EDD2E7CD33EC00
:070A4C0033FC5002B2D52279
:100A5300EC30E7100FBF000C0EBE00080DBD000404
:100A63000BEB6014A2D5EB13FCED92E7FD2274FFB0
:100A7300FCFDFEFF22E480F8A2D574FF13FC7D8009
:030A8300E480EF1D
:100A8600F920E72824F950037907E4F42402FB1837
:100A9600DBFDE624FB5014E9600DE4F618E604F6E7
:0F0AA600B40A08E4F6D9F57401F60A22C2D52283
:100AB500ED33EC3392D5FA602AB4FF33EDC2E77B10
:100AC500FF60067A0A79DAE4227A0A79E320D50406
:100AD5007A0A79DE224E614E002B494E46002D4999
:100AE5004E4600E47A08F608DAFC7B00740722E833
:100AF500C0E0ECC0E0EDC0E0EEC0E0EFC0E0EA75BC
:100B0500F010A4CAABF075F04DA42BFBE435F0FC56
:100B1500EA2410FAEB34C5FBEC34D9FCEDC2E7FF4F
:100B250075F056A4F42411C5F0F434C58FF0A42A49
:100B3500E5F03BE43CF620E714120C88D0E0FFD04A
:100B4500E0FED0E0FDD0E0FC120BBB8014F40412F3
:100B55000C88D0E0FFD0E0FED0E0FDD0E0FC12082C
:100B6500F8D0E0F8E6FAEDD2E7CD33EC332482FB9A
:100B7500E4C3CF33CFCE33CECD33CD33DBF37B07D9
:100B850075F00A846004F6081B0AE5F0F6088FF094
:100B9500740AA4FFACF08EF0740AA42CFEACF050DD
:100BA500010C8DF0740AA42CFDE435F0F608DBDEAB
:030BB500740722A0
:100BB800020A7BEC5D046005E859047003020A71BF
:100BC800120A3C580460F6EC4860F2EC7004FDFE32
:100BD800FF22C860DB2481C85009C3986002500610
:100BE800020A789850CAF582E9294B4A7005AB8207
:100BF800020A6775F0007C1A7880C3EF9BEE9AEDC5
:100C080099400DC3EF9BFFEE9AFEED99FDE842F087
:100C1800DC23ACF0D0E0FFD0E0FED0E0FDAB8220DA
:100C2800E7101BEB60BAEC2CFCEF33FFEE33FEED64
:100C380033FD020A53E803F830E705C0F075F00009
:100C4800EF2FFFEE33FEED33FD40B830E7C280AA48
:100C58003F8000004120000042C80000447A0000A4
:100C6800461C400047C35000497424004B18968026
:100C78004CBEBC205A0E1BCA6753C21C749DC5AE1D
:100C8800FB60065407601C2323120CB6EB54386033
:100C980009120CA2120CB11208F8ECF8EDF9EEFAF0
:100CA800EFCB22EB120CB180F1543803241C900CCA
:100CB80058FE93FC0EEE93FD0EEE930ECE93FF229C
:1011EC00021405E493A3F8E493A34003F68001F200
:1011FC0008DFF48029E493A3F85407240CC8C33304
:10120C00C4540F4420C8834004F456800146F6DFD2
:10121C00E4800B01020408102040809015C4E47E89
:10122C00019360BCA3FF543F30E509541FFEE493C7
:10123C00A360010ECF54C025E060A840B8E493A38E
:10124C00FAE493A3F8E493A3C8C582C8CAC583CAB9
:10125C00F0A3C8C582C8CAC583CADFE9DEE780BE71
:0115D9000011
:100CC800BB010689828A83E0225002E722BBFE022A
:090CD800E32289828A83E493225D
:100CE100BB010CE58229F582E5833AF583E02250C8
:100CF10006E92582F8E622BBFE06E92582F8E22212
:0D0D0100E58229F582E5833AF583E493222B
:100D0E00BB010689828A83F0225002F722BBFE01C4
:020D1E00F322BE
:0E0D2000C3E49FFFE49EFEE49DFDE49CFC22E4
:0D0D2E00E6FB08E6F908E6FA08E6CBF82235
:100D3B00FAE6FB0808E6F925F0F618E6CA3AF622B9
:100D4B00D083D082F8E4937012740193700DA3A337
:100D5B0093F8740193F5828883E47374029368604B
:060D6B00EFA3A3A380DF4B
:1014C200EFB40A07740D1214CD740A309811A8995A
:1014D200B8130CC2983098FDA899C298B811F6308A
:0714E20099FDC299F5992262
:10162600EFC39461400AEF947B5005EF24E0FF225C
:011636002291
:1015DA00E4FFFE120CC8600C0FEF70010E09E970EF
:0515EA00F20A80EF226F
:00000001FF
