:030000000219FCE6
:0C19FC00787FE4F6D8FD75813D02187775
:1013270025352E316600000000000000005F000038
:101337000007000700147F147F14242A7F2A122332
:101347001308646236495522500005030000001C4B
:101357002241000041221C00082A1C2A0808083ED6
:10136700080800503000000808080808003030005E
:101377000020100804023E5149453E00427F4000CC
:1013870042615149462141454B311814127F1027BC
:10139700454545393C4A49493001710905033649F4
:1013A700494936064949291E003636000000563697
:1013B70000000008142241141414141441221408C4
:1013C700000201510906324979413E7E1111117E11
:1013D7007F494949363E414141227F4141221C7F95
:1013E700494949417F090901013E414151327F087D
:1013F70008087F00417F41002040413F017F0814DA
:1014070022417F404040407F0204027F7F04081052
:101417007F3E4141413E7F090909063E4151215E18
:101427007F09192946464949493101017F01013F91
:101437004040403F1F2040201F7F2018207F63141B
:101447000814630304780403615149454300007F8E
:101457004141020408102041417F000004020102BB
:101467000440404040400001020400205454547896
:101477007F484444383844444420384444487F38FB
:1014870054545418087E090102081454543C7F0828
:1014970004047800447D40002040443D00007F1054
:1014A700284400417F40007C041804787C08040429
:1014B7007838444444387C14141408081414187CED
:1014C7007C080404084854545420043F4440203CFA
:1014D7004040207C1C2040201C3C4030403C44289D
:1014E7001028440C5050503C4464544C4400083677
:0C14F700410000007F00000041360800AA
:0B1A0800C290C291D292C293C29422FD
:10199800E4FEC290A806EF088002C333D8FC30E703
:0D19A80003D38001C39291D2900EBE08E5DA
:0119B500220F
:10195700E4FFFEC290A292E433FDC374079EFCF835
:10196700ED088002C333D8FC2FFFD2900EBE08E3E8
:01197700224D
:1019B600D3EF9400EE940040147D7D7C00ED1D7005
:0D19C600011CED4C70F7EF1F70E61E80E372
:0119D30022F1
:0A1A1300EFD3940040031F80F72278
:1019D400D2947F801219987F10121998C2947F961E
:0519E4007E000219B6AF
:10197800D2947F021219981219578F231219578F70
:0F19880022C294E523FE7C00E42522FFEC3EFE04
:01199700222D
:1018AE008E228F23E4F52BF52AF529752841FFFEAC
:1018BE00FD7C40121638C004C005C006C007AC221D
:1018CE00AD23EC1208A5D003D002D001D00002083F
:0118DE000306
:1019E9008F22121A08E52260091522AF221218DF88
:0319F90080F32256
:1018DF008F23AB23E4FD7F0912193CAB237D057FDA
:1018EF000A12193CAB237D077F0B12193CAB237DEA
:0F18FF00017F0C12193CAB23E4FD7F0F02193C53
:07193500FFE52614FB7D60B5
:10193C008B29C293121998AF05121998AF29152942
:0B194C00EF6005121A1D80F4D29322F8
:0617E9008B228A238924F3
:0E17EF00E4F526AB22AA23A924120DF060799E
:1017FD000524E5247002052314F9120DF0F52724B4
:10180D00E0F528E4F525E527642E6037AF25EF33A5
:10181D0095E0FEAD28ED3395E0FC90132D75F005A8
:10182D00ED120E76EC75F005A42583F583E5822F78
:10183D00F582E5833EF583E493FDE52504FFAB26B4
:10184D0012193C0525C3E5256480948540B8E5272C
:10185D00B42E11E5252402121935E525240312199C
:06186D00350217F205260A
:031873000217F267
:01187600224F
:081A1D00E4FF12199802199868
:101877007F041219E91219D41219788E088F0912E8
:1018870018AE8F2B8E2A8D298C287525FF75261368
:101897007527277B007A00790A120F147B007A00DC
:0718A700790A1217E980D154
:1008000002091DEC5D046005E85904700302091338
:100810001208DE580460F6EC4860F2EC7004FDFE4D
:10082000FF22C860DB2481C85009C39860025006CB
:1008300002091A9850CAF582E9294B4A7005AB8221
:1008400002090975F0007C1A7880C3EF9BEE9AEDDF
:1008500099400DC3EF9BFFEE9AFEED99FDE842F043
:10086000DC23ACF0D0E0FFD0E0FED0E0FDAB822096
:10087000E7101BEB60BAEC2CFCEF33FFEE33FEED20
:1008800033FD0208F5E803F830E705C0F075F00025
:10089000EF2FFFEE33FEED33FD40B830E7C280AA04
:1008A00075F020800E75F010800575F0087D007ED3
:1008B000007F003392D530D503120E48EC33401040
:1008C000EF33FFEE33FEED33FDEC33FCD5F0ED22DC
:0E08D000E5F0247EA2D513CC92E7CDCEFF2218
:100EB800E5392425F8E60539227822300702782515
:100EC800E475F001120E82020DF02000EB7F2ED2A5
:100ED800008018EF540F2490D43440D4FF30040B12
:100EE800EF24BFB41A0050032461FFE53A600215ED
:100EF8003A053DE53D7002053C30070D7822E47562
:100F0800F001120E82EF020E3602190E7403D20798
:100F18008003E4C207F5398B228A238924E4F53A51
:100F2800F53CF53DE53A60077F20120EF380F57534
:100F38003BFFC201C200C202C203C205C206C20808
:100F4800120EC1FF700D3007057F00120F04AF3D70
:100F5800AE3C22B4255FC2D5C204120EC1FF24D014
:100F6800B40A00501A75F00A783A30D50508B6FF69
:100F78000106C6A426F620D5047002D20380D9241F
:100F8800CFB41A00EF5004C2E5D2040211F1D20125
:100F980080C6D20080C0D20280BCD2D580BAD20529
:100FA80080B47F20120EF32002077401B53A004086
:100FB800F1120EB8FF120EF3020F2CD208D20680DF
:100FC80095120EB8FB120EB8FA120EB8F94A4B7009
:100FD8000679E87A127BFF20022EE53A602A7E0025
:100FE8008E82758300120E0960060EEE653B70F066
:100FF800C2D5EBC0E0EAC0E0E9C0E0EE121251D081
:10100800E0F9D0E0FAD0E0FB120DF0FF60AAEBC0E7
:10101800E0EAC0E0E9C0E0120EF3D0E02401F9D024
:10102800E03400FAD0E0FBE53B0460DCD53BD98036
:1010380087D20280A212123460F7E53B70010412D5
:101048000C01A93B600DE53B600914F53B1212DB6E
:10105800EF60F3EA30E702F404C3995077EAF42525
:101068003B0430E701E404F53B800D12123460C103
:10107800EA053B253B120C01EA7838F630E701E433
:10108800253B04D53B0420050114121251E4C0E0AD
:101098001212DB7838E6601320E70714F6120EDB2D
:1010A800802204F6D0E014C0E07F00120EDBE53B9E
:1010B8006007120ED2153B800B300503120ED2D0FA
:1010C800E0020F2CD0E00480C512123460A0E53B8A
:1010D80004120C017838EAF6E53B200502600104A9
:0510E800240412125166
:1010ED0074FF04C0E01212DB120EDBE53B2005029B
:1010FD006003120ED2D0E0B53BE87F45120EE578C5
:10110D0038E67F2B30E7047F2DF404C0E0120EF398
:10111D00D0E075F00A84C0F0120EDCD0E0120EDCC7
:10112D00020F2C791080027908C206C2088008D2FD
:10113D00D5790A8004790AC2D5E53B047002F53BE6
:10114D00E4FAFDFEFF120EB8FC7B08200113120E0F
:10115D00B8FD7B1030000A120EB8FE120EB8FF7BE0
:10116D0020EC3382D592D55013C3E43000069FFF97
:10117D00E49EFEE42001039DFDE49CFCE4CBF8C25B
:10118D0001EC700CCFCECDCCE824F8F870F38017BD
:10119D00C3EF33FFEE33FEED33FDEC33FCEB33FBEE
:1011AD00994002FB0FD8E9EB300105F8D0E0C448B7
:1011BD00B201C0E00AEC4D4E4F78207B0070C2EAC0
:1011CD00B53B0040BCC0E0121253D0F0D0E020017E
:1011DD0004C4C0E0C4B201C0F0120EDCD0F0D5F0F2
:1011ED00EB020F2C120E920FC9531130580F9A4C5F
:1011FD000F964211344F113C44113C490FAF43112E
:10120D00425510734610D145103D471308500F9E9F
:10121D002D0FA22E0FC52B0FA6230FC32012F12ABF
:10122D000F5E4800000FBDE53BB4FF03753B061292
:10123D000EB8FC120EB8FD120EB8FE120EB8FF78E5
:10124D0031020C30790AA2D5200314300509B910EA
:10125D00020404B9080104A2D5200602500104209D
:10126D0002689202B53A005034C0E07F2030031975
:10127D007F30A20272067205500F1212AAC202C26C
:10128D0006C205C2087F30800F300503E9C0E012A9
:10129D000EF3300503D0E0F9D0E0B53ACC300517A8
:1012AD007F30B9100C120EF37F583004077F788011
:1012BD0003B90803120EF33002057F2D020EF37FE2
:1012CD00202008F87F2B2006F322920280CF7F008A
:1012DD00B4070050052431F8E6FF22286E756C6CBA
:1012ED002900D201120EB83001F8C201783A30D57A
:1012FD000108F6020F5E2D50434958120EB8240313
:10130D00B405004001E490130393120EE4743A12F5
:0A131D000EE4D203753A0402113009
:101638008F278E268D258C24E4FFFE7D807C3FAB92
:1016480027AA26A925A824120B407009AF27AE2681
:10165800AD25AC2422AF27AE26AD25AC241209282F
:10166800FBAF2BAE2AAD29AC28120928FFBF010811
:10167800E4FFFE7D807C3F22EF64046022EB64047B
:10168800601DBB0127E4FFFEFDFCAB2BAA2AA9299C
:10169800A828120B4060084006E4FFFEFDFC2274F7
:1016A800FFF52BF52AF529F528021746E4F52CF560
:1016B8002DFFFEFDFCAB27AA26A925A824120B4066
:1016C800504BAF2BAE2AAD29AC28120BCA8E2C8FEB
:1016D8002DAC2CAD2DEC1208A5C8ECC8C9EDC9CAB3
:1016E800EECACBEFCBAF2BAE2AAD29AC28120945F9
:1016F800E4FBFAF9F8120B4070A5AF27AE26AD252A
:10170800AC24120BB98F278E268D258C24AF27AEDB
:1017180026AD25AC24121537AB2BAA2AA929A8284F
:10172800120A3A1217878F2B8E2A8D298C28E52DBD
:1017380030E00B120BB98F2B8E2A8D298C28AF2BFA
:07174800AE2AAD29AC2822F6
:1008DE00E9D2E7C933E833F892D5EDD2E7CD33EC60
:0708EE0033FC5002B2D522D9
:1008F500EC30E7100FBF000C0EBE00080DBD000464
:100905000BEB6014A2D5EB13FCED92E7FD2274FF0F
:10091500FCFDFEFF22E480F8A2D574FF13FC7D8068
:03092500E480EF7C
:10092800ED33EC33601004700FED547F70057402E2
:0A09380092E0227404220422E4225B
:10094200020913E86480F8E933E83360110460F0C7
:10095200ED33EC337009E8FCE9FDEAFEEBFF22041B
:1009620060DED3EB9FEA9EE99DE8C2E78CF0C2F716
:1009720095F0400CE8CCF8E9CDF9EACEFAEBCFFBE2
:100982001208DE85D0F05804700320D5B3E8047055
:10099200075002B2D502091D92D5EC0460F7E4CCEF
:1009A200C0E0C398F8603B94186008400DD0E0FBAB
:1009B2000208F5E4FBFAC9FC8028E830E406E4C941
:1009C200FBE4CAFCE830E305E4C9CACBFCE85407FF
:1009D2006010F8C3E913F9EA13FAEB13FBEC13FC0A
:1009E200D8F130F52FC3E49CFCEF9BFFEE9AFEEDAD
:1009F20099FDD0E0FBEF4E4D4C701222DB03020951
:100A02001AEC2CFCEF33FFEE33FEED33FDED30E755
:100A1200EB0208F5EF2BFFEE3AFEED39FDD0E0FBDD
:100A220050130BBB000302091DED13FDEE13FEEF85
:080A320013FFEC13FC0208F5B0
:100A3A00EC4D6011E8497017ED33EC3304600DE4B6
:100A4A00FCFFFEFD22E933E8330470F802091312B1
:100A5A0008DE58046009E4CC2481500628500902B3
:100A6A00091D28400302091AC0E0EB4A7044B98004
:100A7A0006D0E0FB020909EF4E701CBD8008EBFFAF
:100A8A00EAFEE9FD80EBE98DF0A4FEE5F0020B2316
:100A9A00E9CDF9EAFEEBFFEF89F0A4FCE5F0CE8997
:100AAA00F0A42EFFE435F0CD89F0A42DFEE435F054
:100ABA008067EF4E7005BD80D780C3EF8BF0A4AC82
:100ACA00F0EE8BF0A42CFCE435F0F8EF8AF0A42CBD
:100ADA00E5F038FCE433CB8DF0A42CFCE5F03BF8D0
:100AEA00EE8AF0A42CFCE5F038F8E433CF89F0A4C0
:100AFA002CFCE5F038CF3400CE89F0A42FFFE5F0C6
:100B0A003EFEE433C98DF0A42EFEE5F039CD8AF01D
:100B1A00A42FFFE5F03EFEE43DFD33D0E0FB500795
:100B2A000BBB000F02091DEC2CFCEF33FFEE33FE6A
:060B3A00ED33FD0208F599
:100B400074F8CC6480CCC86480C8F58204604FC35C
:100B5000EB9FF5F0EA9E42F0E99D42F0E89C45F0FB
:100B6000603C501DE5825FFFE582D313CB5BCBF485
:100B70002B5582FB50280ABA002409B900200880AE
:100B80001DE5825BFBE582D313CF5FCFF4C3132F48
:100B90005582FF50090EBE00050DBD00010CC3EBD0
:100BA0009FF5F0EA9E42F0E99D42F0E89C45F06036
:090BB00007CC4820E701B3EC2258
:100BB900ED33EC33600A047003BD8004ECB2E7FC4A
:010BC9002209
:100BCA00EDD2E7CD33EC3392D524814006E4FFFE23
:100BDA00FDFC22FCE4CFCECDCC24E0501174FF8082
:100BEA00EDC3CC13CCCD13CDCE13CECF13CF04701F
:070BFA00F030D5DE020E48C9
:100C0100F920E72824F950037907E4F42402FB18BA
:100C1100DBFDE624FB5014E9600DE4F618E604F66A
:0F0C2100B40A08E4F6D9F57401F60A22C2D52206
:100C3000ED33EC3392D5FA602AB4FF33EDC2E77B93
:100C4000FF60067A0C7955E4227A0C795E20D5048F
:100C50007A0C7959224E614E002B494E46002D499F
:100C60004E4600E47A08F608DAFC7B00740722E8B6
:100C7000C0E0ECC0E0EDC0E0EEC0E0EFC0E0EA753F
:100C8000F010A4CAABF075F04DA42BFBE435F0FCDA
:100C9000EA2410FAEB34C5FBEC34D9FCEDC2E7FFD3
:100CA00075F056A4F42411C5F0F434C58FF0A42ACD
:100CB000E5F03BE43CF620E714120D63D0E0FFD0F2
:100CC000E0FED0E0FDD0E0FC1208038014F4041232
:100CD0000D63D0E0FFD0E0FED0E0FDD0E0FC120AD2
:100CE0003AD0E0F8E6FAEDD2E7CD33EC332482FBDC
:100CF000E4C3CF33CFCE33CECD33CD33DBF37B075D
:100D000075F00A846004F6081B0AE5F0F6088FF017
:100D1000740AA4FFACF08EF0740AA42CFEACF05060
:100D2000010C8DF0740AA42CFDE435F0F608DBDE2E
:030D300074072223
:10174F0033DA929E35B16011377FE5FE39218489F6
:10175F003AAEC3FF3C1D955B3D6358473E75FDF0A8
:10176F003F3172183F800000C2D502091D020913D4
:10177F00BD80FA50F302091AED33EC330460F17BAC
:10178F003B7AAA79B8783F120A3AED33EC3392D507
:10179F00247B5011A2D570DB500BED4480240450F4
:1017AF0004A2D580CEEFFBEEFAEDF9ECF8120BCADE
:1017BF00EFF582F404FC1208AA120949C0829017AF
:1017CF004F7409120DB2ED33CC33D0F092D525F012
:0A17DF00A2D57001C313CC13FD2244
:101503003E9248DA3ECCCCCD3F2AAAAB4000000045
:101513003F8000003F9837F03FB504F33FD744FCCA
:101523003E3172173EB172173F0515913EDE5BD90E
:10153300D2008002C200EDD2E7F8CD33EC33047061
:101543000BBD800592D502091D02091340FBD3147C
:1015530060F2F5F07C3FEE7A00C39496C8948B401A
:10156300230AC89469C8941A401A0AC89468C8948C
:101573001F40110AC8945AC89425400805F07A0000
:10158300CDC2E7CDC0F08C2E8D2F8E308F31EA2364
:1015930023C0E02413F582E43415F583120E66129A
:1015A3000949ECC0E0EDC0E0EEC0E0EFC0E0120E90
:1015B30056A82EA92FAA30AB31120945D0E0FBD093
:1015C300E0FAD0E0F9D0E0B2E7F81208038C2E8DF0
:1015D3002F8E308F319015037403120DA3A82EA9FB
:1015E3002FAA30AB31120A3AD0E0600F241FF582E4
:1015F300E43415F583120E661209498C2E8D2F8E55
:10160300308F31D0E0C3947FFDE49400FC1208A531
:101613007B187A727931783F120A3AA82EA92FAA39
:1016230030AB3112094930000B7BD97A5B79DE7814
:051633003E120A3A22FC
:100D33003F8000004120000042C80000447A0000C8
:100D4300461C400047C35000497424004B1896804A
:100D53004CBEBC205A0E1BCA6753C21C749DC5AE41
:100D6300FB60065407601C2323120D91EB5438607B
:100D730009120D7D120D8C120A3AECF8EDF9EEFA18
:100D8300EFCB22EB120D8C80F1543803241C900D11
:100D930033FE93FC0EEE93FD0EEE930ECE93FF22E5
:100DA300C0E0EFFBEEFAEDF9ECF8120A3AD0E0F509
:100DB300F0EFFBEEFAEDF9ECF8120E56A3A3A3A3A2
:100DC300E8C0E0E9C0E0EAC0E0EBC0E0C0F0120A2E
:100DD3003A120E66A3A3A3A3120949D0F0D0E0FBF5
:0D0DE300D0E0FAD0E0F9D0E0F8D5F0D4224D
:100DF000BB010689828A83E0225002E722BBFE0201
:090E0000E32289828A83E4932233
:100E0900BB010CE58229F582E5833AF583E022509E
:100E190006E92582F8E622BBFE06E92582F8E222E8
:0D0E2900E58229F582E5833AF583E4932202
:100E3600BB010689828A83F0225002F722BBFE019B
:020E4600F32295
:0E0E4800C3E49FFFE49EFEE49DFDE49CFC22BB
:100E5600E493FC740193FD740293FE740393FF22E2
:100E6600E493F8740193F9740293FA740393FB22E2
:0C0E7600A42582F582E5F03583F5832287
:100E8200FAE6FB0808E6F925F0F618E6CA3AF62271
:100E9200D083D082F8E4937012740193700DA3A3EF
:100EA20093F8740193F5828883E473740293686003
:060EB200EFA3A3A380DF03
:10190E00EFB40A07740D121919740A309811A899B8
:10191E00B8130CC2983098FDA899C298B811F63039
:07192E0099FDC299F5992211
:00000001FF
