:0300000002120ADF
:0C120A00787FE4F6D8FD75816402125173
:0E15F00025366C690025352E3166B025630066
:10151000C1090A223F065B4F666D7D077F6F072C6E
:101520002D204346B0250007344000397163730015
:03153000013390F4
:05166400D2B7D2B6224E
:05166900C2B7C2B62269
:09163800D2B7D2B6C2B7C2B62285
:09164100C2B6C2B7D2B6D2B7227C
:0C160B00EF24FF92B7D2B6C2B6D2B722CD
:03147200121669E6
:10147500E4FEA806EF088002C333D8FC30E703D3A7
:101485008001C392B7D2B6C2B60EBE08E5E4FF121C
:07149500160BA2B7E433FFC0
:01149C00222D
:1014C400E4FEFDD2B6A2B7E433FCC374079DFBF877
:1014D400EC088002C333D8FC2EFEC2B60DBD08E36F
:0514E40012160BAF061B
:0114E90022E0
:07164A00D288D2A8D2AF2222
:030003000216736F
:03167300B2093287
:0F15E1008F4912164AAF491215D1AF490216238E
:1015D1001214727FAC1214757F0212147502164137
:0B1623001214727FEE121475021641C3
:02141200AD0724
:101414001216691214757FAA121475121638ED0487
:10142400FF121475E4FF1214C4AA077F011214C436
:0F143400AD07121641EAFE7C00E42DFFEC3EFEF0
:011443002286
:041296008E498F4AA4
:10129A00E549FD3395E0FC120AA38F4E8E4D8D4C25
:1012AA008C4BE54A30E711E4FBFAF9783F1208075C
:1012BA008F4E8E4D8D4C8C4B200909AF4EAE4DADE5
:1012CA004CAC4B22E4FFFE7D107C41AB4EAA4DA9EB
:1012DA004CA84B1208F8E4FBFA79A07840120A01EC
:0912EA00E4FBFAF978421208074E
:0112F30022D8
:10155700D3EF9400EE940040147D7D7C00ED1D7068
:0D156700011CED4C70F7EF1F70E61E80E3D5
:011574002254
:07159E001215A5D2807F02A7
:0A15A500EFD3940040031F80F722EB
:05166E00C280C28122D0
:0C161700D280D2817F021215A5C2812270
:1015AF00C2807F021215A5C2817F0212159ED281C1
:0115BF002209
:0A162E00C2807F0512159EC28022C3
:0214EA00AE074B
:1014EC00E4FDC280A805EE088003A2E713D8FB3008
:1014FC00E003D38001C39281D2807F061215A50D23
:03150C00BD08DF38
:01150F0022B9
:0616580012166E0216518D
:10153400754CFF754D15754EF08F528E518D508C34
:101544004F7B007A007908120DF77B007A00790846
:0315540002158AF3
:10158A008B498A4A894B7F4012165EAB49AA4AA9FF
:04159A004B0213509D
:07165100EF2487FF02165E83
:061350008B4C8A4D894E12
:10135600E4F54F7D2E1213998F507FC01215FEAB08
:0A1366004CAA4DA94E120CFF6026A0
:10137000054EE54E7002054D14F9120CFFF551644F
:101380002E60E2AF4F054FAB51AD501213DE121479
:04139000EA12162E19
:0513940080CF0215AF3F
:06165E001215FE0215AF9B
:0D15FE00AE07121617AF061214EA02162EE1
:0613DE008F528D53AF0396
:1013E400E4F554EFC39430400EEFD39439500874AD
:1013F400F22FF8E6FF80031214448F54E553F4608F
:0D1404000AE552B55305EF2480FF22AF54D6
:0114110022B8
:021444008F55C2
:10144600E4F556F557742C2556F8E6601CAF551290
:1014560015C0742C2556F8E6B5070A74342556F8D7
:0B146600E6F5578004055680DCAF5708
:011471002258
:081399008B528A5389548D55D3
:1013A100E4F5567557FFF556AB52AA53A9541215D9
:1013B10075AD56ED3395E0FCC3ED9FEC9E501BAB34
:1013C10052AA53A9548D828C83120D18B55507E585
:0C13D1005614F5578004055680CEAF5727
:0113DD0022ED
:1012F4007F07121658AF331215E1AF33121412AC34
:1013040006AD07EC120AA38F3E8E3D8D3C8C3B123A
:101314000ADC1212968F528E518D508C4F754CFFF1
:10132400754D15754EF52009047F6380027F668F25
:10133400537B007A00793F120DF77B007A00793FE6
:0C13440012158A7F647E0012155780AEDF
:10080000020B48E86480F8E933E83360110460F0D3
:10081000ED33EC337009E8FCE9FDEAFEEBFF22045E
:1008200060DED3EB9FEA9EE99DE8C2E78CF0C2F759
:1008300095F0400CE8CCF8E9CDF9EACEFAEBCFFB25
:10084000120B1385D0F05804700320D5B3E8047060
:10085000075002B2D5020B5292D5EC0460F7E4CCFB
:10086000C0E0C398F8603B94186008400DD0E0FBEE
:10087000020B2AE4FBFAC9FC8028E830E406E4C94C
:10088000FBE4CAFCE830E305E4C9CACBFCE8540742
:100890006010F8C3E913F9EA13FAEB13FBEC13FC4D
:1008A000D8F130F52FC3E49CFCEF9BFFEE9AFEEDF0
:1008B00099FDD0E0FBEF4E4D4C701222DB03020B92
:1008C0004FEC2CFCEF33FFEE33FEED33FDED30E764
:1008D000EB020B2AEF2BFFEE3AFEED39FDD0E0FBE9
:1008E00050130BBB0003020B52ED13FDEE13FEEF92
:0808F00013FFEC13FC020B2ABC
:1008F800EC4D6011E8497017ED33EC3304600DE4FA
:10090800FCFFFEFD22E933E8330470F8020B4812BD
:100918000B1358046009E4CC2481500628500902BE
:100928000B52284003020B4FC0E0EB4A7044B980D9
:1009380006D0E0FB020B3EEF4E701CBD8008EBFFBB
:10094800EAFEE9FD80EBE98DF0A4FEE5F00209E19D
:10095800E9CDF9EAFEEBFFEF89F0A4FCE5F0CE89DA
:10096800F0A42EFFE435F0CD89F0A42DFEE435F097
:100978008067EF4E7005BD80D780C3EF8BF0A4ACC5
:10098800F0EE8BF0A42CFCE435F0F8EF8AF0A42C00
:10099800E5F038FCE433CB8DF0A42CFCE5F03BF813
:1009A800EE8AF0A42CFCE5F038F8E433CF89F0A403
:1009B8002CFCE5F038CF3400CE89F0A42FFFE5F009
:1009C8003EFEE433C98DF0A42EFEE5F039CD8AF061
:1009D800A42FFFE5F03EFEE43DFD33D0E0FB5007D9
:1009E8000BBB000F020B52EC2CFCEF33FFEE33FE77
:0609F800ED33FD020B2AA5
:1009FE00020B52EC5D046005E859047003020B48CB
:100A0E00120B13580460F6EC4860F2EC7004FDFE15
:100A1E00FF22C860DB2481C85009C39860025006CB
:100A2E00020B4F9850CAF582E9294B4A7005AB82EA
:100A3E00020B3E75F0007C1A7880C3EF9BEE9AEDA8
:100A4E0099400DC3EF9BFFEE9AFEED99FDE842F043
:100A5E00DC23ACF0D0E0FFD0E0FED0E0FDAB822096
:100A6E00E7101BEB60BAEC2CFCEF33FFEE33FEED20
:100A7E0033FD020B2AE803F830E705C0F075F000ED
:100A8E00EF2FFFEE33FEED33FD40B830E7C280AA04
:100A9E0075F020800E75F010800575F0087D007ED3
:100AAE00007F003392D530D503120D57EC33401032
:100ABE00EF33FFEE33FEED33FDEC33FCD5F0ED22DC
:0E0ACE00E5F0247EA2D513CC92E7CDCEFF2218
:100ADC00EDD2E7CD33EC3392D524814006E4FFFE12
:100AEC00FDFC22FCE4CFCECDCC24E0501174FF8071
:100AFC00EDC3CC13CCCD13CDCE13CECF13CF04700E
:070B0C00F030D5DE020D57A9
:100D9B00E560244CF8E60560227849300702784C70
:100DAB00E475F001120D65020CFF2000EB7F2ED2D3
:100DBB00008018EF540F2490D43440D4FF30040B30
:100DCB00EF24BFB41A0050032461FFE561600215E4
:100DDB00610564E5647002056330070D7849E475BD
:100DEB00F001120D65EF020D4502149D7403D2073D
:100DFB008003E4C207F5608B498A4A894BE4F561AD
:100E0B00F563F564E56160077F20120DD680F575FB
:100E1B0062FFC201C200C202C203C205C206C208FF
:100E2B00120DA4FF700D3007057F00120DE7AF64A4
:100E3B00AE6322B4255FC2D5C204120DA4FF24D029
:100E4B00B40A00501A75F00A786130D50508B6FF60
:100E5B000106C6A426F620D5047002D20380D9243D
:100E6B00CFB41A00EF5004C2E5D2040210D4D20161
:100E7B0080C6D20080C0D20280BCD2D580BAD20547
:100E8B0080B47F20120DD62002077401B56100409B
:100E9B00F1120D9BFF120DD6020E0FD208D2068057
:100EAB0095120D9BFB120D9BFA120D9BF94A4B7081
:100EBB000679CB7A117BFF20022EE561602A7E003A
:100ECB008E82758300120D1860060EEE656270F04F
:100EDB00C2D5EBC0E0EAC0E0E9C0E0EE121134D0BD
:100EEB00E0F9D0E0FAD0E0FB120CFFFF60AAEBC0F8
:100EFB00E0EAC0E0E9C0E0120DD6D0E02401F9D061
:100F0B00E03400FAD0E0FBE5620460DCD562D98006
:100F1B0087D20280A212111760F7E56270010412EA
:100F2B000B5DA962600DE562600914F5621211BEDA
:100F3B00EF60F3EA30E702F404C3995077EAF42543
:100F4B00620430E701E404F562800D12111760C1F1
:100F5B00EA05622562120B5DEA785FF630E701E481
:100F6B00256204D5620420050114121134E4C0E09B
:100F7B001211BE785FE6601320E70714F6120DBE60
:100F8B00802204F6D0E014C0E07F00120DBEE562B3
:100F9B006007120DB51562800B300503120DB5D02D
:100FAB00E0020E0FD0E00480C512111760A0E562BD
:100FBB0004120B5D785FEAF6E5622005026001041E
:050FCB002404121134A2
:100FD00074FF04C0E01211BE120DBEE562200502CE
:100FE0006003120DB5D0E0B562E87F45120DC878F8
:100FF0005FE67F2B30E7047F2DF404C0E0120DD6AE
:10100000D0E075F00A84C0F0120DBFD0E0120DBF21
:10101000020E0F791080027908C206C2088008D239
:10102000D5790A8004790AC2D5E562047002F562B6
:10103000E4FAFDFEFF120D9BFC7B08200113120D4C
:101040009BFD7B1030000A120D9BFE120D9BFF7B57
:1010500020EC3382D592D55013C3E43000069FFFB5
:10106000E49EFEE42001039DFDE49CFCE4CBF8C279
:1010700001EC700CCFCECDCCE824F8F870F38017DB
:10108000C3EF33FFEE33FEED33FDEC33FCEB33FB0C
:10109000994002FB0FD8E9EB300105F8D0E0C448D5
:1010A000B201C0E00AEC4D4E4F78207B0070C2EADE
:1010B000B5620040BCC0E0121136D0F0D0E0200193
:1010C00004C4C0E0C4B201C0F0120DBFD0F0D5F02E
:1010D000EB020E0F120D750EAC531013580E7D4C13
:1010E0000E794210174F101F44101F490E924310E3
:1010F00025550F56460FB4450F204711EB500E8172
:101100002D0E852E0EA82B0E89230EA62011D42A73
:101110000E414800000EA0E562B4FF03756206129E
:101120000D9BFC120D9BFD120D9BFE120D9BFF787B
:1011300058020B8C790AA2D5200314300509B91086
:10114000020404B9080104A2D520060250010420BB
:1011500002689202B561005034C0E07F203003196C
:101160007F30A20272067205500F12118DC202C2A8
:1011700006C205C2087F30800F300503E9C0E012C7
:101180000DD6300503D0E0F9D0E0B561CC300517BD
:101190007F30B9100C120DD67F583004077F78804D
:1011A00003B90803120DD63002057F2D020DD67F3C
:1011B000202008F87F2B2006F322920280CF7F00A8
:1011C000B4070050052458F8E6FF22286E756C6CB1
:1011D0002900D201120D9B3001F8C201786130D58F
:1011E0000108F6020E412D50434958120D9B24036D
:1011F000B405004001E49011E693120DC7743A1251
:0A1200000DC7D2037561040210133C
:100B1300E9D2E7C933E833F892D5EDD2E7CD33EC28
:070B230033FC5002B2D522A1
:100B2A00EC30E7100FBF000C0EBE00080DBD00042C
:100B3A000BEB6014A2D5EB13FCED92E7FD2274FFD8
:100B4A00FCFDFEFF22E480F8A2D574FF13FC7D8031
:030B5A00E480EF45
:100B5D00F920E72824F950037907E4F42402FB185F
:100B6D00DBFDE624FB5014E9600DE4F618E604F60F
:0F0B7D00B40A08E4F6D9F57401F60A22C2D522AB
:100B8C00ED33EC3392D5FA602AB4FF33EDC2E77B38
:100B9C00FF60067A0B79B1E4227A0B79BA20D5047E
:100BAC007A0B79B5224E614E002B494E46002D49E9
:100BBC004E4600E47A08F608DAFC7B00740722E85B
:100BCC00C0E0ECC0E0EDC0E0EEC0E0EFC0E0EA75E4
:100BDC00F010A4CAABF075F04DA42BFBE435F0FC7F
:100BEC00EA2410FAEB34C5FBEC34D9FCEDC2E7FF78
:100BFC0075F056A4F42411C5F0F434C58FF0A42A72
:100C0C00E5F03BE43CF620E714120CBFD0E0FFD03B
:100C1C00E0FED0E0FDD0E0FC120A018014F40412D6
:100C2C000CBFD0E0FFD0E0FED0E0FDD0E0FC12081D
:100C3C00F8D0E0F8E6FAEDD2E7CD33EC332482FBC2
:100C4C00E4C3CF33CFCE33CECD33CD33DBF37B0701
:100C5C0075F00A846004F6081B0AE5F0F6088FF0BC
:100C6C00740AA4FFACF08EF0740AA42CFEACF05005
:100C7C00010C8DF0740AA42CFDE435F0F608DBDED3
:030C8C00740722C8
:100C8F003F8000004120000042C80000447A00006D
:100C9F00461C400047C35000497424004B189680EF
:100CAF004CBEBC205A0E1BCA6753C21C749DC5AEE6
:100CBF00FB60065407601C2323120CEDEB543860C5
:100CCF0009120CD9120CE81208F8ECF8EDF9EEFA4B
:100CDF00EFCB22EB120CE880F1543803241C900C5C
:100CEF008FFE93FC0EEE93FD0EEE930ECE93FF222E
:101216000212F4E493A3F8E493A34003F68001F2E8
:1012260008DFF48029E493A3F85407240CC8C333D9
:10123600C4540F4420C8834004F456800146F6DFA8
:10124600E4800B0102040810204080901510E47E13
:10125600019360BCA3FF543F30E509541FFEE4939D
:10126600A360010ECF54C025E060A840B8E493A364
:10127600FAE493A3F8E493A3C8C582C8CAC583CA8F
:10128600F0A3C8C582C8CAC583CADFE9DEE780BE47
:0115330000B7
:100CFF00BB010689828A83E0225002E722BBFE02F3
:090D0F00E32289828A83E4932225
:100D1800BB010CE58229F582E5833AF583E0225090
:100D280006E92582F8E622BBFE06E92582F8E222DA
:0D0D3800E58229F582E5833AF583E49322F4
:100D4500BB010689828A83F0225002F722BBFE018D
:020D5500F32287
:0E0D5700C3E49FFFE49EFEE49DFDE49CFC22AD
:100D6500FAE6FB0808E6F925F0F618E6CA3AF6228F
:100D7500D083D082F8E4937012740193700DA3A30D
:100D850093F8740193F5828883E473740293686021
:060D9500EFA3A3A380DF21
:10149D00EFB40A07740D1214A8740A309811A899A4
:1014AD00B8130CC2983098FDA899C298B811F630AF
:0714BD0099FDC299F5992287
:1015C000EFC39461400AEF947B5005EF24E0FF22C3
:0115D00022F8
:10157500E4FFFE120CFF600C0FEF70010E09E9701D
:05158500F20A80EF22D4
:00000001FF
